{
  "abi": [
    {
      "inputs": [
        {
          "internalType": "contract IXToken",
          "name": "_xToken",
          "type": "address"
        }
      ],
      "stateMutability": "nonpayable",
      "type": "constructor"
    },
    {
      "anonymous": false,
      "inputs": [
        {
          "indexed": true,
          "internalType": "address",
          "name": "userAddress",
          "type": "address"
        },
        {
          "indexed": true,
          "internalType": "address",
          "name": "poolAddress",
          "type": "address"
        },
        {
          "indexed": false,
          "internalType": "uint256",
          "name": "tokenId",
          "type": "uint256"
        },
        {
          "indexed": false,
          "internalType": "uint256",
          "name": "amount",
          "type": "uint256"
        }
      ],
      "name": "Allocate",
      "type": "event"
    },
    {
      "anonymous": false,
      "inputs": [
        {
          "indexed": true,
          "internalType": "address",
          "name": "userAddress",
          "type": "address"
        },
        {
          "indexed": true,
          "internalType": "address",
          "name": "poolAddress",
          "type": "address"
        },
        {
          "indexed": false,
          "internalType": "uint256",
          "name": "tokenId",
          "type": "uint256"
        },
        {
          "indexed": false,
          "internalType": "uint256",
          "name": "amount",
          "type": "uint256"
        }
      ],
      "name": "Deallocate",
      "type": "event"
    },
    {
      "anonymous": false,
      "inputs": [
        {
          "indexed": false,
          "internalType": "address",
          "name": "caller",
          "type": "address"
        },
        {
          "indexed": false,
          "internalType": "contract IERC20",
          "name": "token",
          "type": "address"
        },
        {
          "indexed": false,
          "internalType": "uint256",
          "name": "amount",
          "type": "uint256"
        }
      ],
      "name": "EmergencyWithdraw",
      "type": "event"
    },
    {
      "anonymous": false,
      "inputs": [
        {
          "indexed": true,
          "internalType": "address",
          "name": "previousOwner",
          "type": "address"
        },
        {
          "indexed": true,
          "internalType": "address",
          "name": "newOwner",
          "type": "address"
        }
      ],
      "name": "OwnershipTransferred",
      "type": "event"
    },
    {
      "anonymous": false,
      "inputs": [
        {
          "indexed": false,
          "internalType": "address",
          "name": "caller",
          "type": "address"
        },
        {
          "indexed": false,
          "internalType": "bool",
          "name": "status",
          "type": "bool"
        }
      ],
      "name": "UpdateForcedDeallocationStatus",
      "type": "event"
    },
    {
      "anonymous": false,
      "inputs": [
        {
          "indexed": false,
          "internalType": "uint256",
          "name": "newFloor",
          "type": "uint256"
        }
      ],
      "name": "UpdateTotalAllocationFloor",
      "type": "event"
    },
    {
      "inputs": [],
      "name": "MAX_TOTAL_ALLOCATION_FLOOR",
      "outputs": [
        {
          "internalType": "uint256",
          "name": "",
          "type": "uint256"
        }
      ],
      "stateMutability": "view",
      "type": "function"
    },
    {
      "inputs": [
        {
          "internalType": "address",
          "name": "userAddress",
          "type": "address"
        },
        {
          "internalType": "uint256",
          "name": "amount",
          "type": "uint256"
        },
        {
          "internalType": "bytes",
          "name": "data",
          "type": "bytes"
        }
      ],
      "name": "allocate",
      "outputs": [],
      "stateMutability": "nonpayable",
      "type": "function"
    },
    {
      "inputs": [
        {
          "internalType": "address",
          "name": "userAddress",
          "type": "address"
        },
        {
          "internalType": "uint256",
          "name": "amount",
          "type": "uint256"
        },
        {
          "internalType": "bytes",
          "name": "data",
          "type": "bytes"
        }
      ],
      "name": "deallocate",
      "outputs": [],
      "stateMutability": "nonpayable",
      "type": "function"
    },
    {
      "inputs": [
        {
          "internalType": "address",
          "name": "userAddress",
          "type": "address"
        },
        {
          "internalType": "uint256",
          "name": "tokenId",
          "type": "uint256"
        }
      ],
      "name": "deallocateAllFromPool",
      "outputs": [],
      "stateMutability": "nonpayable",
      "type": "function"
    },
    {
      "inputs": [
        {
          "internalType": "contract IERC20",
          "name": "token",
          "type": "address"
        }
      ],
      "name": "emergencyWithdraw",
      "outputs": [],
      "stateMutability": "nonpayable",
      "type": "function"
    },
    {
      "inputs": [],
      "name": "forceDeallocate",
      "outputs": [],
      "stateMutability": "nonpayable",
      "type": "function"
    },
    {
      "inputs": [],
      "name": "forcedDeallocationStatus",
      "outputs": [
        {
          "internalType": "bool",
          "name": "",
          "type": "bool"
        }
      ],
      "stateMutability": "view",
      "type": "function"
    },
    {
      "inputs": [
        {
          "internalType": "uint256",
          "name": "maxBoostMultiplier",
          "type": "uint256"
        },
        {
          "internalType": "uint256",
          "name": "lpAmount",
          "type": "uint256"
        },
        {
          "internalType": "uint256",
          "name": "totalLpSupply",
          "type": "uint256"
        },
        {
          "internalType": "uint256",
          "name": "userAllocation",
          "type": "uint256"
        },
        {
          "internalType": "uint256",
          "name": "poolTotalAllocation",
          "type": "uint256"
        }
      ],
      "name": "getExpectedMultiplier",
      "outputs": [
        {
          "internalType": "uint256",
          "name": "",
          "type": "uint256"
        }
      ],
      "stateMutability": "view",
      "type": "function"
    },
    {
      "inputs": [
        {
          "internalType": "address",
          "name": "poolAddress",
          "type": "address"
        },
        {
          "internalType": "uint256",
          "name": "maxBoostMultiplier",
          "type": "uint256"
        },
        {
          "internalType": "uint256",
          "name": "lpAmount",
          "type": "uint256"
        },
        {
          "internalType": "uint256",
          "name": "totalLpSupply",
          "type": "uint256"
        },
        {
          "internalType": "uint256",
          "name": "userAllocation",
          "type": "uint256"
        }
      ],
      "name": "getMultiplier",
      "outputs": [
        {
          "internalType": "uint256",
          "name": "",
          "type": "uint256"
        }
      ],
      "stateMutability": "view",
      "type": "function"
    },
    {
      "inputs": [
        {
          "internalType": "address",
          "name": "poolAddress",
          "type": "address"
        }
      ],
      "name": "getPoolTotalAllocation",
      "outputs": [
        {
          "internalType": "uint256",
          "name": "",
          "type": "uint256"
        }
      ],
      "stateMutability": "view",
      "type": "function"
    },
    {
      "inputs": [
        {
          "internalType": "address",
          "name": "userAddress",
          "type": "address"
        },
        {
          "internalType": "address",
          "name": "poolAddress",
          "type": "address"
        },
        {
          "internalType": "uint256",
          "name": "index",
          "type": "uint256"
        }
      ],
      "name": "getUserPosition",
      "outputs": [
        {
          "internalType": "uint256",
          "name": "",
          "type": "uint256"
        }
      ],
      "stateMutability": "view",
      "type": "function"
    },
    {
      "inputs": [
        {
          "internalType": "address",
          "name": "userAddress",
          "type": "address"
        },
        {
          "internalType": "address",
          "name": "poolAddress",
          "type": "address"
        },
        {
          "internalType": "uint256",
          "name": "tokenId",
          "type": "uint256"
        }
      ],
      "name": "getUserPositionAllocation",
      "outputs": [
        {
          "internalType": "uint256",
          "name": "",
          "type": "uint256"
        }
      ],
      "stateMutability": "view",
      "type": "function"
    },
    {
      "inputs": [
        {
          "internalType": "address",
          "name": "userAddress",
          "type": "address"
        },
        {
          "internalType": "address",
          "name": "poolAddress",
          "type": "address"
        }
      ],
      "name": "getUserPositionsLength",
      "outputs": [
        {
          "internalType": "uint256",
          "name": "",
          "type": "uint256"
        }
      ],
      "stateMutability": "view",
      "type": "function"
    },
    {
      "inputs": [
        {
          "internalType": "address",
          "name": "userAddress",
          "type": "address"
        }
      ],
      "name": "getUserTotalAllocation",
      "outputs": [
        {
          "internalType": "uint256",
          "name": "",
          "type": "uint256"
        }
      ],
      "stateMutability": "view",
      "type": "function"
    },
    {
      "inputs": [],
      "name": "owner",
      "outputs": [
        {
          "internalType": "address",
          "name": "",
          "type": "address"
        }
      ],
      "stateMutability": "view",
      "type": "function"
    },
    {
      "inputs": [],
      "name": "renounceOwnership",
      "outputs": [],
      "stateMutability": "nonpayable",
      "type": "function"
    },
    {
      "inputs": [
        {
          "internalType": "uint256",
          "name": "floor",
          "type": "uint256"
        }
      ],
      "name": "setTotalAllocationFloor",
      "outputs": [],
      "stateMutability": "nonpayable",
      "type": "function"
    },
    {
      "inputs": [],
      "name": "totalAllocation",
      "outputs": [
        {
          "internalType": "uint256",
          "name": "",
          "type": "uint256"
        }
      ],
      "stateMutability": "view",
      "type": "function"
    },
    {
      "inputs": [],
      "name": "totalAllocationFloor",
      "outputs": [
        {
          "internalType": "uint256",
          "name": "",
          "type": "uint256"
        }
      ],
      "stateMutability": "view",
      "type": "function"
    },
    {
      "inputs": [
        {
          "internalType": "address",
          "name": "newOwner",
          "type": "address"
        }
      ],
      "name": "transferOwnership",
      "outputs": [],
      "stateMutability": "nonpayable",
      "type": "function"
    },
    {
      "inputs": [
        {
          "internalType": "bool",
          "name": "status",
          "type": "bool"
        }
      ],
      "name": "updateForcedDeallocationStatus",
      "outputs": [],
      "stateMutability": "nonpayable",
      "type": "function"
    },
    {
      "inputs": [
        {
          "internalType": "address",
          "name": "",
          "type": "address"
        },
        {
          "internalType": "address",
          "name": "",
          "type": "address"
        },
        {
          "internalType": "uint256",
          "name": "",
          "type": "uint256"
        }
      ],
      "name": "usersPositionsAllocation",
      "outputs": [
        {
          "internalType": "uint256",
          "name": "",
          "type": "uint256"
        }
      ],
      "stateMutability": "view",
      "type": "function"
    },
    {
      "inputs": [],
      "name": "xToken",
      "outputs": [
        {
          "internalType": "contract IXToken",
          "name": "",
          "type": "address"
        }
      ],
      "stateMutability": "view",
      "type": "function"
    }
  ],
  "bytecode": {
    "object": "0x60a060405268056bc75e2d6310000060025534801561001d57600080fd5b50604051611e70380380611e708339818101604052602081101561004057600080fd5b5051600061004c6100af565b600080546001600160a01b0319166001600160a01b0383169081178255604051929350917f8be0079c531659141344cd1fd0a4f28419497f9722a3daafe3b4186f6b6457e0908290a3506001805560601b6001600160601b0319166080526100b3565b3390565b60805160601c611d876100e960003980610525528061059d5280610891528061097d5280610f7952806110165250611d876000f3fe608060405234801561001057600080fd5b506004361061014d5760003560e01c806379203dc4116100c3578063c15cb9f41161007c578063c15cb9f41461045a578063c72f558014610479578063d2eec6ff14610481578063e23ec7fd146104bf578063e26a96bb146104c7578063f2fde38b146104fd5761014d565b806379203dc4146103b15780637d6aaab1146103b95780638da5cb5b146103ef5780639a2b6f79146103f7578063b24dd3f01461042c578063b33c93a8146104345761014d565b8063532b655411610115578063532b65541461028f57806354854354146102ac578063549230c9146102d85780636ff1c9bc1461035d578063715018a61461038357806371a691ea1461038b5761014d565b8063088b699e146101525780631c75e369146101765780631e5dd8b1146101fd57806324655fc3146102455780634e18951a14610261575b600080fd5b61015a610523565b604080516001600160a01b039092168252519081900360200190f35b6101fb6004803603606081101561018c57600080fd5b6001600160a01b03823516916020810135918101906060810160408201356401000000008111156101bc57600080fd5b8201836020820111156101ce57600080fd5b803590602001918460018302840111640100000000831117156101f057600080fd5b509092509050610547565b005b6102336004803603606081101561021357600080fd5b506001600160a01b0381358116916020810135909116906040013561069e565b60408051918252519081900360200190f35b61024d6106d4565b604080519115158252519081900360200190f35b6102336004803603604081101561027757600080fd5b506001600160a01b03813581169160200135166106dd565b6101fb600480360360208110156102a557600080fd5b5035610716565b6101fb600480360360408110156102c257600080fd5b506001600160a01b038135169060200135610807565b6101fb600480360360608110156102ee57600080fd5b6001600160a01b038235169160208101359181019060608101604082013564010000000081111561031e57600080fd5b82018360208201111561033057600080fd5b8035906020019184600183028401116401000000008311171561035257600080fd5b509092509050610927565b6101fb6004803603602081101561037357600080fd5b50356001600160a01b0316610adb565b6101fb610ca5565b610233600480360360208110156103a157600080fd5b50356001600160a01b0316610d51565b610233610d6c565b610233600480360360608110156103cf57600080fd5b506001600160a01b03813581169160208101359091169060400135610d72565b61015a610dab565b610233600480360360a081101561040d57600080fd5b5080359060208101359060408101359060608101359060800135610dba565b610233610dd5565b6102336004803603602081101561044a57600080fd5b50356001600160a01b0316610de2565b6101fb6004803603602081101561047057600080fd5b50351515610dfd565b6101fb610eae565b610233600480360360a081101561049757600080fd5b506001600160a01b03813516906020810135906040810135906060810135906080013561107d565b6102336110a7565b610233600480360360608110156104dd57600080fd5b506001600160a01b038135811691602081013590911690604001356110ad565b6101fb6004803603602081101561051357600080fd5b50356001600160a01b03166110d0565b7f000000000000000000000000000000000000000000000000000000000000000081565b6002600154141561058d576040805162461bcd60e51b815260206004820152601f6024820152600080516020611be3833981519152604482015290519081900360640190fd5b6002600155336001600160a01b037f000000000000000000000000000000000000000000000000000000000000000016146105f95760405162461bcd60e51b8152600401808060200182810382526023815260200180611c4f6023913960400191505060405180910390fd5b6000808383604081101561060c57600080fd5b506001600160a01b03813516925060200135905061062c868383886111d2565b816001600160a01b03166340be7bec82876040518363ffffffff1660e01b81526004018083815260200182815260200192505050600060405180830381600087803b15801561067a57600080fd5b505af115801561068e573d6000803e3d6000fd5b5050600180555050505050505050565b6001600160a01b0380841660009081526004602090815260408083209386168352928152828220848352905220545b9392505050565b60085460ff1681565b6001600160a01b038083166000908152600360209081526040808320938516835292905290812061070d90611321565b90505b92915050565b61071e61132c565b6001600160a01b031661072f610dab565b6001600160a01b031614610778576040805162461bcd60e51b81526020600482018190526024820152600080516020611cba833981519152604482015290519081900360640190fd5b6000811180156107915750683635c9adc5dea000008111155b6107cc5760405162461bcd60e51b8152600401808060200182810382526026815260200180611cda6026913960400191505060405180910390fd5b60028190556040805182815290517f74aa87c571361007131d906fd24194a1f1faf3463cd99cc28f632590aa6092e69181900360200190a150565b6002600154141561084d576040805162461bcd60e51b815260206004820152601f6024820152600080516020611be3833981519152604482015290519081900360640190fd5b60026001556001600160a01b038216600090815260046020908152604080832033808552908352818420858552909252909120549061088f9084908484611330565b7f00000000000000000000000000000000000000000000000000000000000000006001600160a01b031663a0bdc7cb84836040518363ffffffff1660e01b815260040180836001600160a01b0316815260200182815260200192505050600060405180830381600087803b15801561090657600080fd5b505af115801561091a573d6000803e3d6000fd5b5050600180555050505050565b6002600154141561096d576040805162461bcd60e51b815260206004820152601f6024820152600080516020611be3833981519152604482015290519081900360640190fd5b6002600155336001600160a01b037f000000000000000000000000000000000000000000000000000000000000000016146109d95760405162461bcd60e51b8152600401808060200182810382526023815260200180611c4f6023913960400191505060405180910390fd5b600080838360408110156109ec57600080fd5b506001600160a01b038135169250602001359050610a0c86838388611330565b816001600160a01b0316634f558e79826040518263ffffffff1660e01b81526004018082815260200191505060206040518083038186803b158015610a5057600080fd5b505afa158015610a64573d6000803e3d6000fd5b505050506040513d6020811015610a7a57600080fd5b505115610acf57816001600160a01b0316639016f82282876040518363ffffffff1660e01b81526004018083815260200182815260200192505050600060405180830381600087803b15801561067a57600080fd5b50506001805550505050565b60026001541415610b21576040805162461bcd60e51b815260206004820152601f6024820152600080516020611be3833981519152604482015290519081900360640190fd5b6002600155610b2e61132c565b6001600160a01b0316610b3f610dab565b6001600160a01b031614610b88576040805162461bcd60e51b81526020600482018190526024820152600080516020611cba833981519152604482015290519081900360640190fd5b6000816001600160a01b03166370a08231306040518263ffffffff1660e01b815260040180826001600160a01b0316815260200191505060206040518083038186803b158015610bd757600080fd5b505afa158015610beb573d6000803e3d6000fd5b505050506040513d6020811015610c0157600080fd5b5051905080610c415760405162461bcd60e51b8152600401808060200182810382526028815260200180611d006028913960400191505060405180910390fd5b604080513381526001600160a01b038416602082015280820183905290517ff24ef89f38eadc1bde50701ad6e4d6d11a2dc24f7cf834a486991f38833285049181900360600190a1610c9d6001600160a01b03831633836114e9565b505060018055565b610cad61132c565b6001600160a01b0316610cbe610dab565b6001600160a01b031614610d07576040805162461bcd60e51b81526020600482018190526024820152600080516020611cba833981519152604482015290519081900360640190fd5b600080546040516001600160a01b03909116907f8be0079c531659141344cd1fd0a4f28419497f9722a3daafe3b4186f6b6457e0908390a3600080546001600160a01b0319169055565b6001600160a01b031660009081526006602052604090205490565b60075481565b6001600160a01b0380841660009081526003602090815260408083209386168352929052908120610da39083611540565b949350505050565b6000546001600160a01b031690565b6000610dc9868686868661154c565b90505b95945050505050565b683635c9adc5dea0000081565b6001600160a01b031660009081526005602052604090205490565b610e0561132c565b6001600160a01b0316610e16610dab565b6001600160a01b031614610e5f576040805162461bcd60e51b81526020600482018190526024820152600080516020611cba833981519152604482015290519081900360640190fd5b6008805460ff191682151590811790915560408051338152602081019290925280517ff82797bd475489f8533dffe42417dafb397877f3470ae89c491cdb90068a065c9281900390910190a150565b60026001541415610ef4576040805162461bcd60e51b815260206004820152601f6024820152600080516020611be3833981519152604482015290519081900360640190fd5b600260015560085460ff16610f50576040805162461bcd60e51b815260206004820152601d60248201527f666f7263654465616c6c6f636174653a20756e617574686f72697a6564000000604482015290519081900360640190fd5b604080516316617ae760e11b815233600482015230602482015290516000916001600160a01b037f00000000000000000000000000000000000000000000000000000000000000001691632cc2f5ce91604480820192602092909190829003018186803b158015610fc057600080fd5b505afa158015610fd4573d6000803e3d6000fd5b505050506040513d6020811015610fea57600080fd5b50516040805163a0bdc7cb60e01b81523360048201526024810183905290519192506001600160a01b037f0000000000000000000000000000000000000000000000000000000000000000169163a0bdc7cb9160448082019260009290919082900301818387803b15801561105e57600080fd5b505af1158015611072573d6000803e3d6000fd5b505060018055505050565b6001600160a01b038516600090815260066020526040812054610dc990869086908690869061154c565b60025481565b600460209081526000938452604080852082529284528284209052825290205481565b6110d861132c565b6001600160a01b03166110e9610dab565b6001600160a01b031614611132576040805162461bcd60e51b81526020600482018190526024820152600080516020611cba833981519152604482015290519081900360640190fd5b6001600160a01b0381166111775760405162461bcd60e51b8152600401808060200182810382526026815260200180611c036026913960400191505060405180910390fd5b600080546040516001600160a01b03808516939216917f8be0079c531659141344cd1fd0a4f28419497f9722a3daafe3b4186f6b6457e091a3600080546001600160a01b0319166001600160a01b0392909216919091179055565b6001600160a01b0384166000908152600560205260409020546111f590826115d1565b6001600160a01b03808616600090815260056020908152604080832094909455600481528382209287168252918252828120858252909152205461123990826115d1565b6001600160a01b0380861660008181526004602090815260408083209489168084529482528083208884528252808320959095559181526003825283812092815291905220611288908361162b565b5060075461129690826115d1565b6007556001600160a01b0383166000908152600660205260409020546112bc90826115d1565b6001600160a01b0380851660008181526006602090815260409182902094909455805186815293840185905280519193928816927f5b9d56b28a7cde78f80ab41749028c18864c008e0e3722985c63ea258111b7eb929081900390910190a350505050565b600061071082611637565b3390565b6001600160a01b0380851660009081526004602090815260408083209387168352928152828220858352905220548181101561139d5760405162461bcd60e51b8152600401808060200182810382526027815260200180611c726027913960400191505060405180910390fd5b6001600160a01b0385166000908152600560205260409020546113c0908361163b565b6001600160a01b0386166000908152600560205260409020556113e3818361163b565b6001600160a01b03808716600090815260046020908152604080832093891683529281528282208783529052205561141b818361163b565b611450576001600160a01b03808616600090815260036020908152604080832093881683529290522061144e9084611698565b505b60075461145d908361163b565b6007556001600160a01b038416600090815260066020526040902054611483908361163b565b6001600160a01b0380861660008181526006602090815260409182902094909455805187815293840186905280519193928916927f7d613f7bd1a777aeeefdd38ae61201003086575188df50618d02482220f5c147929081900390910190a35050505050565b604080516001600160a01b038416602482015260448082018490528251808303909101815260649091019091526020810180516001600160e01b031663a9059cbb60e01b17905261153b9084906116a4565b505050565b600061070d8383611755565b600060025482101561155e5760025491505b811580611569575084155b80611572575082155b8061157b575083155b80611584575085155b1561159157506000610dcc565b60006115ba6115a087856117b9565b6115b4896115ae888a6117b9565b906117b9565b90611812565b90506115c68188611879565b979650505050505050565b60008282018381101561070d576040805162461bcd60e51b815260206004820152601b60248201527f536166654d6174683a206164646974696f6e206f766572666c6f770000000000604482015290519081900360640190fd5b600061070d838361188f565b5490565b600082821115611692576040805162461bcd60e51b815260206004820152601e60248201527f536166654d6174683a207375627472616374696f6e206f766572666c6f770000604482015290519081900360640190fd5b50900390565b600061070d83836118d9565b60006116f9826040518060400160405280602081526020017f5361666545524332303a206c6f772d6c6576656c2063616c6c206661696c6564815250856001600160a01b031661199f9092919063ffffffff16565b80519091501561153b5780806020019051602081101561171857600080fd5b505161153b5760405162461bcd60e51b815260040180806020018281038252602a815260200180611d28602a913960400191505060405180910390fd5b815460009082106117975760405162461bcd60e51b8152600401808060200182810382526022815260200180611bc16022913960400191505060405180910390fd5b8260000182815481106117a657fe5b9060005260206000200154905092915050565b6000826117c857506000610710565b828202828482816117d557fe5b041461070d5760405162461bcd60e51b8152600401808060200182810382526021815260200180611c996021913960400191505060405180910390fd5b6000808211611868576040805162461bcd60e51b815260206004820152601a60248201527f536166654d6174683a206469766973696f6e206279207a65726f000000000000604482015290519081900360640190fd5b81838161187157fe5b049392505050565b6000818310611888578161070d565b5090919050565b600061189b83836119ae565b6118d157508154600181810184556000848152602080822090930184905584548482528286019093526040902091909155610710565b506000610710565b60008181526001830160205260408120548015611995578354600019808301919081019060009087908390811061190c57fe5b906000526020600020015490508087600001848154811061192957fe5b60009182526020808320909101929092558281526001898101909252604090209084019055865487908061195957fe5b60019003818190600052602060002001600090559055866001016000878152602001908152602001600020600090556001945050505050610710565b6000915050610710565b6060610da384846000856119c6565b60009081526001919091016020526040902054151590565b606082471015611a075760405162461bcd60e51b8152600401808060200182810382526026815260200180611c296026913960400191505060405180910390fd5b611a1085611b16565b611a61576040805162461bcd60e51b815260206004820152601d60248201527f416464726573733a2063616c6c20746f206e6f6e2d636f6e7472616374000000604482015290519081900360640190fd5b600080866001600160a01b031685876040518082805190602001908083835b60208310611a9f5780518252601f199092019160209182019101611a80565b6001836020036101000a03801982511681845116808217855250505050505090500191505060006040518083038185875af1925050503d8060008114611b01576040519150601f19603f3d011682016040523d82523d6000602084013e611b06565b606091505b50915091506115c6828286611b1c565b3b151590565b60608315611b2b5750816106cd565b825115611b3b5782518084602001fd5b8160405162461bcd60e51b81526004018080602001828103825283818151815260200191508051906020019080838360005b83811015611b85578181015183820152602001611b6d565b50505050905090810190601f168015611bb25780820380516001836020036101000a031916815260200191505b509250505060405180910390fdfe456e756d657261626c655365743a20696e646578206f7574206f6620626f756e64735265656e7472616e637947756172643a207265656e7472616e742063616c6c004f776e61626c653a206e6577206f776e657220697320746865207a65726f2061646472657373416464726573733a20696e73756666696369656e742062616c616e636520666f722063616c6c78546f6b656e4f6e6c793a2063616c6c65722073686f756c642062652078546f6b656e6465616c6c6f636174653a206e6f7420656e6f75676820616c6c6f63617465642078546f6b656e536166654d6174683a206d756c7469706c69636174696f6e206f766572666c6f774f776e61626c653a2063616c6c6572206973206e6f7420746865206f776e6572736574546f74616c416c6c6f636174696f6e466c6f6f723a20696e76616c696420666c6f6f72656d657267656e637957697468647261773a20746f6b656e2062616c616e6365206973206e756c6c5361666545524332303a204552433230206f7065726174696f6e20646964206e6f742073756363656564a2646970667358221220a71a9f8ec1556d704cad10286bef8b394856ae5f7aceb7bc741aada1ea9bf53664736f6c63430007060033",
    "linkReferences": {}
  },
  "methodIdentifiers": {
    "MAX_TOTAL_ALLOCATION_FLOOR()": "b24dd3f0",
    "allocate(address,uint256,bytes)": "1c75e369",
    "deallocate(address,uint256,bytes)": "549230c9",
    "deallocateAllFromPool(address,uint256)": "54854354",
    "emergencyWithdraw(address)": "6ff1c9bc",
    "forceDeallocate()": "c72f5580",
    "forcedDeallocationStatus()": "24655fc3",
    "getExpectedMultiplier(uint256,uint256,uint256,uint256,uint256)": "9a2b6f79",
    "getMultiplier(address,uint256,uint256,uint256,uint256)": "d2eec6ff",
    "getPoolTotalAllocation(address)": "71a691ea",
    "getUserPosition(address,address,uint256)": "7d6aaab1",
    "getUserPositionAllocation(address,address,uint256)": "1e5dd8b1",
    "getUserPositionsLength(address,address)": "4e18951a",
    "getUserTotalAllocation(address)": "b33c93a8",
    "owner()": "8da5cb5b",
    "renounceOwnership()": "715018a6",
    "setTotalAllocationFloor(uint256)": "532b6554",
    "totalAllocation()": "79203dc4",
    "totalAllocationFloor()": "e23ec7fd",
    "transferOwnership(address)": "f2fde38b",
    "updateForcedDeallocationStatus(bool)": "c15cb9f4",
    "usersPositionsAllocation(address,address,uint256)": "e26a96bb",
    "xToken()": "088b699e"
  },
  "id": 12
}