{
  "abi": [
    {
      "inputs": [],
      "stateMutability": "nonpayable",
      "type": "constructor"
    },
    {
      "anonymous": false,
      "inputs": [
        {
          "indexed": false,
          "internalType": "address",
          "name": "nftPoolAddress",
          "type": "address"
        },
        {
          "indexed": false,
          "internalType": "address",
          "name": "account",
          "type": "address"
        }
      ],
      "name": "ApprovedForPool",
      "type": "event"
    },
    {
      "anonymous": false,
      "inputs": [
        {
          "indexed": false,
          "internalType": "uint8",
          "name": "version",
          "type": "uint8"
        }
      ],
      "name": "Initialized",
      "type": "event"
    },
    {
      "anonymous": false,
      "inputs": [
        {
          "indexed": false,
          "internalType": "address",
          "name": "nftPoolAddress",
          "type": "address"
        }
      ],
      "name": "PoolAdded",
      "type": "event"
    },
    {
      "anonymous": false,
      "inputs": [
        {
          "indexed": true,
          "internalType": "address",
          "name": "nftPoolAddress",
          "type": "address"
        },
        {
          "indexed": false,
          "internalType": "address",
          "name": "token",
          "type": "address"
        },
        {
          "indexed": false,
          "internalType": "uint256",
          "name": "sharesPerSecond",
          "type": "uint256"
        }
      ],
      "name": "RewardTokenAdded",
      "type": "event"
    },
    {
      "anonymous": false,
      "inputs": [
        {
          "indexed": true,
          "internalType": "address",
          "name": "nftPoolAddress",
          "type": "address"
        },
        {
          "indexed": false,
          "internalType": "address",
          "name": "token",
          "type": "address"
        },
        {
          "indexed": false,
          "internalType": "uint256",
          "name": "amount",
          "type": "uint256"
        },
        {
          "indexed": false,
          "internalType": "uint256",
          "name": "tokenId",
          "type": "uint256"
        }
      ],
      "name": "RewardTokenHarvested",
      "type": "event"
    },
    {
      "anonymous": false,
      "inputs": [
        {
          "indexed": true,
          "internalType": "address",
          "name": "nftPoolAddress",
          "type": "address"
        },
        {
          "indexed": false,
          "internalType": "address",
          "name": "token",
          "type": "address"
        }
      ],
      "name": "RewardTokenRemoved",
      "type": "event"
    },
    {
      "anonymous": false,
      "inputs": [
        {
          "indexed": true,
          "internalType": "address",
          "name": "nftPoolAddress",
          "type": "address"
        },
        {
          "indexed": false,
          "internalType": "address",
          "name": "token",
          "type": "address"
        },
        {
          "indexed": false,
          "internalType": "uint256",
          "name": "sharesPerSecond",
          "type": "uint256"
        }
      ],
      "name": "RewardTokenUpdated",
      "type": "event"
    },
    {
      "anonymous": false,
      "inputs": [
        {
          "indexed": true,
          "internalType": "bytes32",
          "name": "role",
          "type": "bytes32"
        },
        {
          "indexed": true,
          "internalType": "bytes32",
          "name": "previousAdminRole",
          "type": "bytes32"
        },
        {
          "indexed": true,
          "internalType": "bytes32",
          "name": "newAdminRole",
          "type": "bytes32"
        }
      ],
      "name": "RoleAdminChanged",
      "type": "event"
    },
    {
      "anonymous": false,
      "inputs": [
        {
          "indexed": true,
          "internalType": "bytes32",
          "name": "role",
          "type": "bytes32"
        },
        {
          "indexed": true,
          "internalType": "address",
          "name": "account",
          "type": "address"
        },
        {
          "indexed": true,
          "internalType": "address",
          "name": "sender",
          "type": "address"
        }
      ],
      "name": "RoleGranted",
      "type": "event"
    },
    {
      "anonymous": false,
      "inputs": [
        {
          "indexed": true,
          "internalType": "bytes32",
          "name": "role",
          "type": "bytes32"
        },
        {
          "indexed": true,
          "internalType": "address",
          "name": "account",
          "type": "address"
        },
        {
          "indexed": true,
          "internalType": "address",
          "name": "sender",
          "type": "address"
        }
      ],
      "name": "RoleRevoked",
      "type": "event"
    },
    {
      "anonymous": false,
      "inputs": [
        {
          "indexed": false,
          "internalType": "address",
          "name": "nftPoolAddress",
          "type": "address"
        },
        {
          "indexed": false,
          "internalType": "address",
          "name": "account",
          "type": "address"
        }
      ],
      "name": "UnapprovedForPool",
      "type": "event"
    },
    {
      "inputs": [],
      "name": "ADMIN_ROLE",
      "outputs": [
        {
          "internalType": "bytes32",
          "name": "",
          "type": "bytes32"
        }
      ],
      "stateMutability": "view",
      "type": "function"
    },
    {
      "inputs": [],
      "name": "DEFAULT_ADMIN_ROLE",
      "outputs": [
        {
          "internalType": "bytes32",
          "name": "",
          "type": "bytes32"
        }
      ],
      "stateMutability": "view",
      "type": "function"
    },
    {
      "inputs": [],
      "name": "OPERATOR_ROLE",
      "outputs": [
        {
          "internalType": "bytes32",
          "name": "",
          "type": "bytes32"
        }
      ],
      "stateMutability": "view",
      "type": "function"
    },
    {
      "inputs": [
        {
          "internalType": "address",
          "name": "nftPoolAddress",
          "type": "address"
        },
        {
          "internalType": "address",
          "name": "account",
          "type": "address"
        }
      ],
      "name": "addApprovedForPool",
      "outputs": [],
      "stateMutability": "nonpayable",
      "type": "function"
    },
    {
      "inputs": [
        {
          "internalType": "address",
          "name": "nftPoolAddress",
          "type": "address"
        }
      ],
      "name": "addPool",
      "outputs": [],
      "stateMutability": "nonpayable",
      "type": "function"
    },
    {
      "inputs": [
        {
          "internalType": "address",
          "name": "nftPoolAddress",
          "type": "address"
        },
        {
          "internalType": "address",
          "name": "tokenAddress",
          "type": "address"
        },
        {
          "internalType": "uint256",
          "name": "sharesPerSecond",
          "type": "uint256"
        }
      ],
      "name": "addRewardToken",
      "outputs": [],
      "stateMutability": "nonpayable",
      "type": "function"
    },
    {
      "inputs": [
        {
          "internalType": "uint256",
          "name": "index",
          "type": "uint256"
        }
      ],
      "name": "getPoolAddressByIndex",
      "outputs": [
        {
          "internalType": "address",
          "name": "",
          "type": "address"
        }
      ],
      "stateMutability": "view",
      "type": "function"
    },
    {
      "inputs": [],
      "name": "getPoolAddresses",
      "outputs": [
        {
          "internalType": "address[]",
          "name": "",
          "type": "address[]"
        }
      ],
      "stateMutability": "view",
      "type": "function"
    },
    {
      "inputs": [],
      "name": "getPoolCount",
      "outputs": [
        {
          "internalType": "uint256",
          "name": "",
          "type": "uint256"
        }
      ],
      "stateMutability": "view",
      "type": "function"
    },
    {
      "inputs": [
        {
          "internalType": "address",
          "name": "nftPoolAddress",
          "type": "address"
        }
      ],
      "name": "getPoolRewardCount",
      "outputs": [
        {
          "internalType": "uint256",
          "name": "",
          "type": "uint256"
        }
      ],
      "stateMutability": "view",
      "type": "function"
    },
    {
      "inputs": [
        {
          "internalType": "address",
          "name": "nftPoolAddress",
          "type": "address"
        },
        {
          "internalType": "address",
          "name": "token",
          "type": "address"
        }
      ],
      "name": "getPoolRewardTokenInfo",
      "outputs": [
        {
          "components": [
            {
              "internalType": "uint256",
              "name": "sharesPerSecond",
              "type": "uint256"
            },
            {
              "internalType": "uint256",
              "name": "accTokenPerShare",
              "type": "uint256"
            },
            {
              "internalType": "uint256",
              "name": "PRECISION_FACTOR",
              "type": "uint256"
            }
          ],
          "internalType": "struct RewardManager.RewardToken",
          "name": "",
          "type": "tuple"
        }
      ],
      "stateMutability": "view",
      "type": "function"
    },
    {
      "inputs": [
        {
          "internalType": "address",
          "name": "nftPoolAddress",
          "type": "address"
        }
      ],
      "name": "getPoolTokenOperators",
      "outputs": [
        {
          "internalType": "address[]",
          "name": "",
          "type": "address[]"
        }
      ],
      "stateMutability": "view",
      "type": "function"
    },
    {
      "inputs": [
        {
          "internalType": "bytes32",
          "name": "role",
          "type": "bytes32"
        }
      ],
      "name": "getRoleAdmin",
      "outputs": [
        {
          "internalType": "bytes32",
          "name": "",
          "type": "bytes32"
        }
      ],
      "stateMutability": "view",
      "type": "function"
    },
    {
      "inputs": [
        {
          "internalType": "bytes32",
          "name": "role",
          "type": "bytes32"
        },
        {
          "internalType": "address",
          "name": "account",
          "type": "address"
        }
      ],
      "name": "grantRole",
      "outputs": [],
      "stateMutability": "nonpayable",
      "type": "function"
    },
    {
      "inputs": [
        {
          "internalType": "uint256",
          "name": "positionAmountMultiplied",
          "type": "uint256"
        },
        {
          "internalType": "address",
          "name": "recipient",
          "type": "address"
        },
        {
          "internalType": "uint256",
          "name": "tokenId",
          "type": "uint256"
        }
      ],
      "name": "harvestAdditionalRewards",
      "outputs": [],
      "stateMutability": "nonpayable",
      "type": "function"
    },
    {
      "inputs": [
        {
          "internalType": "bytes32",
          "name": "role",
          "type": "bytes32"
        },
        {
          "internalType": "address",
          "name": "account",
          "type": "address"
        }
      ],
      "name": "hasRole",
      "outputs": [
        {
          "internalType": "bool",
          "name": "",
          "type": "bool"
        }
      ],
      "stateMutability": "view",
      "type": "function"
    },
    {
      "inputs": [
        {
          "internalType": "address",
          "name": "_treasury",
          "type": "address"
        }
      ],
      "name": "initialize",
      "outputs": [],
      "stateMutability": "nonpayable",
      "type": "function"
    },
    {
      "inputs": [
        {
          "internalType": "uint256",
          "name": "tokenId",
          "type": "uint256"
        },
        {
          "internalType": "uint256",
          "name": "positionAmountMultiplied",
          "type": "uint256"
        },
        {
          "internalType": "uint256",
          "name": "lpSupplyWithMultiplier",
          "type": "uint256"
        },
        {
          "internalType": "uint256",
          "name": "lastRewardTime",
          "type": "uint256"
        }
      ],
      "name": "pendingAdditionalRewards",
      "outputs": [
        {
          "internalType": "address[]",
          "name": "tokens",
          "type": "address[]"
        },
        {
          "internalType": "uint256[]",
          "name": "rewardAmounts",
          "type": "uint256[]"
        }
      ],
      "stateMutability": "view",
      "type": "function"
    },
    {
      "inputs": [
        {
          "internalType": "address",
          "name": "",
          "type": "address"
        },
        {
          "internalType": "uint256",
          "name": "",
          "type": "uint256"
        },
        {
          "internalType": "address",
          "name": "",
          "type": "address"
        }
      ],
      "name": "positionRewardDebts",
      "outputs": [
        {
          "internalType": "uint256",
          "name": "",
          "type": "uint256"
        }
      ],
      "stateMutability": "view",
      "type": "function"
    },
    {
      "inputs": [
        {
          "internalType": "address",
          "name": "nftPoolAddress",
          "type": "address"
        },
        {
          "internalType": "address",
          "name": "tokenAddress",
          "type": "address"
        }
      ],
      "name": "removeRewardToken",
      "outputs": [],
      "stateMutability": "nonpayable",
      "type": "function"
    },
    {
      "inputs": [
        {
          "internalType": "bytes32",
          "name": "role",
          "type": "bytes32"
        },
        {
          "internalType": "address",
          "name": "account",
          "type": "address"
        }
      ],
      "name": "renounceRole",
      "outputs": [],
      "stateMutability": "nonpayable",
      "type": "function"
    },
    {
      "inputs": [
        {
          "internalType": "bytes32",
          "name": "role",
          "type": "bytes32"
        },
        {
          "internalType": "address",
          "name": "account",
          "type": "address"
        }
      ],
      "name": "revokeRole",
      "outputs": [],
      "stateMutability": "nonpayable",
      "type": "function"
    },
    {
      "inputs": [
        {
          "internalType": "bytes4",
          "name": "interfaceId",
          "type": "bytes4"
        }
      ],
      "name": "supportsInterface",
      "outputs": [
        {
          "internalType": "bool",
          "name": "",
          "type": "bool"
        }
      ],
      "stateMutability": "view",
      "type": "function"
    },
    {
      "inputs": [],
      "name": "treasury",
      "outputs": [
        {
          "internalType": "address",
          "name": "",
          "type": "address"
        }
      ],
      "stateMutability": "view",
      "type": "function"
    },
    {
      "inputs": [
        {
          "internalType": "address",
          "name": "nftPoolAddress",
          "type": "address"
        },
        {
          "internalType": "address",
          "name": "account",
          "type": "address"
        }
      ],
      "name": "unapproveForPool",
      "outputs": [],
      "stateMutability": "nonpayable",
      "type": "function"
    },
    {
      "inputs": [
        {
          "internalType": "uint256",
          "name": "positionAmountMultiplied",
          "type": "uint256"
        },
        {
          "internalType": "uint256",
          "name": "tokenId",
          "type": "uint256"
        }
      ],
      "name": "updatePositionRewardDebts",
      "outputs": [],
      "stateMutability": "nonpayable",
      "type": "function"
    },
    {
      "inputs": [
        {
          "internalType": "address",
          "name": "nftPoolAddress",
          "type": "address"
        },
        {
          "internalType": "address",
          "name": "tokenAddress",
          "type": "address"
        },
        {
          "internalType": "uint256",
          "name": "sharesPerSecond",
          "type": "uint256"
        }
      ],
      "name": "updateRewardToken",
      "outputs": [],
      "stateMutability": "nonpayable",
      "type": "function"
    },
    {
      "inputs": [
        {
          "internalType": "uint256",
          "name": "lpSupplyMultiplied",
          "type": "uint256"
        },
        {
          "internalType": "uint256",
          "name": "lastRewardTime",
          "type": "uint256"
        }
      ],
      "name": "updateRewardsPerShare",
      "outputs": [],
      "stateMutability": "nonpayable",
      "type": "function"
    }
  ],
  "bytecode": {
    "object": "0x60806040523480156200001157600080fd5b506200001c62000022565b620000e3565b600054610100900460ff16156200008f5760405162461bcd60e51b815260206004820152602760248201527f496e697469616c697a61626c653a20636f6e747261637420697320696e697469604482015266616c697a696e6760c81b606482015260840160405180910390fd5b60005460ff90811614620000e1576000805460ff191660ff9081179091556040519081527f7f26b83ff96e1f2b6a682f133852f6798a09c465da95921460cefb38474024989060200160405180910390a15b565b61297e80620000f36000396000f3fe608060405234801561001057600080fd5b50600436106101c45760003560e01c80638eec5d70116100f9578063c994e4d511610097578063d914cd4b11610071578063d914cd4b14610425578063e4b6db4c14610438578063f4d1df8714610440578063f5b541a61461045357600080fd5b8063c994e4d5146103de578063cd5d7b14146103f1578063d547741f1461041257600080fd5b8063a37787a6116100d3578063a37787a614610392578063b0a3eb93146103a5578063b688b90b146103b8578063c4d66de8146103cb57600080fd5b80638eec5d701461036f57806391d1485414610377578063a217fddf1461038a57600080fd5b8063418e9c171161016657806375b238fc1161014057806375b238fc146102e1578063776b2f89146102f657806379251d8814610327578063894998161461033a57600080fd5b8063418e9c171461029b5780634eadb183146102bb57806361d027b3146102ce57600080fd5b8063248a9ca3116101a2578063248a9ca3146102315780632f2ff15d146102625780633252562d1461027557806336568abe1461028857600080fd5b806301ffc9a7146101c95780630e56dddb146101f15780631796718314610206575b600080fd5b6101dc6101d73660046122c6565b61047a565b60405190151581526020015b60405180910390f35b6102046101ff36600461230c565b6104b1565b005b610219610214366004612348565b61075d565b6040516001600160a01b0390911681526020016101e8565b61025461023f366004612348565b60009081526065602052604090206001015490565b6040519081526020016101e8565b610204610270366004612361565b610782565b61020461028336600461238d565b6107ac565b610204610296366004612361565b61094d565b6102ae6102a93660046123b7565b6109cb565b6040516101e89190612416565b6102546102c93660046123b7565b6109ef565b609754610219906001600160a01b031681565b61025460008051602061292983398151915281565b610254610304366004612429565b609c60209081526000938452604080852082529284528284209052825290205481565b61020461033536600461238d565b610a10565b61034d61034836600461238d565b610b40565b60408051825181526020808401519082015291810151908201526060016101e8565b610254610bb3565b6101dc610385366004612361565b610bc4565b610254600081565b6102046103a036600461238d565b610bef565b6102046103b3366004612465565b610d94565b6102046103c636600461230c565b610e9e565b6102046103d93660046123b7565b610f5f565b6102046103ec366004612465565b611126565b6104046103ff366004612487565b61124d565b6040516101e89291906124b9565b610204610420366004612361565b6114e0565b6102046104333660046123b7565b611505565b6102ae611646565b61020461044e366004612510565b611652565b6102547f97667070c54ef182b0f5858b034beac1b6f3089aa2d3188bb1e8929f4fa9b92981565b60006001600160e01b03198216637965db0b60e01b14806104ab57506301ffc9a760e01b6001600160e01b03198316145b92915050565b826001600160a01b0381166104e15760405162461bcd60e51b81526004016104d890612535565b60405180910390fd5b6104ec609882611890565b6105085760405162461bcd60e51b81526004016104d890612560565b610511846118b5565b6001600160a01b03831661055c5760405162461bcd60e51b8152602060048201526012602482015271151bdad95b881b9bdd081c1c9bdd9a59195960721b60448201526064016104d8565b6001600160a01b0384166000908152609a6020526040902061057e9084611890565b156105cb5760405162461bcd60e51b815260206004820152601c60248201527f546f6b656e20616c726561647920616464656420666f7220706f6f6c0000000060448201526064016104d8565b60008390506000816001600160a01b031663313ce5676040518163ffffffff1660e01b8152600401602060405180830381865afa158015610610573d6000803e3d6000fd5b505050506040513d601f19601f820116820180604052508101906106349190612588565b60ff169050601e81106106895760405162461bcd60e51b815260206004820152601d60248201527f446563696d616c73206d757374206265206c657373207468616e20333000000060448201526064016104d8565b6001600160a01b0386166000908152609a602052604090206106ab908661193b565b5060408051606081018252858152600060208201529081016106ce83601e6125c1565b6106d990600a6126bc565b90526001600160a01b038781166000818152609b60209081526040808320948b168084529482529182902085518155858201516001820155948201516002909501949094558051928352928201879052917f8ab68562a70a02d12b0bbb803d106d670bb6660d060e8cc535baee4fcb04598b910160405180910390a2505050505050565b60006107696098611950565b821061077757506000919050565b6104ab60988361195a565b60008281526065602052604090206001015461079d81611966565b6107a78383611970565b505050565b816001600160a01b0381166107d35760405162461bcd60e51b81526004016104d890612535565b6107de609882611890565b6107fa5760405162461bcd60e51b81526004016104d890612560565b61081260008051602061292983398151915233610bc4565b61084d5760405162461bcd60e51b815260206004820152600c60248201526b2737ba1030b71030b236b4b760a11b60448201526064016104d8565b6001600160a01b0382166108735760405162461bcd60e51b81526004016104d8906126c8565b6001600160a01b0383166000908152609d602052604090206108959083611890565b6108e15760405162461bcd60e51b815260206004820181905260248201527f5265776172644d616e616765723a204163636f756e74206e6f7420616464656460448201526064016104d8565b6001600160a01b0383166000908152609d6020526040902061090390836119f6565b50604080516001600160a01b038086168252841660208201527f23f54242cfd4445f3f61e18bf69d2b2b8471eabcf509b9f8e55a0dd9577fa09c91015b60405180910390a1505050565b6001600160a01b03811633146109bd5760405162461bcd60e51b815260206004820152602f60248201527f416363657373436f6e74726f6c3a2063616e206f6e6c792072656e6f756e636560448201526e103937b632b9903337b91039b2b63360891b60648201526084016104d8565b6109c78282611a0b565b5050565b6001600160a01b0381166000908152609d602052604090206060906104ab90611a72565b6001600160a01b0381166000908152609a602052604081206104ab90611950565b610a19826118b5565b610a238282611a7f565b6001600160a01b0382166000908152609a60205260409020610a4590826119f6565b506001600160a01b038281166000908152609b602090815260408083209385168084529390915280822082815560018101839055600201829055516370a0823160e01b81523060048201528392906370a0823190602401602060405180830381865afa158015610ab9573d6000803e3d6000fd5b505050506040513d601f19601f82011682018060405250810190610add919061270b565b90508015610af957610af96001600160a01b0383163383611b38565b6040516001600160a01b0384811682528516907fd714faf452a98906c44d18518c236d119bb0f182b006e3a0cb3461a0d9ba8ff5906020015b60405180910390a250505050565b610b6460405180606001604052806000815260200160008152602001600081525090565b506001600160a01b039182166000908152609b60209081526040808320939094168252918252829020825160608101845281548152600182015492810192909252600201549181019190915290565b6000610bbf6098611950565b905090565b60009182526065602090815260408084206001600160a01b0393909316845291905290205460ff1690565b816001600160a01b038116610c165760405162461bcd60e51b81526004016104d890612535565b610c21609882611890565b610c3d5760405162461bcd60e51b81526004016104d890612560565b610c5560008051602061292983398151915233610bc4565b610c905760405162461bcd60e51b815260206004820152600c60248201526b2737ba1030b71030b236b4b760a11b60448201526064016104d8565b6001600160a01b038216610cb65760405162461bcd60e51b81526004016104d8906126c8565b6001600160a01b0383166000908152609d60205260409020610cd89083611890565b15610d315760405162461bcd60e51b8152602060048201526024808201527f5265776172644d616e616765723a204163636f756e7420616c726561647920616044820152631919195960e21b60648201526084016104d8565b6001600160a01b0383166000908152609d60205260409020610d53908361193b565b50604080516001600160a01b038086168252841660208201527f7167d80540206053f6b2dc1276ddccb88e93f10c65a3754a0800f2a6586b2a3b9101610940565b610d9f609833611890565b610dbb5760405162461bcd60e51b81526004016104d890612724565b6000610dc6336109ef565b9050801580610dd3575082155b15610ddd57505050565b600080610dea84426125c1565b905060008080805b86811015610e9357336000908152609a60205260409020610e13908261195a565b336000908152609b602090815260408083206001600160a01b038516845290915290208054909750909250610e489086612747565b935088866002015485610e5b9190612747565b610e659190612766565b925082866001016000828254610e7b9190612788565b90915550819050610e8b816127a0565b915050610df2565b505050505050505050565b826001600160a01b038116610ec55760405162461bcd60e51b81526004016104d890612535565b610ed0609882611890565b610eec5760405162461bcd60e51b81526004016104d890612560565b610ef5846118b5565b610eff8484611a7f565b6001600160a01b038481166000818152609b60209081526040808320948816808452948252918290208690558151938452830185905290917fff57914ccd60f245e53feef27ddd825430d7be2c9e6cf256bdd284a4b3064e5c9101610b32565b600054610100900460ff1615808015610f7f5750600054600160ff909116105b80610f995750303b158015610f99575060005460ff166001145b610ffc5760405162461bcd60e51b815260206004820152602e60248201527f496e697469616c697a61626c653a20636f6e747261637420697320616c72656160448201526d191e481a5b9a5d1a585b1a5e995960921b60648201526084016104d8565b6000805460ff19166001179055801561101f576000805461ff0019166101001790555b6001600160a01b03821661106d5760405162461bcd60e51b8152602060048201526015602482015274151c99585cdd5c9e481b9bdd081c1c9bdd9a591959605a1b60448201526064016104d8565b611075611b8a565b609780546001600160a01b0319166001600160a01b03841617905561109b600083611970565b6110c57f97667070c54ef182b0f5858b034beac1b6f3089aa2d3188bb1e8929f4fa9b92983611970565b6110dd60008051602061292983398151915283611970565b80156109c7576000805461ff0019169055604051600181527f7f26b83ff96e1f2b6a682f133852f6798a09c465da95921460cefb38474024989060200160405180910390a15050565b611131609833611890565b61114d5760405162461bcd60e51b81526004016104d890612724565b6000611158336109ef565b90508060000361116757505050565b61118b60405180606001604052806000815260200160008152602001600081525090565b6000805b8381101561124557336000908152609a602052604090206111b0908261195a565b336000908152609b602090815260408083206001600160a01b038516845282529182902082516060810184528154815260018201549281018390526002909101549281018390529550919350906112079088612747565b6112119190612766565b336000908152609c6020908152604080832089845282528083206001600160a01b038716845290915290205560010161118f565b505050505050565b60608061125b609833611890565b6112775760405162461bcd60e51b81526004016104d890612724565b6000611282336109ef565b90508067ffffffffffffffff81111561129d5761129d6127b9565b6040519080825280602002602001820160405280156112c6578160200160208202803683370190505b5092508067ffffffffffffffff8111156112e2576112e26127b9565b60405190808252806020026020018201604052801561130b578160200160208202803683370190505b5091508060000361131c57506114d7565b61134060405180606001604052806000815260200160008152602001600081525090565b600061134c86426125c1565b90508789600080805b878110156114ce57336000908152609a60205260409020611376908261195a565b9250828a828151811061138b5761138b6127cf565b6001600160a01b03928316602091820292909201810191909152336000908152609b8252604080822093871682529282528290208251606081018452815481526001820154928101839052600290910154928101929092529097509150428b1080156113f7575060008c115b156114a557604087015187518d91906114109089612747565b61141a9190612747565b6114249190612766565b61142e9083612788565b336000908152609c6020908152604080832088845282528083206001600160a01b03881684529091529081902054908901519193509061146e8488612747565b6114789190612766565b61148291906125c1565b898281518110611494576114946127cf565b6020026020010181815250506114c6565b60008982815181106114b9576114b96127cf565b6020026020010181815250505b600101611355565b50505050505050505b94509492505050565b6000828152606560205260409020600101546114fb81611966565b6107a78383611a0b565b61152f7f97667070c54ef182b0f5858b034beac1b6f3089aa2d3188bb1e8929f4fa9b92933610bc4565b8061154d575061154d60008051602061292983398151915233610bc4565b6115995760405162461bcd60e51b815260206004820152601e60248201527f5265776172644d616e616765723a204e6f7420616e206f70657261746f72000060448201526064016104d8565b6115a4609882611890565b156115fb5760405162461bcd60e51b815260206004820152602160248201527f5265776172644d616e616765723a20506f6f6c20616c726561647920616464656044820152601960fa1b60648201526084016104d8565b61160660988261193b565b506040516001600160a01b03821681527f73cca62ab1b520c9715bf4e6c71e3e518c754e7148f65102f43289a7df0efea69060200160405180910390a150565b6060610bbf6098611a72565b61165d609833611890565b6116795760405162461bcd60e51b81526004016104d890612724565b6000611684336109ef565b9050806000036116945750505050565b6001600160a01b0383166116f85760405162461bcd60e51b815260206004820152602560248201527f5265776172644d616e616765723a205a65726f206164647265737320726563696044820152641c1a595b9d60da1b60648201526084016104d8565b61171c60405180606001604052806000815260200160008152602001600081525090565b60008060005b8481101561188657336000908152609a60205260409020611743908261195a565b336000818152609b602090815260408083206001600160a01b0386168085529083528184208251606081018452815481526001820154818601908152600290920154818501908152968652609c85528386208e8752855283862092865291909352922054925190519197509294509091906117be908b612747565b6117c89190612766565b6117d291906125c1565b925083604001518460200151896117e99190612747565b6117f39190612766565b336000908152609c602090815260408083208a845282528083206001600160a01b0387168452909152902055821561187e57604080516001600160a01b03841681526020810185905290810187905233907fc07c6e82b082b8c107cb2fc0c94259dcd5dfeeb35655de11b928682b7392d1af9060600160405180910390a261187c828885611bf7565b505b600101611722565b5050505050505050565b6001600160a01b038116600090815260018301602052604081205415155b9392505050565b6001600160a01b0381166000908152609d602052604090206118d79033611890565b806118f557506118f560008051602061292983398151915233610bc4565b6119385760405162461bcd60e51b81526020600482015260146024820152732737ba1030903a37b5b2b71037b832b930ba37b960611b60448201526064016104d8565b50565b60006118ae836001600160a01b038416611c92565b60006104ab825490565b60006118ae8383611ce1565b6119388133611d0b565b61197a8282610bc4565b6109c75760008281526065602090815260408083206001600160a01b03851684529091529020805460ff191660011790556119b23390565b6001600160a01b0316816001600160a01b0316837f2f8788117e7eff1d82e926ec794901d17c78024a50270940304540a733656f0d60405160405180910390a45050565b60006118ae836001600160a01b038416611d64565b611a158282610bc4565b156109c75760008281526065602090815260408083206001600160a01b0385168085529252808320805460ff1916905551339285917ff6391f5c32d9c69d2a47ea670b442974b53935d1edc7fd64eb21e047a839171b9190a45050565b606060006118ae83611e57565b6001600160a01b038116611aca5760405162461bcd60e51b8152602060048201526012602482015271151bdad95b881b9bdd081c1c9bdd9a59195960721b60448201526064016104d8565b6001600160a01b0382166000908152609a60205260409020611aec9082611890565b6109c75760405162461bcd60e51b815260206004820152601860248201527f546f6b656e206e6f7420616464656420666f7220706f6f6c000000000000000060448201526064016104d8565b604080516001600160a01b038416602482015260448082018490528251808303909101815260649091019091526020810180516001600160e01b031663a9059cbb60e01b1790526107a7908490611eb3565b600054610100900460ff16611bf55760405162461bcd60e51b815260206004820152602b60248201527f496e697469616c697a61626c653a20636f6e7472616374206973206e6f74206960448201526a6e697469616c697a696e6760a81b60648201526084016104d8565b565b6040516370a0823160e01b8152306004820152600090849082906001600160a01b038316906370a0823190602401602060405180830381865afa158015611c42573d6000803e3d6000fd5b505050506040513d601f19601f82011682018060405250810190611c66919061270b565b905080841115611c74578093505b611c886001600160a01b0383168686611b38565b5091949350505050565b6000818152600183016020526040812054611cd9575081546001818101845560008481526020808220909301849055845484825282860190935260409020919091556104ab565b5060006104ab565b6000826000018281548110611cf857611cf86127cf565b9060005260206000200154905092915050565b611d158282610bc4565b6109c757611d2281611f88565b611d2d836020611f9a565b604051602001611d3e929190612815565b60408051601f198184030181529082905262461bcd60e51b82526104d89160040161288a565b60008181526001830160205260408120548015611e4d576000611d886001836125c1565b8554909150600090611d9c906001906125c1565b9050818114611e01576000866000018281548110611dbc57611dbc6127cf565b9060005260206000200154905080876000018481548110611ddf57611ddf6127cf565b6000918252602080832090910192909255918252600188019052604090208390555b8554869080611e1257611e126128bd565b6001900381819060005260206000200160009055905585600101600086815260200190815260200160002060009055600193505050506104ab565b60009150506104ab565b606081600001805480602002602001604051908101604052809291908181526020018280548015611ea757602002820191906000526020600020905b815481526020019060010190808311611e93575b50505050509050919050565b6000611f08826040518060400160405280602081526020017f5361666545524332303a206c6f772d6c6576656c2063616c6c206661696c6564815250856001600160a01b03166121369092919063ffffffff16565b9050805160001480611f29575080806020019051810190611f2991906128d3565b6107a75760405162461bcd60e51b815260206004820152602a60248201527f5361666545524332303a204552433230206f7065726174696f6e20646964206e6044820152691bdd081cdd58d8d9595960b21b60648201526084016104d8565b60606104ab6001600160a01b03831660145b60606000611fa9836002612747565b611fb4906002612788565b67ffffffffffffffff811115611fcc57611fcc6127b9565b6040519080825280601f01601f191660200182016040528015611ff6576020820181803683370190505b509050600360fc1b81600081518110612011576120116127cf565b60200101906001600160f81b031916908160001a905350600f60fb1b81600181518110612040576120406127cf565b60200101906001600160f81b031916908160001a9053506000612064846002612747565b61206f906001612788565b90505b60018111156120e7576f181899199a1a9b1b9c1cb0b131b232b360811b85600f16601081106120a3576120a36127cf565b1a60f81b8282815181106120b9576120b96127cf565b60200101906001600160f81b031916908160001a90535060049490941c936120e0816128f5565b9050612072565b5083156118ae5760405162461bcd60e51b815260206004820181905260248201527f537472696e67733a20686578206c656e67746820696e73756666696369656e7460448201526064016104d8565b6060612145848460008561214d565b949350505050565b6060824710156121ae5760405162461bcd60e51b815260206004820152602660248201527f416464726573733a20696e73756666696369656e742062616c616e636520666f6044820152651c8818d85b1b60d21b60648201526084016104d8565b600080866001600160a01b031685876040516121ca919061290c565b60006040518083038185875af1925050503d8060008114612207576040519150601f19603f3d011682016040523d82523d6000602084013e61220c565b606091505b509150915061221d87838387612228565b979650505050505050565b60608315612297578251600003612290576001600160a01b0385163b6122905760405162461bcd60e51b815260206004820152601d60248201527f416464726573733a2063616c6c20746f206e6f6e2d636f6e747261637400000060448201526064016104d8565b5081612145565b61214583838151156122ac5781518083602001fd5b8060405162461bcd60e51b81526004016104d8919061288a565b6000602082840312156122d857600080fd5b81356001600160e01b0319811681146118ae57600080fd5b80356001600160a01b038116811461230757600080fd5b919050565b60008060006060848603121561232157600080fd5b61232a846122f0565b9250612338602085016122f0565b9150604084013590509250925092565b60006020828403121561235a57600080fd5b5035919050565b6000806040838503121561237457600080fd5b82359150612384602084016122f0565b90509250929050565b600080604083850312156123a057600080fd5b6123a9836122f0565b9150612384602084016122f0565b6000602082840312156123c957600080fd5b6118ae826122f0565b600081518084526020808501945080840160005b8381101561240b5781516001600160a01b0316875295820195908201906001016123e6565b509495945050505050565b6020815260006118ae60208301846123d2565b60008060006060848603121561243e57600080fd5b612447846122f0565b92506020840135915061245c604085016122f0565b90509250925092565b6000806040838503121561247857600080fd5b50508035926020909101359150565b6000806000806080858703121561249d57600080fd5b5050823594602084013594506040840135936060013592509050565b6040815260006124cc60408301856123d2565b82810360208481019190915284518083528582019282019060005b81811015612503578451835293830193918301916001016124e7565b5090979650505050505050565b60008060006060848603121561252557600080fd5b83359250612338602085016122f0565b602080825260119082015270141bdbdb081b9bdd081c1c9bdd9a591959607a1b604082015260600190565b6020808252600e908201526d141bdbdb081b9bdd08185919195960921b604082015260600190565b60006020828403121561259a57600080fd5b815160ff811681146118ae57600080fd5b634e487b7160e01b600052601160045260246000fd5b6000828210156125d3576125d36125ab565b500390565b600181815b808511156126135781600019048211156125f9576125f96125ab565b8085161561260657918102915b93841c93908002906125dd565b509250929050565b60008261262a575060016104ab565b81612637575060006104ab565b816001811461264d576002811461265757612673565b60019150506104ab565b60ff841115612668576126686125ab565b50506001821b6104ab565b5060208310610133831016604e8410600b8410161715612696575081810a6104ab565b6126a083836125d8565b80600019048211156126b4576126b46125ab565b029392505050565b60006118ae838361261b565b60208082526023908201527f5265776172644d616e616765723a204163636f756e74206e6f742070726f766960408201526219195960ea1b606082015260800190565b60006020828403121561271d57600080fd5b5051919050565b60208082526009908201526813db9b1e481c1bdbdb60ba1b604082015260600190565b6000816000190483118215151615612761576127616125ab565b500290565b60008261278357634e487b7160e01b600052601260045260246000fd5b500490565b6000821982111561279b5761279b6125ab565b500190565b6000600182016127b2576127b26125ab565b5060010190565b634e487b7160e01b600052604160045260246000fd5b634e487b7160e01b600052603260045260246000fd5b60005b838110156128005781810151838201526020016127e8565b8381111561280f576000848401525b50505050565b7f416363657373436f6e74726f6c3a206163636f756e742000000000000000000081526000835161284d8160178501602088016127e5565b7001034b99036b4b9b9b4b733903937b6329607d1b601791840191820152835161287e8160288401602088016127e5565b01602801949350505050565b60208152600082518060208401526128a98160408501602087016127e5565b601f01601f19169190910160400192915050565b634e487b7160e01b600052603160045260246000fd5b6000602082840312156128e557600080fd5b815180151581146118ae57600080fd5b600081612904576129046125ab565b506000190190565b6000825161291e8184602087016127e5565b919091019291505056fea49807205ce4d355092ef5a8a18f56e8913cf4a201fbe287825b095693c21775a2646970667358221220d42c474762fcbffec266f106b12ed162c9af88a614960a6f21d4337b8a03d17d64736f6c634300080f0033",
    "linkReferences": {}
  },
  "methodIdentifiers": {
    "ADMIN_ROLE()": "75b238fc",
    "DEFAULT_ADMIN_ROLE()": "a217fddf",
    "OPERATOR_ROLE()": "f5b541a6",
    "addApprovedForPool(address,address)": "a37787a6",
    "addPool(address)": "d914cd4b",
    "addRewardToken(address,address,uint256)": "0e56dddb",
    "getPoolAddressByIndex(uint256)": "17967183",
    "getPoolAddresses()": "e4b6db4c",
    "getPoolCount()": "8eec5d70",
    "getPoolRewardCount(address)": "4eadb183",
    "getPoolRewardTokenInfo(address,address)": "89499816",
    "getPoolTokenOperators(address)": "418e9c17",
    "getRoleAdmin(bytes32)": "248a9ca3",
    "grantRole(bytes32,address)": "2f2ff15d",
    "harvestAdditionalRewards(uint256,address,uint256)": "f4d1df87",
    "hasRole(bytes32,address)": "91d14854",
    "initialize(address)": "c4d66de8",
    "pendingAdditionalRewards(uint256,uint256,uint256,uint256)": "cd5d7b14",
    "positionRewardDebts(address,uint256,address)": "776b2f89",
    "removeRewardToken(address,address)": "79251d88",
    "renounceRole(bytes32,address)": "36568abe",
    "revokeRole(bytes32,address)": "d547741f",
    "supportsInterface(bytes4)": "01ffc9a7",
    "treasury()": "61d027b3",
    "unapproveForPool(address,address)": "3252562d",
    "updatePositionRewardDebts(uint256,uint256)": "c994e4d5",
    "updateRewardToken(address,address,uint256)": "b688b90b",
    "updateRewardsPerShare(uint256,uint256)": "b0a3eb93"
  },
  "id": 2
}