{
  "abi": [
    {
      "inputs": [
        {
          "internalType": "string",
          "name": "_name",
          "type": "string"
        },
        {
          "internalType": "string",
          "name": "_symbol",
          "type": "string"
        },
        {
          "internalType": "uint256",
          "name": "maxSupply",
          "type": "uint256"
        },
        {
          "internalType": "uint256",
          "name": "initialSupply",
          "type": "uint256"
        },
        {
          "internalType": "uint256",
          "name": "initialEmissionRate",
          "type": "uint256"
        },
        {
          "internalType": "address",
          "name": "treasury",
          "type": "address"
        }
      ],
      "stateMutability": "nonpayable",
      "type": "constructor"
    },
    {
      "anonymous": false,
      "inputs": [
        {
          "indexed": false,
          "internalType": "uint256",
          "name": "masterShare",
          "type": "uint256"
        },
        {
          "indexed": false,
          "internalType": "uint256",
          "name": "treasuryShare",
          "type": "uint256"
        }
      ],
      "name": "AllocationsDistributed",
      "type": "event"
    },
    {
      "anonymous": false,
      "inputs": [
        {
          "indexed": true,
          "internalType": "address",
          "name": "owner",
          "type": "address"
        },
        {
          "indexed": true,
          "internalType": "address",
          "name": "spender",
          "type": "address"
        },
        {
          "indexed": false,
          "internalType": "uint256",
          "name": "value",
          "type": "uint256"
        }
      ],
      "name": "Approval",
      "type": "event"
    },
    {
      "anonymous": false,
      "inputs": [
        {
          "indexed": false,
          "internalType": "uint256",
          "name": "amount",
          "type": "uint256"
        }
      ],
      "name": "ClaimMasterRewards",
      "type": "event"
    },
    {
      "anonymous": false,
      "inputs": [
        {
          "indexed": false,
          "internalType": "uint256",
          "name": "startTime",
          "type": "uint256"
        }
      ],
      "name": "InitializeEmissionStart",
      "type": "event"
    },
    {
      "anonymous": false,
      "inputs": [
        {
          "indexed": false,
          "internalType": "address",
          "name": "masterAddress",
          "type": "address"
        }
      ],
      "name": "InitializeMasterAddress",
      "type": "event"
    },
    {
      "anonymous": false,
      "inputs": [
        {
          "indexed": true,
          "internalType": "address",
          "name": "previousOwner",
          "type": "address"
        },
        {
          "indexed": true,
          "internalType": "address",
          "name": "newOwner",
          "type": "address"
        }
      ],
      "name": "OwnershipTransferred",
      "type": "event"
    },
    {
      "anonymous": false,
      "inputs": [
        {
          "indexed": true,
          "internalType": "address",
          "name": "from",
          "type": "address"
        },
        {
          "indexed": true,
          "internalType": "address",
          "name": "to",
          "type": "address"
        },
        {
          "indexed": false,
          "internalType": "uint256",
          "name": "value",
          "type": "uint256"
        }
      ],
      "name": "Transfer",
      "type": "event"
    },
    {
      "anonymous": false,
      "inputs": [
        {
          "indexed": false,
          "internalType": "uint256",
          "name": "farmingAllocation",
          "type": "uint256"
        },
        {
          "indexed": false,
          "internalType": "uint256",
          "name": "treasuryAllocation",
          "type": "uint256"
        }
      ],
      "name": "UpdateAllocations",
      "type": "event"
    },
    {
      "anonymous": false,
      "inputs": [
        {
          "indexed": false,
          "internalType": "uint256",
          "name": "previousEmissionRate",
          "type": "uint256"
        },
        {
          "indexed": false,
          "internalType": "uint256",
          "name": "newEmissionRate",
          "type": "uint256"
        }
      ],
      "name": "UpdateEmissionRate",
      "type": "event"
    },
    {
      "anonymous": false,
      "inputs": [
        {
          "indexed": false,
          "internalType": "uint256",
          "name": "previousMaxSupply",
          "type": "uint256"
        },
        {
          "indexed": false,
          "internalType": "uint256",
          "name": "newMaxSupply",
          "type": "uint256"
        }
      ],
      "name": "UpdateMaxSupply",
      "type": "event"
    },
    {
      "anonymous": false,
      "inputs": [
        {
          "indexed": false,
          "internalType": "address",
          "name": "previousTreasuryAddress",
          "type": "address"
        },
        {
          "indexed": false,
          "internalType": "address",
          "name": "newTreasuryAddress",
          "type": "address"
        }
      ],
      "name": "UpdateTreasuryAddress",
      "type": "event"
    },
    {
      "inputs": [],
      "name": "ALLOCATION_PRECISION",
      "outputs": [
        {
          "internalType": "uint256",
          "name": "",
          "type": "uint256"
        }
      ],
      "stateMutability": "view",
      "type": "function"
    },
    {
      "inputs": [],
      "name": "BURN_ADDRESS",
      "outputs": [
        {
          "internalType": "address",
          "name": "",
          "type": "address"
        }
      ],
      "stateMutability": "view",
      "type": "function"
    },
    {
      "inputs": [],
      "name": "MAX_EMISSION_RATE",
      "outputs": [
        {
          "internalType": "uint256",
          "name": "",
          "type": "uint256"
        }
      ],
      "stateMutability": "view",
      "type": "function"
    },
    {
      "inputs": [],
      "name": "MAX_SUPPLY_LIMIT",
      "outputs": [
        {
          "internalType": "uint256",
          "name": "",
          "type": "uint256"
        }
      ],
      "stateMutability": "view",
      "type": "function"
    },
    {
      "inputs": [
        {
          "internalType": "address",
          "name": "owner",
          "type": "address"
        },
        {
          "internalType": "address",
          "name": "spender",
          "type": "address"
        }
      ],
      "name": "allowance",
      "outputs": [
        {
          "internalType": "uint256",
          "name": "",
          "type": "uint256"
        }
      ],
      "stateMutability": "view",
      "type": "function"
    },
    {
      "inputs": [
        {
          "internalType": "address",
          "name": "spender",
          "type": "address"
        },
        {
          "internalType": "uint256",
          "name": "amount",
          "type": "uint256"
        }
      ],
      "name": "approve",
      "outputs": [
        {
          "internalType": "bool",
          "name": "",
          "type": "bool"
        }
      ],
      "stateMutability": "nonpayable",
      "type": "function"
    },
    {
      "inputs": [
        {
          "internalType": "address",
          "name": "account",
          "type": "address"
        }
      ],
      "name": "balanceOf",
      "outputs": [
        {
          "internalType": "uint256",
          "name": "",
          "type": "uint256"
        }
      ],
      "stateMutability": "view",
      "type": "function"
    },
    {
      "inputs": [
        {
          "internalType": "uint256",
          "name": "amount",
          "type": "uint256"
        }
      ],
      "name": "burn",
      "outputs": [],
      "stateMutability": "nonpayable",
      "type": "function"
    },
    {
      "inputs": [
        {
          "internalType": "uint256",
          "name": "amount",
          "type": "uint256"
        }
      ],
      "name": "claimMasterRewards",
      "outputs": [
        {
          "internalType": "uint256",
          "name": "effectiveAmount",
          "type": "uint256"
        }
      ],
      "stateMutability": "nonpayable",
      "type": "function"
    },
    {
      "inputs": [],
      "name": "decimals",
      "outputs": [
        {
          "internalType": "uint8",
          "name": "",
          "type": "uint8"
        }
      ],
      "stateMutability": "view",
      "type": "function"
    },
    {
      "inputs": [
        {
          "internalType": "address",
          "name": "spender",
          "type": "address"
        },
        {
          "internalType": "uint256",
          "name": "subtractedValue",
          "type": "uint256"
        }
      ],
      "name": "decreaseAllowance",
      "outputs": [
        {
          "internalType": "bool",
          "name": "",
          "type": "bool"
        }
      ],
      "stateMutability": "nonpayable",
      "type": "function"
    },
    {
      "inputs": [],
      "name": "elasticMaxSupply",
      "outputs": [
        {
          "internalType": "uint256",
          "name": "",
          "type": "uint256"
        }
      ],
      "stateMutability": "view",
      "type": "function"
    },
    {
      "inputs": [],
      "name": "emissionRate",
      "outputs": [
        {
          "internalType": "uint256",
          "name": "",
          "type": "uint256"
        }
      ],
      "stateMutability": "view",
      "type": "function"
    },
    {
      "inputs": [],
      "name": "emitAllocations",
      "outputs": [],
      "stateMutability": "nonpayable",
      "type": "function"
    },
    {
      "inputs": [],
      "name": "farmingAllocation",
      "outputs": [
        {
          "internalType": "uint256",
          "name": "",
          "type": "uint256"
        }
      ],
      "stateMutability": "view",
      "type": "function"
    },
    {
      "inputs": [
        {
          "internalType": "address",
          "name": "spender",
          "type": "address"
        },
        {
          "internalType": "uint256",
          "name": "addedValue",
          "type": "uint256"
        }
      ],
      "name": "increaseAllowance",
      "outputs": [
        {
          "internalType": "bool",
          "name": "",
          "type": "bool"
        }
      ],
      "stateMutability": "nonpayable",
      "type": "function"
    },
    {
      "inputs": [
        {
          "internalType": "uint256",
          "name": "startTime",
          "type": "uint256"
        }
      ],
      "name": "initializeEmissionStart",
      "outputs": [],
      "stateMutability": "nonpayable",
      "type": "function"
    },
    {
      "inputs": [
        {
          "internalType": "address",
          "name": "masterAddress_",
          "type": "address"
        }
      ],
      "name": "initializeMasterAddress",
      "outputs": [],
      "stateMutability": "nonpayable",
      "type": "function"
    },
    {
      "inputs": [],
      "name": "lastEmissionTime",
      "outputs": [
        {
          "internalType": "uint256",
          "name": "",
          "type": "uint256"
        }
      ],
      "stateMutability": "view",
      "type": "function"
    },
    {
      "inputs": [],
      "name": "masterAddress",
      "outputs": [
        {
          "internalType": "address",
          "name": "",
          "type": "address"
        }
      ],
      "stateMutability": "view",
      "type": "function"
    },
    {
      "inputs": [],
      "name": "masterAllocation",
      "outputs": [
        {
          "internalType": "uint256",
          "name": "",
          "type": "uint256"
        }
      ],
      "stateMutability": "view",
      "type": "function"
    },
    {
      "inputs": [],
      "name": "masterEmissionRate",
      "outputs": [
        {
          "internalType": "uint256",
          "name": "",
          "type": "uint256"
        }
      ],
      "stateMutability": "view",
      "type": "function"
    },
    {
      "inputs": [],
      "name": "masterReserve",
      "outputs": [
        {
          "internalType": "uint256",
          "name": "",
          "type": "uint256"
        }
      ],
      "stateMutability": "view",
      "type": "function"
    },
    {
      "inputs": [],
      "name": "name",
      "outputs": [
        {
          "internalType": "string",
          "name": "",
          "type": "string"
        }
      ],
      "stateMutability": "view",
      "type": "function"
    },
    {
      "inputs": [],
      "name": "owner",
      "outputs": [
        {
          "internalType": "address",
          "name": "",
          "type": "address"
        }
      ],
      "stateMutability": "view",
      "type": "function"
    },
    {
      "inputs": [],
      "name": "renounceOwnership",
      "outputs": [],
      "stateMutability": "nonpayable",
      "type": "function"
    },
    {
      "inputs": [],
      "name": "symbol",
      "outputs": [
        {
          "internalType": "string",
          "name": "",
          "type": "string"
        }
      ],
      "stateMutability": "view",
      "type": "function"
    },
    {
      "inputs": [],
      "name": "totalSupply",
      "outputs": [
        {
          "internalType": "uint256",
          "name": "",
          "type": "uint256"
        }
      ],
      "stateMutability": "view",
      "type": "function"
    },
    {
      "inputs": [
        {
          "internalType": "address",
          "name": "recipient",
          "type": "address"
        },
        {
          "internalType": "uint256",
          "name": "amount",
          "type": "uint256"
        }
      ],
      "name": "transfer",
      "outputs": [
        {
          "internalType": "bool",
          "name": "",
          "type": "bool"
        }
      ],
      "stateMutability": "nonpayable",
      "type": "function"
    },
    {
      "inputs": [
        {
          "internalType": "address",
          "name": "sender",
          "type": "address"
        },
        {
          "internalType": "address",
          "name": "recipient",
          "type": "address"
        },
        {
          "internalType": "uint256",
          "name": "amount",
          "type": "uint256"
        }
      ],
      "name": "transferFrom",
      "outputs": [
        {
          "internalType": "bool",
          "name": "",
          "type": "bool"
        }
      ],
      "stateMutability": "nonpayable",
      "type": "function"
    },
    {
      "inputs": [
        {
          "internalType": "address",
          "name": "newOwner",
          "type": "address"
        }
      ],
      "name": "transferOwnership",
      "outputs": [],
      "stateMutability": "nonpayable",
      "type": "function"
    },
    {
      "inputs": [],
      "name": "treasuryAddress",
      "outputs": [
        {
          "internalType": "address",
          "name": "",
          "type": "address"
        }
      ],
      "stateMutability": "view",
      "type": "function"
    },
    {
      "inputs": [],
      "name": "treasuryAllocation",
      "outputs": [
        {
          "internalType": "uint256",
          "name": "",
          "type": "uint256"
        }
      ],
      "stateMutability": "view",
      "type": "function"
    },
    {
      "inputs": [
        {
          "internalType": "uint256",
          "name": "farmingAllocation_",
          "type": "uint256"
        }
      ],
      "name": "updateAllocations",
      "outputs": [],
      "stateMutability": "nonpayable",
      "type": "function"
    },
    {
      "inputs": [
        {
          "internalType": "uint256",
          "name": "emissionRate_",
          "type": "uint256"
        }
      ],
      "name": "updateEmissionRate",
      "outputs": [],
      "stateMutability": "nonpayable",
      "type": "function"
    },
    {
      "inputs": [
        {
          "internalType": "uint256",
          "name": "maxSupply",
          "type": "uint256"
        }
      ],
      "name": "updateMaxSupply",
      "outputs": [],
      "stateMutability": "nonpayable",
      "type": "function"
    },
    {
      "inputs": [
        {
          "internalType": "address",
          "name": "treasury",
          "type": "address"
        }
      ],
      "name": "updateTreasuryAddress",
      "outputs": [],
      "stateMutability": "nonpayable",
      "type": "function"
    }
  ],
  "bytecode": {
    "object": "0x60806040526032600b553480156200001657600080fd5b50604051620022c9380380620022c9833981810160405260c08110156200003c57600080fd5b81019080805160405193929190846401000000008211156200005d57600080fd5b9083019060208201858111156200007357600080fd5b82516401000000008111828201881017156200008e57600080fd5b82525081516020918201929091019080838360005b83811015620000bd578181015183820152602001620000a3565b50505050905090810190601f168015620000eb5780820380516001836020036101000a031916815260200191505b50604052602001805160405193929190846401000000008211156200010f57600080fd5b9083019060208201858111156200012557600080fd5b82516401000000008111828201881017156200014057600080fd5b82525081516020918201929091019080838360005b838110156200016f57818101518382015260200162000155565b50505050905090810190601f1680156200019d5780820380516001836020036101000a031916815260200191505b5060409081526020820151908201516060830151608090930151919450925085856000620001ca620003fa565b600080546001600160a01b0319166001600160a01b0383169081178255604051929350917f8be0079c531659141344cd1fd0a4f28419497f9722a3daafe3b4186f6b6457e0908290a35081516200022990600490602085019062000578565b5080516200023f90600590602084019062000578565b50506006805460ff1916601217905550662386f26fc10000821115620002ac576040805162461bcd60e51b815260206004820152601560248201527f696e76616c696420656d697373696f6e20726174650000000000000000000000604482015290519081900360640190fd5b692a5a058fc295ed0000008411156200030c576040805162461bcd60e51b815260206004820152601960248201527f696e76616c696420696e697469616c206d6178537570706c7900000000000000604482015290519081900360640190fd5b83831062000361576040805162461bcd60e51b815260206004820152601660248201527f696e76616c696420696e697469616c20737570706c7900000000000000000000604482015290519081900360640190fd5b6001600160a01b038116620003bd576040805162461bcd60e51b815260206004820152601860248201527f696e76616c696420747265617375727920616464726573730000000000000000604482015290519081900360640190fd5b60078490556008829055600d80546001600160a01b0319166001600160a01b038316179055620003ee3384620003fe565b50505050505062000624565b3390565b6001600160a01b0382166200045a576040805162461bcd60e51b815260206004820152601f60248201527f45524332303a206d696e7420746f20746865207a65726f206164647265737300604482015290519081900360640190fd5b620004686000838362000511565b62000484816003546200051660201b620013d61790919060201c565b6003556001600160a01b038216600090815260016020908152604090912054620004b9918390620013d662000516821b17901c565b6001600160a01b03831660008181526001602090815260408083209490945583518581529351929391927fddf252ad1be2c89b69c2b068fc378daa952ba7f163c4a11628f55a4df523b3ef9281900390910190a35050565b505050565b60008282018381101562000571576040805162461bcd60e51b815260206004820152601b60248201527f536166654d6174683a206164646974696f6e206f766572666c6f770000000000604482015290519081900360640190fd5b9392505050565b828054600181600116156101000203166002900490600052602060002090601f016020900481019282620005b05760008555620005fb565b82601f10620005cb57805160ff1916838001178555620005fb565b82800160010185558215620005fb579182015b82811115620005fb578251825591602001919060010190620005de565b50620006099291506200060d565b5090565b5b808211156200060957600081556001016200060e565b611c9580620006346000396000f3fe608060405234801561001057600080fd5b50600436106102265760003560e01c80637813570511610130578063c5f956af116100b8578063ed424fd01161007c578063ed424fd01461058c578063f103b43314610594578063f2fde38b146105b1578063fc1852fb146105d7578063fccc2813146105f457610226565b8063c5f956af1461053e578063c68bb4c514610546578063d365a08e1461054e578063dd62ed3e14610556578063e4ef9dce1461058457610226565b80638f88bba3116100ff5780638f88bba3146104ce57806395d89b41146104d657806396afc450146104de578063a457c2d7146104e6578063a9059cbb1461051257610226565b8063781357051461044a578063841e4561146104675780638c5624571461048d5780638da5cb5b146104aa57610226565b806339eb4189116101b35780634f3147ba116101825780634f3147ba146103e6578063617d1126146103ee57806367c0f278146103f657806370a082311461041c578063715018a61461044257610226565b806339eb4189146103b157806342966c68146103b9578063436cc3d6146103d6578063439af45e146103de57610226565b806318160ddd116101fa57806318160ddd1461032157806323b872dd1461032957806327dede2d1461035f578063313ce56714610367578063395093511461038557610226565b80624fbf6b1461022b57806306fdde0314610245578063095ea7b3146102c25780630ba84cd214610302575b600080fd5b6102336105fc565b60408051918252519081900360200190f35b61024d610601565b6040805160208082528351818301528351919283929083019185019080838360005b8381101561028757818101518382015260200161026f565b50505050905090810190601f1680156102b45780820380516001836020036101000a031916815260200191505b509250505060405180910390f35b6102ee600480360360408110156102d857600080fd5b506001600160a01b038135169060200135610697565b604080519115158252519081900360200190f35b61031f6004803603602081101561031857600080fd5b50356106b5565b005b6102336107a7565b6102ee6004803603606081101561033f57600080fd5b506001600160a01b038135811691602081013590911690604001356107ad565b610233610834565b61036f61083a565b6040805160ff9092168252519081900360200190f35b6102ee6004803603604081101561039b57600080fd5b506001600160a01b038135169060200135610843565b610233610891565b61031f600480360360208110156103cf57600080fd5b50356108ba565b6102336108ca565b6102336108d5565b6102336108db565b6102336108f0565b61031f6004803603602081101561040c57600080fd5b50356001600160a01b03166108fe565b6102336004803603602081101561043257600080fd5b50356001600160a01b0316610a41565b61031f610a60565b6102336004803603602081101561046057600080fd5b5035610b0c565b61031f6004803603602081101561047d57600080fd5b50356001600160a01b0316610bd8565b61031f600480360360208110156104a357600080fd5b5035610ce9565b6104b2610ddf565b604080516001600160a01b039092168252519081900360200190f35b610233610dee565b61024d610df4565b610233610e55565b6102ee600480360360408110156104fc57600080fd5b506001600160a01b038135169060200135610e5b565b6102ee6004803603604081101561052857600080fd5b506001600160a01b038135169060200135610ec3565b6104b2610ed7565b610233610ee6565b6104b2610eec565b6102336004803603604081101561056c57600080fd5b506001600160a01b0381358116916020013516610efb565b61031f610f26565b61023361105e565b61031f600480360360208110156105aa57600080fd5b5035611064565b61031f600480360360208110156105c757600080fd5b50356001600160a01b0316611197565b61031f600480360360208110156105ed57600080fd5b5035611299565b6104b26113d0565b606481565b60048054604080516020601f600260001961010060018816150201909516949094049384018190048102820181019092528281526060939092909183018282801561068d5780601f106106625761010080835404028352916020019161068d565b820191906000526020600020905b81548152906001019060200180831161067057829003601f168201915b5050505050905090565b60006106ab6106a4611437565b848461143b565b5060015b92915050565b6106bd611437565b6001600160a01b03166106ce610ddf565b6001600160a01b031614610717576040805162461bcd60e51b81526020600482018190526024820152600080516020611ae6833981519152604482015290519081900360640190fd5b662386f26fc1000081111561075d5760405162461bcd60e51b8152600401808060200182810382526028815260200180611bb16028913960400191505060405180910390fd5b610765610f26565b600854604080519182526020820183905280517f16b9091836a63537907593ebc3a80f3528891f3575b10f58ad7dd9c29fd0d44f9281900390910190a1600855565b60035490565b60006107ba848484611527565b61082a846107c6611437565b61082585604051806060016040528060288152602001611abe602891396001600160a01b038a16600090815260026020526040812090610804611437565b6001600160a01b031681526020810191909152604001600020549190611684565b61143b565b5060019392505050565b600a5481565b60065460ff1690565b60006106ab610850611437565b846108258560026000610861611437565b6001600160a01b03908116825260208083019390935260409182016000908120918c1681529252902054906113d6565b60006108b560646108af600b5460085461171b90919063ffffffff16565b90611774565b905090565b6108c73361dead83611527565b50565b662386f26fc1000081565b60095481565b60006108b56108e8610ee6565b6064906117db565b692a5a058fc295ed00000081565b610906611437565b6001600160a01b0316610917610ddf565b6001600160a01b031614610960576040805162461bcd60e51b81526020600482018190526024820152600080516020611ae6833981519152604482015290519081900360640190fd5b600c546001600160a01b0316156109a85760405162461bcd60e51b8152600401808060200182810382526033815260200180611b7e6033913960400191505060405180910390fd5b6001600160a01b0381166109ed5760405162461bcd60e51b815260040180806020018281038252603b815260200180611a62603b913960400191505060405180910390fd5b600c80546001600160a01b0383166001600160a01b0319909116811790915560408051918252517fcba13eb1e65d2c1588ce6d10f862f4535cc67855c3f31e3d2732f8fb6b5317b29181900360200190a150565b6001600160a01b0381166000908152600160205260409020545b919050565b610a68611437565b6001600160a01b0316610a79610ddf565b6001600160a01b031614610ac2576040805162461bcd60e51b81526020600482018190526024820152600080516020611ae6833981519152604482015290519081900360640190fd5b600080546040516001600160a01b03909116907f8be0079c531659141344cd1fd0a4f28419497f9722a3daafe3b4186f6b6457e0908390a3600080546001600160a01b0319169055565b600c546000906001600160a01b03163314610b585760405162461bcd60e51b8152600401808060200182810382526027815260200180611c396027913960400191505060405180910390fd5b610b60610f26565b610b6c600a5483611838565b905080610b7857610a5b565b600a54610b8590826117db565b600a55600c54610ba09030906001600160a01b031683611527565b6040805182815290517f45102e9ef2c4f14fd9f3e8510c4bb2ad67fe498584602f26647da23039f125319181900360200190a1919050565b610be0611437565b6001600160a01b0316610bf1610ddf565b6001600160a01b031614610c3a576040805162461bcd60e51b81526020600482018190526024820152600080516020611ae6833981519152604482015290519081900360640190fd5b6001600160a01b038116610c7f5760405162461bcd60e51b81526004018080602001828103825260268152602001806119fd6026913960400191505060405180910390fd5b600d54604080516001600160a01b039283168152918316602083015280517f5634a90413b79beba6c5f37aa8f19d1aee84a5320ff20ac7bd1ac63280867d5c9281900390910190a1600d80546001600160a01b0319166001600160a01b0392909216919091179055565b610cf1611437565b6001600160a01b0316610d02610ddf565b6001600160a01b031614610d4b576040805162461bcd60e51b81526020600482018190526024820152600080516020611ae6833981519152604482015290519081900360640190fd5b610d53610f26565b806064811115610d945760405162461bcd60e51b815260040180806020018281038252602f815260200180611b2b602f913960400191505060405180910390fd5b600b8290557fb1bc322c959dd23e6f87515e39a687bed073fbe1e93bd977fe8ecae3852c14ba82610dc36108db565b6040805192835260208301919091528051918290030190a15050565b6000546001600160a01b031690565b600b5481565b60058054604080516020601f600260001961010060018816150201909516949094049384018190048102820181019092528281526060939092909183018282801561068d5780601f106106625761010080835404028352916020019161068d565b60085481565b60006106ab610e68611437565b8461082585604051806060016040528060258152602001611c146025913960026000610e92611437565b6001600160a01b03908116825260208083019390935260409182016000908120918d16815292529020549190611684565b60006106ab610ed0611437565b8484611527565b600d546001600160a01b031681565b600b5490565b600c546001600160a01b031681565b6001600160a01b03918216600090815260026020908152604080832093909416825291909152205490565b6000610f306107a7565b90506000610f3c61184e565b600954600754919250908183111580610f53575081155b15610f61575050505061105c565b8381111580610f705750600854155b15610f805750506009555061105c565b600854600090610f9a90610f9486866117db565b9061171b565b9050610fa685826113d6565b821015610fba57610fb782866117db565b90505b6000610fd360646108af610fcc610ee6565b859061171b565b90506000610fe183836117db565b6009879055600a54909150610ff690836113d6565b600a556110033083611852565b600d54611019906001600160a01b031682611852565b604080518381526020810183905281517f26c155e7637ca49a34c19c7f8cb8533322897de0808134df1a98f71557111684929181900390910190a1505050505050505b565b60075481565b61106c611437565b6001600160a01b031661107d610ddf565b6001600160a01b0316146110c6576040805162461bcd60e51b81526020600482018190526024820152600080516020611ae6833981519152604482015290519081900360640190fd5b6110ce6107a7565b81101561110c5760405162461bcd60e51b815260040180806020018281038252603f815260200180611a23603f913960400191505060405180910390fd5b692a5a058fc295ed0000008111156111555760405162461bcd60e51b81526004018080602001828103825260228152602001806119b56022913960400191505060405180910390fd5b600754604080519182526020820183905280517f6a84334bf6663b783f2bbfcaf459b2cbc73570cf346a46d9e6a0f290fcf3ebfc9281900390910190a1600755565b61119f611437565b6001600160a01b03166111b0610ddf565b6001600160a01b0316146111f9576040805162461bcd60e51b81526020600482018190526024820152600080516020611ae6833981519152604482015290519081900360640190fd5b6001600160a01b03811661123e5760405162461bcd60e51b815260040180806020018281038252602681526020018061196d6026913960400191505060405180910390fd5b600080546040516001600160a01b03808516939216917f8be0079c531659141344cd1fd0a4f28419497f9722a3daafe3b4186f6b6457e091a3600080546001600160a01b0319166001600160a01b0392909216919091179055565b6112a1611437565b6001600160a01b03166112b2610ddf565b6001600160a01b0316146112fb576040805162461bcd60e51b81526020600482018190526024820152600080516020611ae6833981519152604482015290519081900360640190fd5b6009541561133a5760405162461bcd60e51b815260040180806020018281038252603b815260200180611bd9603b913960400191505060405180910390fd5b8061134361184e565b10611395576040805162461bcd60e51b815260206004820181905260248201527f696e697469616c697a65456d697373696f6e53746172743a20696e76616c6964604482015290519081900360640190fd5b60098190556040805182815290517f10e116be9bb4f621259f592ccd7e00d783e796535f2a5f3bc91a79da0fc3456d9181900360200190a150565b61dead81565b600082820183811015611430576040805162461bcd60e51b815260206004820152601b60248201527f536166654d6174683a206164646974696f6e206f766572666c6f770000000000604482015290519081900360640190fd5b9392505050565b3390565b6001600160a01b0383166114805760405162461bcd60e51b8152600401808060200182810382526024815260200180611b5a6024913960400191505060405180910390fd5b6001600160a01b0382166114c55760405162461bcd60e51b81526004018080602001828103825260228152602001806119936022913960400191505060405180910390fd5b6001600160a01b03808416600081815260026020908152604080832094871680845294825291829020859055815185815291517f8c5be1e5ebec7d5bd14f71427d1e84f3dd0314c0f7b2291e5b200ac8c7c3b9259281900390910190a3505050565b6001600160a01b03831661156c5760405162461bcd60e51b8152600401808060200182810382526025815260200180611b066025913960400191505060405180910390fd5b6001600160a01b0382166115b15760405162461bcd60e51b815260040180806020018281038252602381526020018061194a6023913960400191505060405180910390fd5b6115bc838383611944565b6115f9816040518060600160405280602681526020016119d7602691396001600160a01b0386166000908152600160205260409020549190611684565b6001600160a01b03808516600090815260016020526040808220939093559084168152205461162890826113d6565b6001600160a01b0380841660008181526001602090815260409182902094909455805185815290519193928716927fddf252ad1be2c89b69c2b068fc378daa952ba7f163c4a11628f55a4df523b3ef92918290030190a3505050565b600081848411156117135760405162461bcd60e51b81526004018080602001828103825283818151815260200191508051906020019080838360005b838110156116d85781810151838201526020016116c0565b50505050905090810190601f1680156117055780820380516001836020036101000a031916815260200191505b509250505060405180910390fd5b505050900390565b60008261172a575060006106af565b8282028284828161173757fe5b04146114305760405162461bcd60e51b8152600401808060200182810382526021815260200180611a9d6021913960400191505060405180910390fd5b60008082116117ca576040805162461bcd60e51b815260206004820152601a60248201527f536166654d6174683a206469766973696f6e206279207a65726f000000000000604482015290519081900360640190fd5b8183816117d357fe5b049392505050565b600082821115611832576040805162461bcd60e51b815260206004820152601e60248201527f536166654d6174683a207375627472616374696f6e206f766572666c6f770000604482015290519081900360640190fd5b50900390565b60008183106118475781611430565b5090919050565b4290565b6001600160a01b0382166118ad576040805162461bcd60e51b815260206004820152601f60248201527f45524332303a206d696e7420746f20746865207a65726f206164647265737300604482015290519081900360640190fd5b6118b960008383611944565b6003546118c690826113d6565b6003556001600160a01b0382166000908152600160205260409020546118ec90826113d6565b6001600160a01b03831660008181526001602090815260408083209490945583518581529351929391927fddf252ad1be2c89b69c2b068fc378daa952ba7f163c4a11628f55a4df523b3ef9281900390910190a35050565b50505056fe45524332303a207472616e7366657220746f20746865207a65726f20616464726573734f776e61626c653a206e6577206f776e657220697320746865207a65726f206164647265737345524332303a20617070726f766520746f20746865207a65726f20616464726573737570646174654d6178537570706c793a20696e76616c6964206d6178537570706c7945524332303a207472616e7366657220616d6f756e7420657863656564732062616c616e63657570646174655472656173757279416464726573733a20696e76616c696420616464726573737570646174654d6178537570706c793a2063616e2774206265206c6f776572207468616e2063757272656e742063697263756c6174696e6720737570706c79696e697469616c697a654d6173746572416464726573733a206d617374657220696e697469616c697a656420746f207a65726f2061646472657373536166654d6174683a206d756c7469706c69636174696f6e206f766572666c6f7745524332303a207472616e7366657220616d6f756e74206578636565647320616c6c6f77616e63654f776e61626c653a2063616c6c6572206973206e6f7420746865206f776e657245524332303a207472616e736665722066726f6d20746865207a65726f2061646472657373757064617465416c6c6f636174696f6e733a20746f74616c20616c6c6f636174696f6e20697320746f6f206869676845524332303a20617070726f76652066726f6d20746865207a65726f2061646472657373696e697469616c697a654d6173746572416464726573733a206d617374657220616c726561647920696e697469616c697a6564757064617465456d697373696f6e526174653a2063616e277420657863656564206d6178696d756d696e697469616c697a65456d697373696f6e53746172743a20656d697373696f6e20737461727420616c726561647920696e697469616c697a656445524332303a2064656372656173656420616c6c6f77616e63652062656c6f77207a65726f50726f746f636f6c546f6b656e3a2063616c6c6572206973206e6f7420746865206d6173746572a2646970667358221220b0315e9f8e6510e85249cb0abfdfdd4c7675bf86ae822d73d69a28092df8977364736f6c63430007060033",
    "linkReferences": {}
  },
  "methodIdentifiers": {
    "ALLOCATION_PRECISION()": "004fbf6b",
    "BURN_ADDRESS()": "fccc2813",
    "MAX_EMISSION_RATE()": "436cc3d6",
    "MAX_SUPPLY_LIMIT()": "617d1126",
    "allowance(address,address)": "dd62ed3e",
    "approve(address,uint256)": "095ea7b3",
    "balanceOf(address)": "70a08231",
    "burn(uint256)": "42966c68",
    "claimMasterRewards(uint256)": "78135705",
    "decimals()": "313ce567",
    "decreaseAllowance(address,uint256)": "a457c2d7",
    "elasticMaxSupply()": "ed424fd0",
    "emissionRate()": "96afc450",
    "emitAllocations()": "e4ef9dce",
    "farmingAllocation()": "8f88bba3",
    "increaseAllowance(address,uint256)": "39509351",
    "initializeEmissionStart(uint256)": "fc1852fb",
    "initializeMasterAddress(address)": "67c0f278",
    "lastEmissionTime()": "439af45e",
    "masterAddress()": "d365a08e",
    "masterAllocation()": "c68bb4c5",
    "masterEmissionRate()": "39eb4189",
    "masterReserve()": "27dede2d",
    "name()": "06fdde03",
    "owner()": "8da5cb5b",
    "renounceOwnership()": "715018a6",
    "symbol()": "95d89b41",
    "totalSupply()": "18160ddd",
    "transfer(address,uint256)": "a9059cbb",
    "transferFrom(address,address,uint256)": "23b872dd",
    "transferOwnership(address)": "f2fde38b",
    "treasuryAddress()": "c5f956af",
    "treasuryAllocation()": "4f3147ba",
    "updateAllocations(uint256)": "8c562457",
    "updateEmissionRate(uint256)": "0ba84cd2",
    "updateMaxSupply(uint256)": "f103b433",
    "updateTreasuryAddress(address)": "841e4561"
  },
  "id": 3
}