{
  "abi": [
    {
      "inputs": [
        {
          "internalType": "contract IARXToken",
          "name": "arxToken_",
          "type": "address"
        }
      ],
      "stateMutability": "nonpayable",
      "type": "constructor"
    },
    {
      "anonymous": false,
      "inputs": [
        {
          "indexed": true,
          "internalType": "address",
          "name": "userAddress",
          "type": "address"
        },
        {
          "indexed": true,
          "internalType": "address",
          "name": "usageAddress",
          "type": "address"
        },
        {
          "indexed": false,
          "internalType": "uint256",
          "name": "amount",
          "type": "uint256"
        }
      ],
      "name": "Allocate",
      "type": "event"
    },
    {
      "anonymous": false,
      "inputs": [
        {
          "indexed": true,
          "internalType": "address",
          "name": "owner",
          "type": "address"
        },
        {
          "indexed": true,
          "internalType": "address",
          "name": "spender",
          "type": "address"
        },
        {
          "indexed": false,
          "internalType": "uint256",
          "name": "value",
          "type": "uint256"
        }
      ],
      "name": "Approval",
      "type": "event"
    },
    {
      "anonymous": false,
      "inputs": [
        {
          "indexed": true,
          "internalType": "address",
          "name": "userAddress",
          "type": "address"
        },
        {
          "indexed": true,
          "internalType": "address",
          "name": "usageAddress",
          "type": "address"
        },
        {
          "indexed": false,
          "internalType": "uint256",
          "name": "amount",
          "type": "uint256"
        }
      ],
      "name": "ApproveUsage",
      "type": "event"
    },
    {
      "anonymous": false,
      "inputs": [
        {
          "indexed": true,
          "internalType": "address",
          "name": "userAddress",
          "type": "address"
        },
        {
          "indexed": false,
          "internalType": "uint256",
          "name": "xArxAmount",
          "type": "uint256"
        }
      ],
      "name": "CancelRedeem",
      "type": "event"
    },
    {
      "anonymous": false,
      "inputs": [
        {
          "indexed": true,
          "internalType": "address",
          "name": "from",
          "type": "address"
        },
        {
          "indexed": false,
          "internalType": "address",
          "name": "to",
          "type": "address"
        },
        {
          "indexed": false,
          "internalType": "uint256",
          "name": "amount",
          "type": "uint256"
        }
      ],
      "name": "Convert",
      "type": "event"
    },
    {
      "anonymous": false,
      "inputs": [
        {
          "indexed": true,
          "internalType": "address",
          "name": "userAddress",
          "type": "address"
        },
        {
          "indexed": true,
          "internalType": "address",
          "name": "usageAddress",
          "type": "address"
        },
        {
          "indexed": false,
          "internalType": "uint256",
          "name": "amount",
          "type": "uint256"
        },
        {
          "indexed": false,
          "internalType": "uint256",
          "name": "fee",
          "type": "uint256"
        }
      ],
      "name": "Deallocate",
      "type": "event"
    },
    {
      "anonymous": false,
      "inputs": [
        {
          "indexed": true,
          "internalType": "address",
          "name": "userAddress",
          "type": "address"
        },
        {
          "indexed": false,
          "internalType": "uint256",
          "name": "xArxAmount",
          "type": "uint256"
        },
        {
          "indexed": false,
          "internalType": "uint256",
          "name": "arxAmount",
          "type": "uint256"
        }
      ],
      "name": "FinalizeRedeem",
      "type": "event"
    },
    {
      "anonymous": false,
      "inputs": [
        {
          "indexed": true,
          "internalType": "address",
          "name": "previousOwner",
          "type": "address"
        },
        {
          "indexed": true,
          "internalType": "address",
          "name": "newOwner",
          "type": "address"
        }
      ],
      "name": "OwnershipTransferred",
      "type": "event"
    },
    {
      "anonymous": false,
      "inputs": [
        {
          "indexed": true,
          "internalType": "address",
          "name": "userAddress",
          "type": "address"
        },
        {
          "indexed": false,
          "internalType": "uint256",
          "name": "xArxAmount",
          "type": "uint256"
        },
        {
          "indexed": false,
          "internalType": "uint256",
          "name": "arxAmount",
          "type": "uint256"
        },
        {
          "indexed": false,
          "internalType": "uint256",
          "name": "duration",
          "type": "uint256"
        }
      ],
      "name": "Redeem",
      "type": "event"
    },
    {
      "anonymous": false,
      "inputs": [
        {
          "indexed": false,
          "internalType": "address",
          "name": "account",
          "type": "address"
        },
        {
          "indexed": false,
          "internalType": "bool",
          "name": "add",
          "type": "bool"
        }
      ],
      "name": "SetTransferWhitelist",
      "type": "event"
    },
    {
      "anonymous": false,
      "inputs": [
        {
          "indexed": true,
          "internalType": "address",
          "name": "from",
          "type": "address"
        },
        {
          "indexed": true,
          "internalType": "address",
          "name": "to",
          "type": "address"
        },
        {
          "indexed": false,
          "internalType": "uint256",
          "name": "value",
          "type": "uint256"
        }
      ],
      "name": "Transfer",
      "type": "event"
    },
    {
      "anonymous": false,
      "inputs": [
        {
          "indexed": true,
          "internalType": "address",
          "name": "usageAddress",
          "type": "address"
        },
        {
          "indexed": false,
          "internalType": "uint256",
          "name": "fee",
          "type": "uint256"
        }
      ],
      "name": "UpdateDeallocationFee",
      "type": "event"
    },
    {
      "anonymous": false,
      "inputs": [
        {
          "indexed": false,
          "internalType": "address",
          "name": "previousDividendsAddress",
          "type": "address"
        },
        {
          "indexed": false,
          "internalType": "address",
          "name": "newDividendsAddress",
          "type": "address"
        }
      ],
      "name": "UpdateDividendsAddress",
      "type": "event"
    },
    {
      "anonymous": false,
      "inputs": [
        {
          "indexed": true,
          "internalType": "address",
          "name": "userAddress",
          "type": "address"
        },
        {
          "indexed": false,
          "internalType": "uint256",
          "name": "redeemIndex",
          "type": "uint256"
        },
        {
          "indexed": false,
          "internalType": "address",
          "name": "previousDividendsAddress",
          "type": "address"
        },
        {
          "indexed": false,
          "internalType": "address",
          "name": "newDividendsAddress",
          "type": "address"
        }
      ],
      "name": "UpdateRedeemDividendsAddress",
      "type": "event"
    },
    {
      "anonymous": false,
      "inputs": [
        {
          "indexed": false,
          "internalType": "uint256",
          "name": "minRedeemRatio",
          "type": "uint256"
        },
        {
          "indexed": false,
          "internalType": "uint256",
          "name": "maxRedeemRatio",
          "type": "uint256"
        },
        {
          "indexed": false,
          "internalType": "uint256",
          "name": "minRedeemDuration",
          "type": "uint256"
        },
        {
          "indexed": false,
          "internalType": "uint256",
          "name": "maxRedeemDuration",
          "type": "uint256"
        },
        {
          "indexed": false,
          "internalType": "uint256",
          "name": "redeemDividendsAdjustment",
          "type": "uint256"
        }
      ],
      "name": "UpdateRedeemSettings",
      "type": "event"
    },
    {
      "inputs": [],
      "name": "MAX_DEALLOCATION_FEE",
      "outputs": [
        {
          "internalType": "uint256",
          "name": "",
          "type": "uint256"
        }
      ],
      "stateMutability": "view",
      "type": "function"
    },
    {
      "inputs": [],
      "name": "MAX_FIXED_RATIO",
      "outputs": [
        {
          "internalType": "uint256",
          "name": "",
          "type": "uint256"
        }
      ],
      "stateMutability": "view",
      "type": "function"
    },
    {
      "inputs": [
        {
          "internalType": "address",
          "name": "usageAddress",
          "type": "address"
        },
        {
          "internalType": "uint256",
          "name": "amount",
          "type": "uint256"
        },
        {
          "internalType": "bytes",
          "name": "usageData",
          "type": "bytes"
        }
      ],
      "name": "allocate",
      "outputs": [],
      "stateMutability": "nonpayable",
      "type": "function"
    },
    {
      "inputs": [
        {
          "internalType": "address",
          "name": "userAddress",
          "type": "address"
        },
        {
          "internalType": "uint256",
          "name": "amount",
          "type": "uint256"
        }
      ],
      "name": "allocateFromUsage",
      "outputs": [],
      "stateMutability": "nonpayable",
      "type": "function"
    },
    {
      "inputs": [
        {
          "internalType": "address",
          "name": "owner",
          "type": "address"
        },
        {
          "internalType": "address",
          "name": "spender",
          "type": "address"
        }
      ],
      "name": "allowance",
      "outputs": [
        {
          "internalType": "uint256",
          "name": "",
          "type": "uint256"
        }
      ],
      "stateMutability": "view",
      "type": "function"
    },
    {
      "inputs": [
        {
          "internalType": "address",
          "name": "spender",
          "type": "address"
        },
        {
          "internalType": "uint256",
          "name": "amount",
          "type": "uint256"
        }
      ],
      "name": "approve",
      "outputs": [
        {
          "internalType": "bool",
          "name": "",
          "type": "bool"
        }
      ],
      "stateMutability": "nonpayable",
      "type": "function"
    },
    {
      "inputs": [
        {
          "internalType": "contract IXTokenUsage",
          "name": "usage",
          "type": "address"
        },
        {
          "internalType": "uint256",
          "name": "amount",
          "type": "uint256"
        }
      ],
      "name": "approveUsage",
      "outputs": [],
      "stateMutability": "nonpayable",
      "type": "function"
    },
    {
      "inputs": [],
      "name": "arxToken",
      "outputs": [
        {
          "internalType": "contract IARXToken",
          "name": "",
          "type": "address"
        }
      ],
      "stateMutability": "view",
      "type": "function"
    },
    {
      "inputs": [
        {
          "internalType": "address",
          "name": "account",
          "type": "address"
        }
      ],
      "name": "balanceOf",
      "outputs": [
        {
          "internalType": "uint256",
          "name": "",
          "type": "uint256"
        }
      ],
      "stateMutability": "view",
      "type": "function"
    },
    {
      "inputs": [
        {
          "internalType": "uint256",
          "name": "redeemIndex",
          "type": "uint256"
        }
      ],
      "name": "cancelRedeem",
      "outputs": [],
      "stateMutability": "nonpayable",
      "type": "function"
    },
    {
      "inputs": [
        {
          "internalType": "uint256",
          "name": "amount",
          "type": "uint256"
        }
      ],
      "name": "convert",
      "outputs": [],
      "stateMutability": "nonpayable",
      "type": "function"
    },
    {
      "inputs": [
        {
          "internalType": "uint256",
          "name": "amount",
          "type": "uint256"
        },
        {
          "internalType": "address",
          "name": "to",
          "type": "address"
        }
      ],
      "name": "convertTo",
      "outputs": [],
      "stateMutability": "nonpayable",
      "type": "function"
    },
    {
      "inputs": [
        {
          "internalType": "address",
          "name": "usageAddress",
          "type": "address"
        },
        {
          "internalType": "uint256",
          "name": "amount",
          "type": "uint256"
        },
        {
          "internalType": "bytes",
          "name": "usageData",
          "type": "bytes"
        }
      ],
      "name": "deallocate",
      "outputs": [],
      "stateMutability": "nonpayable",
      "type": "function"
    },
    {
      "inputs": [
        {
          "internalType": "address",
          "name": "userAddress",
          "type": "address"
        },
        {
          "internalType": "uint256",
          "name": "amount",
          "type": "uint256"
        }
      ],
      "name": "deallocateFromUsage",
      "outputs": [],
      "stateMutability": "nonpayable",
      "type": "function"
    },
    {
      "inputs": [],
      "name": "decimals",
      "outputs": [
        {
          "internalType": "uint8",
          "name": "",
          "type": "uint8"
        }
      ],
      "stateMutability": "view",
      "type": "function"
    },
    {
      "inputs": [
        {
          "internalType": "address",
          "name": "spender",
          "type": "address"
        },
        {
          "internalType": "uint256",
          "name": "subtractedValue",
          "type": "uint256"
        }
      ],
      "name": "decreaseAllowance",
      "outputs": [
        {
          "internalType": "bool",
          "name": "",
          "type": "bool"
        }
      ],
      "stateMutability": "nonpayable",
      "type": "function"
    },
    {
      "inputs": [],
      "name": "dividendsAddress",
      "outputs": [
        {
          "internalType": "contract IXTokenUsage",
          "name": "",
          "type": "address"
        }
      ],
      "stateMutability": "view",
      "type": "function"
    },
    {
      "inputs": [
        {
          "internalType": "uint256",
          "name": "redeemIndex",
          "type": "uint256"
        }
      ],
      "name": "finalizeRedeem",
      "outputs": [],
      "stateMutability": "nonpayable",
      "type": "function"
    },
    {
      "inputs": [
        {
          "internalType": "uint256",
          "name": "amount",
          "type": "uint256"
        },
        {
          "internalType": "uint256",
          "name": "duration",
          "type": "uint256"
        }
      ],
      "name": "getArxByVestingDuration",
      "outputs": [
        {
          "internalType": "uint256",
          "name": "",
          "type": "uint256"
        }
      ],
      "stateMutability": "view",
      "type": "function"
    },
    {
      "inputs": [
        {
          "internalType": "address",
          "name": "userAddress",
          "type": "address"
        },
        {
          "internalType": "address",
          "name": "usageAddress",
          "type": "address"
        }
      ],
      "name": "getUsageAllocation",
      "outputs": [
        {
          "internalType": "uint256",
          "name": "",
          "type": "uint256"
        }
      ],
      "stateMutability": "view",
      "type": "function"
    },
    {
      "inputs": [
        {
          "internalType": "address",
          "name": "userAddress",
          "type": "address"
        },
        {
          "internalType": "address",
          "name": "usageAddress",
          "type": "address"
        }
      ],
      "name": "getUsageApproval",
      "outputs": [
        {
          "internalType": "uint256",
          "name": "",
          "type": "uint256"
        }
      ],
      "stateMutability": "view",
      "type": "function"
    },
    {
      "inputs": [
        {
          "internalType": "address",
          "name": "userAddress",
          "type": "address"
        },
        {
          "internalType": "uint256",
          "name": "redeemIndex",
          "type": "uint256"
        }
      ],
      "name": "getUserRedeem",
      "outputs": [
        {
          "internalType": "uint256",
          "name": "arxAmount",
          "type": "uint256"
        },
        {
          "internalType": "uint256",
          "name": "xArxAmount",
          "type": "uint256"
        },
        {
          "internalType": "uint256",
          "name": "endTime",
          "type": "uint256"
        },
        {
          "internalType": "address",
          "name": "dividendsContract",
          "type": "address"
        },
        {
          "internalType": "uint256",
          "name": "dividendsAllocation",
          "type": "uint256"
        }
      ],
      "stateMutability": "view",
      "type": "function"
    },
    {
      "inputs": [
        {
          "internalType": "address",
          "name": "userAddress",
          "type": "address"
        }
      ],
      "name": "getUserRedeemsLength",
      "outputs": [
        {
          "internalType": "uint256",
          "name": "",
          "type": "uint256"
        }
      ],
      "stateMutability": "view",
      "type": "function"
    },
    {
      "inputs": [
        {
          "internalType": "address",
          "name": "userAddress",
          "type": "address"
        }
      ],
      "name": "getxArxBalance",
      "outputs": [
        {
          "internalType": "uint256",
          "name": "allocatedAmount",
          "type": "uint256"
        },
        {
          "internalType": "uint256",
          "name": "redeemingAmount",
          "type": "uint256"
        }
      ],
      "stateMutability": "view",
      "type": "function"
    },
    {
      "inputs": [
        {
          "internalType": "address",
          "name": "spender",
          "type": "address"
        },
        {
          "internalType": "uint256",
          "name": "addedValue",
          "type": "uint256"
        }
      ],
      "name": "increaseAllowance",
      "outputs": [
        {
          "internalType": "bool",
          "name": "",
          "type": "bool"
        }
      ],
      "stateMutability": "nonpayable",
      "type": "function"
    },
    {
      "inputs": [
        {
          "internalType": "address",
          "name": "account",
          "type": "address"
        }
      ],
      "name": "isTransferWhitelisted",
      "outputs": [
        {
          "internalType": "bool",
          "name": "",
          "type": "bool"
        }
      ],
      "stateMutability": "view",
      "type": "function"
    },
    {
      "inputs": [],
      "name": "maxRedeemDuration",
      "outputs": [
        {
          "internalType": "uint256",
          "name": "",
          "type": "uint256"
        }
      ],
      "stateMutability": "view",
      "type": "function"
    },
    {
      "inputs": [],
      "name": "maxRedeemRatio",
      "outputs": [
        {
          "internalType": "uint256",
          "name": "",
          "type": "uint256"
        }
      ],
      "stateMutability": "view",
      "type": "function"
    },
    {
      "inputs": [],
      "name": "minRedeemDuration",
      "outputs": [
        {
          "internalType": "uint256",
          "name": "",
          "type": "uint256"
        }
      ],
      "stateMutability": "view",
      "type": "function"
    },
    {
      "inputs": [],
      "name": "minRedeemRatio",
      "outputs": [
        {
          "internalType": "uint256",
          "name": "",
          "type": "uint256"
        }
      ],
      "stateMutability": "view",
      "type": "function"
    },
    {
      "inputs": [],
      "name": "name",
      "outputs": [
        {
          "internalType": "string",
          "name": "",
          "type": "string"
        }
      ],
      "stateMutability": "view",
      "type": "function"
    },
    {
      "inputs": [],
      "name": "owner",
      "outputs": [
        {
          "internalType": "address",
          "name": "",
          "type": "address"
        }
      ],
      "stateMutability": "view",
      "type": "function"
    },
    {
      "inputs": [
        {
          "internalType": "uint256",
          "name": "xArxAmount",
          "type": "uint256"
        },
        {
          "internalType": "uint256",
          "name": "duration",
          "type": "uint256"
        }
      ],
      "name": "redeem",
      "outputs": [],
      "stateMutability": "nonpayable",
      "type": "function"
    },
    {
      "inputs": [],
      "name": "redeemDividendsAdjustment",
      "outputs": [
        {
          "internalType": "uint256",
          "name": "",
          "type": "uint256"
        }
      ],
      "stateMutability": "view",
      "type": "function"
    },
    {
      "inputs": [],
      "name": "renounceOwnership",
      "outputs": [],
      "stateMutability": "nonpayable",
      "type": "function"
    },
    {
      "inputs": [],
      "name": "symbol",
      "outputs": [
        {
          "internalType": "string",
          "name": "",
          "type": "string"
        }
      ],
      "stateMutability": "view",
      "type": "function"
    },
    {
      "inputs": [],
      "name": "totalSupply",
      "outputs": [
        {
          "internalType": "uint256",
          "name": "",
          "type": "uint256"
        }
      ],
      "stateMutability": "view",
      "type": "function"
    },
    {
      "inputs": [
        {
          "internalType": "address",
          "name": "recipient",
          "type": "address"
        },
        {
          "internalType": "uint256",
          "name": "amount",
          "type": "uint256"
        }
      ],
      "name": "transfer",
      "outputs": [
        {
          "internalType": "bool",
          "name": "",
          "type": "bool"
        }
      ],
      "stateMutability": "nonpayable",
      "type": "function"
    },
    {
      "inputs": [
        {
          "internalType": "address",
          "name": "sender",
          "type": "address"
        },
        {
          "internalType": "address",
          "name": "recipient",
          "type": "address"
        },
        {
          "internalType": "uint256",
          "name": "amount",
          "type": "uint256"
        }
      ],
      "name": "transferFrom",
      "outputs": [
        {
          "internalType": "bool",
          "name": "",
          "type": "bool"
        }
      ],
      "stateMutability": "nonpayable",
      "type": "function"
    },
    {
      "inputs": [
        {
          "internalType": "address",
          "name": "newOwner",
          "type": "address"
        }
      ],
      "name": "transferOwnership",
      "outputs": [],
      "stateMutability": "nonpayable",
      "type": "function"
    },
    {
      "inputs": [
        {
          "internalType": "uint256",
          "name": "index",
          "type": "uint256"
        }
      ],
      "name": "transferWhitelist",
      "outputs": [
        {
          "internalType": "address",
          "name": "",
          "type": "address"
        }
      ],
      "stateMutability": "view",
      "type": "function"
    },
    {
      "inputs": [],
      "name": "transferWhitelistLength",
      "outputs": [
        {
          "internalType": "uint256",
          "name": "",
          "type": "uint256"
        }
      ],
      "stateMutability": "view",
      "type": "function"
    },
    {
      "inputs": [
        {
          "internalType": "address",
          "name": "usageAddress",
          "type": "address"
        },
        {
          "internalType": "uint256",
          "name": "fee",
          "type": "uint256"
        }
      ],
      "name": "updateDeallocationFee",
      "outputs": [],
      "stateMutability": "nonpayable",
      "type": "function"
    },
    {
      "inputs": [
        {
          "internalType": "contract IXTokenUsage",
          "name": "dividendsAddress_",
          "type": "address"
        }
      ],
      "name": "updateDividendsAddress",
      "outputs": [],
      "stateMutability": "nonpayable",
      "type": "function"
    },
    {
      "inputs": [
        {
          "internalType": "uint256",
          "name": "redeemIndex",
          "type": "uint256"
        }
      ],
      "name": "updateRedeemDividendsAddress",
      "outputs": [],
      "stateMutability": "nonpayable",
      "type": "function"
    },
    {
      "inputs": [
        {
          "internalType": "uint256",
          "name": "minRedeemRatio_",
          "type": "uint256"
        },
        {
          "internalType": "uint256",
          "name": "maxRedeemRatio_",
          "type": "uint256"
        },
        {
          "internalType": "uint256",
          "name": "minRedeemDuration_",
          "type": "uint256"
        },
        {
          "internalType": "uint256",
          "name": "maxRedeemDuration_",
          "type": "uint256"
        },
        {
          "internalType": "uint256",
          "name": "redeemDividendsAdjustment_",
          "type": "uint256"
        }
      ],
      "name": "updateRedeemSettings",
      "outputs": [],
      "stateMutability": "nonpayable",
      "type": "function"
    },
    {
      "inputs": [
        {
          "internalType": "address",
          "name": "account",
          "type": "address"
        },
        {
          "internalType": "bool",
          "name": "add",
          "type": "bool"
        }
      ],
      "name": "updateTransferWhitelist",
      "outputs": [],
      "stateMutability": "nonpayable",
      "type": "function"
    },
    {
      "inputs": [
        {
          "internalType": "address",
          "name": "",
          "type": "address"
        },
        {
          "internalType": "address",
          "name": "",
          "type": "address"
        }
      ],
      "name": "usageAllocations",
      "outputs": [
        {
          "internalType": "uint256",
          "name": "",
          "type": "uint256"
        }
      ],
      "stateMutability": "view",
      "type": "function"
    },
    {
      "inputs": [
        {
          "internalType": "address",
          "name": "",
          "type": "address"
        },
        {
          "internalType": "address",
          "name": "",
          "type": "address"
        }
      ],
      "name": "usageApprovals",
      "outputs": [
        {
          "internalType": "uint256",
          "name": "",
          "type": "uint256"
        }
      ],
      "stateMutability": "view",
      "type": "function"
    },
    {
      "inputs": [
        {
          "internalType": "address",
          "name": "",
          "type": "address"
        }
      ],
      "name": "usagesDeallocationFee",
      "outputs": [
        {
          "internalType": "uint256",
          "name": "",
          "type": "uint256"
        }
      ],
      "stateMutability": "view",
      "type": "function"
    },
    {
      "inputs": [
        {
          "internalType": "address",
          "name": "",
          "type": "address"
        },
        {
          "internalType": "uint256",
          "name": "",
          "type": "uint256"
        }
      ],
      "name": "userRedeems",
      "outputs": [
        {
          "internalType": "uint256",
          "name": "arxAmount",
          "type": "uint256"
        },
        {
          "internalType": "uint256",
          "name": "xArxAmount",
          "type": "uint256"
        },
        {
          "internalType": "uint256",
          "name": "endTime",
          "type": "uint256"
        },
        {
          "internalType": "contract IXTokenUsage",
          "name": "dividendsAddress",
          "type": "address"
        },
        {
          "internalType": "uint256",
          "name": "dividendsAllocation",
          "type": "uint256"
        }
      ],
      "stateMutability": "view",
      "type": "function"
    },
    {
      "inputs": [
        {
          "internalType": "address",
          "name": "",
          "type": "address"
        }
      ],
      "name": "xArxBalances",
      "outputs": [
        {
          "internalType": "uint256",
          "name": "allocatedAmount",
          "type": "uint256"
        },
        {
          "internalType": "uint256",
          "name": "redeemingAmount",
          "type": "uint256"
        }
      ],
      "stateMutability": "view",
      "type": "function"
    }
  ],
  "bytecode": {
    "object": "0x60a06040526032600d556064600e556213c680600f556276a70060105560326011553480156200002e57600080fd5b506040516200409c3803806200409c833981810160405260208110156200005457600080fd5b5051604080518082018252601781527f426173657377617020657363726f77656420746f6b656e00000000000000000060208281019190915282518084019093526003835262084a6b60eb1b90830152906000620000b16200016f565b600080546001600160a01b0319166001600160a01b0383169081178255604051929350917f8be0079c531659141344cd1fd0a4f28419497f9722a3daafe3b4186f6b6457e0908290a35060018055815162000114906005906020850190620001fa565b5080516200012a906006906020840190620001fa565b505060078054601260ff1990911617905550606081901b6001600160601b0319166080526200016760083062000173602090811b6200279317901c565b5050620002a6565b3390565b60006200018a836001600160a01b03841662000193565b90505b92915050565b6000620001a18383620001e2565b620001d9575081546001818101845560008481526020808220909301849055845484825282860190935260409020919091556200018d565b5060006200018d565b60009081526001919091016020526040902054151590565b828054600181600116156101000203166002900490600052602060002090601f0160209004810192826200023257600085556200027d565b82601f106200024d57805160ff19168380011785556200027d565b828001600101855582156200027d579182015b828111156200027d57825182559160200191906001019062000260565b506200028b9291506200028f565b5090565b5b808211156200028b576000815560010162000290565b60805160601c613dc4620002d86000398061109a5280612f6f5280613102528061320d52806132365250613dc46000f3fe608060405234801561001057600080fd5b506004361061030c5760003560e01c8063539ffb771161019d578063a3908e1b116100e9578063c360ed1c116100a2578063dd62ed3e1161007c578063dd62ed3e14610abd578063e3a2950b14610aeb578063e9ed87f814610af3578063f2fde38b14610afb5761030c565b8063c360ed1c14610a5d578063c4b1076614610a89578063cc6c542314610a915761030c565b8063a3908e1b1461097f578063a457c2d71461099c578063a9059cbb146109c8578063aff6cbf1146109f4578063b90c2b5214610a11578063bbbecfd114610a375761030c565b8063715018a6116101565780638975f918116101305780638975f9181461091d5780638da5cb5b1461094357806395d89b411461094b578063a0bdc7cb146109535761030c565b8063715018a6146108c45780637cbc2373146108cc57806389083654146108ef5761030c565b8063539ffb77146107a5578063549230c9146107c25780635a1d34dc14610847578063619ac95b14610873578063640eb7ad1461087b57806370a082311461089e5761030c565b80632b4896791161025c5780633b90f9a0116102155780634a5b406e116101ef5780634a5b406e146106e15780634b359d38146106e95780634f62b7ec1461070657806353507405146107665761030c565b80633b90f9a01461067f578063488c8303146106ab578063497965ee146106d95761030c565b80632b4896791461058e5780632cc2f5ce146105bc5780632e9a76e4146105ea57806331124ce314610618578063313ce5671461063557806339509351146106535761030c565b8063161aab43116102c95780631c75e369116102a35780631c75e369146104895780631eee7e601461050e578063233007871461053457806323b872dd146105585761030c565b8063161aab431461047157806318160ddd146104795780631c352679146104815761030c565b806302f91e551461031157806306045a211461032b57806306fdde0314610353578063093220b7146103d0578063095ea7b3146104055780630f7d3a6914610445575b600080fd5b610319610b21565b60408051918252519081900360200190f35b6103516004803603602081101561034157600080fd5b50356001600160a01b0316610b26565b005b61035b610c11565b6040805160208082528351818301528351919283929083019185019080838360005b8381101561039557818101518382015260200161037d565b50505050905090810190601f1680156103c25780820380516001836020036101000a031916815260200191505b509250505060405180910390f35b610351600480360360a08110156103e657600080fd5b5080359060208101359060408101359060608101359060800135610ca7565b6104316004803603604081101561041b57600080fd5b506001600160a01b038135169060200135610e41565b604080519115158252519081900360200190f35b6103516004803603604081101561045b57600080fd5b506001600160a01b038135169060200135610e5f565b610319610f6b565b610319610f7c565b610319610f82565b6103516004803603606081101561049f57600080fd5b6001600160a01b03823516916020810135918101906060810160408201356401000000008111156104cf57600080fd5b8201836020820111156104e157600080fd5b8035906020019184600183028401116401000000008311171561050357600080fd5b509092509050610f88565b6104316004803603602081101561052457600080fd5b50356001600160a01b031661108b565b61053c611098565b604080516001600160a01b039092168252519081900360200190f35b6104316004803603606081101561056e57600080fd5b506001600160a01b038135811691602081013590911690604001356110bc565b610319600480360360408110156105a457600080fd5b506001600160a01b0381358116916020013516611144565b610319600480360360408110156105d257600080fd5b506001600160a01b038135811691602001351661116f565b6103196004803603604081101561060057600080fd5b506001600160a01b038135811691602001351661118c565b6103516004803603602081101561062e57600080fd5b50356111b7565b61063d611530565b6040805160ff9092168252519081900360200190f35b6104316004803603604081101561066957600080fd5b506001600160a01b038135169060200135611539565b6103516004803603604081101561069557600080fd5b506001600160a01b038135169060200135611587565b610319600480360360408110156106c157600080fd5b506001600160a01b03813581169160200135166115e5565b61053c611602565b610319611616565b61053c600480360360208110156106ff57600080fd5b503561161c565b6107326004803603604081101561071c57600080fd5b506001600160a01b038135169060200135611629565b604080519586526020860194909452848401929092526001600160a01b031660608401526080830152519081900360a00190f35b61078c6004803603602081101561077c57600080fd5b50356001600160a01b0316611680565b6040805192835260208301919091528051918290030190f35b610351600480360360208110156107bb57600080fd5b50356116a3565b610351600480360360608110156107d857600080fd5b6001600160a01b038235169160208101359181019060608101604082013564010000000081111561080857600080fd5b82018360208201111561081a57600080fd5b8035906020019184600183028401116401000000008311171561083c57600080fd5b5090925090506118ed565b6103516004803603604081101561085d57600080fd5b50803590602001356001600160a01b03166119ce565b610319611a76565b6103196004803603604081101561089157600080fd5b5080359060200135611a7b565b610319600480360360208110156108b457600080fd5b50356001600160a01b0316611b2f565b610351611b4a565b610351600480360360408110156108e257600080fd5b5080359060200135611bf6565b6103516004803603604081101561090557600080fd5b506001600160a01b0381351690602001351515611f4c565b6103196004803603602081101561093357600080fd5b50356001600160a01b0316612063565b61053c612075565b61035b612084565b6103516004803603604081101561096957600080fd5b506001600160a01b0381351690602001356120e5565b6103516004803603602081101561099557600080fd5b503561213b565b610431600480360360408110156109b257600080fd5b506001600160a01b038135169060200135612197565b610431600480360360408110156109de57600080fd5b506001600160a01b0381351690602001356121ff565b61035160048036036020811015610a0a57600080fd5b5035612213565b61031960048036036020811015610a2757600080fd5b50356001600160a01b031661245e565b61078c60048036036020811015610a4d57600080fd5b50356001600160a01b0316612479565b61035160048036036040811015610a7357600080fd5b506001600160a01b038135169060200135612492565b610319612588565b61073260048036036040811015610aa757600080fd5b506001600160a01b03813516906020013561258e565b61031960048036036040811015610ad357600080fd5b506001600160a01b038135811691602001351661265a565b610319612685565b61031961268b565b61035160048036036020811015610b1157600080fd5b50356001600160a01b0316612691565b60c881565b610b2e6127a8565b6001600160a01b0316610b3f612075565b6001600160a01b031614610b88576040805162461bcd60e51b81526020600482018190526024820152600080516020613c1f833981519152604482015290519081900360640190fd5b6001600160a01b038116610b9c5760006011555b600754604080516001600160a01b0361010090930483168152918316602083015280517f044c75b8fa43ce72364b4c23fdb8451beafbda46505bf44c76f0853a01ed4ade9281900390910190a1600780546001600160a01b0390921661010002610100600160a81b0319909216919091179055565b60058054604080516020601f6002600019610100600188161502019095169490940493840181900481028201810190925282815260609390929091830182828015610c9d5780601f10610c7257610100808354040283529160200191610c9d565b820191906000526020600020905b815481529060010190602001808311610c8057829003601f168201915b5050505050905090565b610caf6127a8565b6001600160a01b0316610cc0612075565b6001600160a01b031614610d09576040805162461bcd60e51b81526020600482018190526024820152600080516020613c1f833981519152604482015290519081900360640190fd5b83851115610d485760405162461bcd60e51b8152600401808060200182810382526028815260200180613ad16028913960400191505060405180910390fd5b818310610d865760405162461bcd60e51b815260040180806020018281038252602b815260200180613af9602b913960400191505060405180910390fd5b60648411158015610d98575060648111155b610dd35760405162461bcd60e51b8152600401808060200182810382526028815260200180613ad16028913960400191505060405180910390fd5b600d859055600e849055600f839055601082905560118190556040805186815260208101869052808201859052606081018490526080810183905290517f5b37d10782e41a6539b50d59366d4112a880236e4187e85b6d1514d20e07d9b89181900360a00190a15050505050565b6000610e55610e4e6127a8565b84846127ac565b5060015b92915050565b610e676127a8565b6001600160a01b0316610e78612075565b6001600160a01b031614610ec1576040805162461bcd60e51b81526020600482018190526024820152600080516020613c1f833981519152604482015290519081900360640190fd5b60c8811115610f17576040805162461bcd60e51b815260206004820152601f60248201527f7570646174654465616c6c6f636174696f6e4665653a20746f6f206869676800604482015290519081900360640190fd5b6001600160a01b0382166000818152600c6020908152604091829020849055815184815291517f6ff024152fc2cd8071bc701f966036513eb03e243863f21d8218646faac0eaef9281900390910190a25050565b6000610f776008612898565b905090565b60045490565b600d5481565b60026001541415610fce576040805162461bcd60e51b815260206004820152601f6024820152600080516020613a47833981519152604482015290519081900360640190fd5b6002600155610fde3385856128a3565b836001600160a01b0316631c75e369338585856040518563ffffffff1660e01b815260040180856001600160a01b03168152602001848152602001806020018281038252848482818152602001925080828437600081840152601f19601f82011690508083019250505095505050505050600060405180830381600087803b15801561106957600080fd5b505af115801561107d573d6000803e3d6000fd5b505060018055505050505050565b6000610e59600883612a5f565b7f000000000000000000000000000000000000000000000000000000000000000081565b60006110c9848484612a74565b611139846110d56127a8565b61113485604051806060016040528060288152602001613bf7602891396001600160a01b038a166000908152600360205260408120906111136127a8565b6001600160a01b031681526020810191909152604001600020549190612bd1565b6127ac565b5060015b9392505050565b6001600160a01b039182166000908152600a6020908152604080832093909416825291909152205490565b600b60209081526000928352604080842090915290825290205481565b6001600160a01b039182166000908152600b6020908152604080832093909416825291909152205490565b600260015414156111fd576040805162461bcd60e51b815260206004820152601f6024820152600080516020613a47833981519152604482015290519081900360640190fd5b600260015533600081815260136020526040902054829081106112515760405162461bcd60e51b815260040180806020018281038252602b815260200180613ca9602b913960400191505060405180910390fd5b33600090815260136020526040812080548590811061126c57fe5b6000918252602090912060059091020160038101546007549192506001600160a01b0390811661010090920416148015906112b6575060075461010090046001600160a01b031615155b15611526576004810154156114a05760038101546004820154604080516000808252602082019283905263549230c960e01b83523360248301818152604484018690526060606485019081528451608486018190526001600160a01b039098169763549230c99793969395949293919260a486019291908190849084905b8381101561134c578181015183820152602001611334565b50505050905090810190601f1680156113795780820380516001836020036101000a031916815260200191505b50945050505050600060405180830381600087803b15801561139a57600080fd5b505af11580156113ae573d6000803e3d6000fd5b505060075460048401546040805160008082526020820192839052631c75e36960e01b83523360248301818152604484018690526060606485019081528451608486018190526101009098046001600160a01b03169950631c75e3699850919693949093919260a4860192908190849084905b83811015611439578181015183820152602001611421565b50505050905090810190601f1680156114665780820380516001836020036101000a031916815260200191505b50945050505050600060405180830381600087803b15801561148757600080fd5b505af115801561149b573d6000803e3d6000fd5b505050505b6003810154600754604080518781526001600160a01b03938416602082015261010090920490921681830152905133917fa60c8f9118be22c9277a8129333d64ffda3de44ca7a5831d077a3127f1237a18919081900360600190a26007546003820180546101009092046001600160a01b03166001600160a01b03199092169190911790555b5050600180555050565b60075460ff1690565b6000610e556115466127a8565b8461113485600360006115576127a8565b6001600160a01b03908116825260208083019390935260409182016000908120918c168152925290205490612c68565b600260015414156115cd576040805162461bcd60e51b815260206004820152601f6024820152600080516020613a47833981519152604482015290519081900360640190fd5b60026001556115dd8233836128a3565b505060018055565b600a60209081526000928352604080842090915290825290205481565b60075461010090046001600160a01b031681565b60115481565b6000610e59600883612cc2565b6013602052816000526040600020818154811061164557600080fd5b600091825260209091206005909102018054600182015460028301546003840154600490940154929550909350916001600160a01b03169085565b6001600160a01b0316600090815260126020526040902080546001909101549091565b600260015414156116e9576040805162461bcd60e51b815260206004820152601f6024820152600080516020613a47833981519152604482015290519081900360640190fd5b6002600155336000818152601360205260409020548290811061173d5760405162461bcd60e51b815260040180806020018281038252602b815260200180613ca9602b913960400191505060405180910390fd5b3360009081526012602090815260408083206013909252822080549192918690811061176557fe5b9060005260206000209060050201905061179081600101548360010154612cce90919063ffffffff16565b82600101819055506117a730338360010154612a74565b60048101541561189f5760038101546004820154604080516000808252602082019283905263549230c960e01b83523360248301818152604484018690526060606485019081528451608486018190526001600160a01b039098169763549230c99793969395949293919260a486019291908190849084905b83811015611838578181015183820152602001611820565b50505050905090810190601f1680156118655780820380516001836020036101000a031916815260200191505b50945050505050600060405180830381600087803b15801561188657600080fd5b505af115801561189a573d6000803e3d6000fd5b505050505b6001810154604080519182525133917f56d7520e387607a8daa892e3fed116badc2a636307bdc794b1c1aed97ae203f4919081900360200190a26118e285612d2b565b505060018055505050565b60026001541415611933576040805162461bcd60e51b815260206004820152601f6024820152600080516020613a47833981519152604482015290519081900360640190fd5b6002600155611943338585612e3b565b836001600160a01b031663549230c9338585856040518563ffffffff1660e01b815260040180856001600160a01b03168152602001848152602001806020018281038252848482818152602001925080828437600081840152601f19601f82011690508083019250505095505050505050600060405180830381600087803b15801561106957600080fd5b60026001541415611a14576040805162461bcd60e51b815260206004820152601f6024820152600080516020613a47833981519152604482015290519081900360640190fd5b6002600155611a2233613050565b611a6c576040805162461bcd60e51b815260206004820152601660248201527518dbdb9d995c9d151bce881b9bdd08185b1b1bddd95960521b604482015290519081900360640190fd5b6115dd8282613056565b606481565b6000600f54821015611a8f57506000610e59565b601054821115611ac057611ab96064611ab3600e548661312e90919063ffffffff16565b90613187565b9050610e59565b6000611b16611b0d611adf600f54601054612cce90919063ffffffff16565b611ab3611af9600d54600e54612cce90919063ffffffff16565b600f54611b07908990612cce565b9061312e565b600d5490612c68565b9050611b276064611ab3868461312e565b949350505050565b6001600160a01b031660009081526002602052604090205490565b611b526127a8565b6001600160a01b0316611b63612075565b6001600160a01b031614611bac576040805162461bcd60e51b81526020600482018190526024820152600080516020613c1f833981519152604482015290519081900360640190fd5b600080546040516001600160a01b03909116907f8be0079c531659141344cd1fd0a4f28419497f9722a3daafe3b4186f6b6457e0908390a3600080546001600160a01b0319169055565b60026001541415611c3c576040805162461bcd60e51b815260206004820152601f6024820152600080516020613a47833981519152604482015290519081900360640190fd5b600260015581611c7d5760405162461bcd60e51b8152600401808060200182810382526021815260200180613b4a6021913960400191505060405180910390fd5b600f54811015611cd4576040805162461bcd60e51b815260206004820152601860248201527f72656465656d3a206475726174696f6e20746f6f206c6f770000000000000000604482015290519081900360640190fd5b611cdf333084612a74565b33600090815260126020526040812090611cf98484611a7b565b6040805186815260208101839052808201869052905191925033917fbd5034ffbd47e4e72a94baa2cdb74c6fad73cb3bcdc13036b72ec8306f5a76469181900360600190a28215611f41576001820154611d539085612c68565b6001830155601154600090611d7090606490611ab390889061312e565b90508015611e855760075461010090046001600160a01b0316631c75e369338360006040519080825280601f01601f191660200182016040528015611dbc576020820181803683370190505b506040518463ffffffff1660e01b815260040180846001600160a01b0316815260200183815260200180602001828103825283818151815260200191508051906020019080838360005b83811015611e1e578181015183820152602001611e06565b50505050905090810190601f168015611e4b5780820380516001836020036101000a031916815260200191505b50945050505050600060405180830381600087803b158015611e6c57600080fd5b505af1158015611e80573d6000803e3d6000fd5b505050505b33600090815260136020908152604091829020825160a081018452858152918201889052918101611ebe87611eb86131ee565b90612c68565b815260075461010090046001600160a01b0390811660208084019190915260409283019590955283546001808201865560009586529486902084516005909202019081559483015193850193909355810151600284015560608101516003840180546001600160a01b031916919093161790915560800151600490910155611526565b6115263385836131f2565b611f546127a8565b6001600160a01b0316611f65612075565b6001600160a01b031614611fae576040805162461bcd60e51b81526020600482018190526024820152600080516020613c1f833981519152604482015290519081900360640190fd5b6001600160a01b038216301415611ff65760405162461bcd60e51b815260040180806020018281038252603a815260200180613d30603a913960400191505060405180910390fd5b801561200d57612007600883612793565b5061201a565b612018600883613305565b505b604080516001600160a01b0384168152821515602082015281517f3a34209cb941a5d23a56dea730a13738454bc7daefd4bb32e8d7df58c1bd920d929181900390910190a15050565b600c6020526000908152604090205481565b6000546001600160a01b031690565b60068054604080516020601f6002600019610100600188161502019095169490940493840181900481028201810190925282815260609390929091830182828015610c9d5780601f10610c7257610100808354040283529160200191610c9d565b6002600154141561212b576040805162461bcd60e51b815260206004820152601f6024820152600080516020613a47833981519152604482015290519081900360640190fd5b60026001556115dd823383612e3b565b60026001541415612181576040805162461bcd60e51b815260206004820152601f6024820152600080516020613a47833981519152604482015290519081900360640190fd5b60026001556121908133613056565b5060018055565b6000610e556121a46127a8565b8461113485604051806060016040528060258152602001613d6a60259139600360006121ce6127a8565b6001600160a01b03908116825260208083019390935260409182016000908120918d16815292529020549190612bd1565b6000610e5561220c6127a8565b8484612a74565b60026001541415612259576040805162461bcd60e51b815260206004820152601f6024820152600080516020613a47833981519152604482015290519081900360640190fd5b600260015533600081815260136020526040902054829081106122ad5760405162461bcd60e51b815260040180806020018281038252602b815260200180613ca9602b913960400191505060405180910390fd5b336000908152601260209081526040808320601390925282208054919291869081106122d557fe5b9060005260206000209060050201905080600201546122f26131ee565b101561232f5760405162461bcd60e51b8152600401808060200182810382526032815260200180613cd46032913960400191505060405180910390fd5b6001808201549083015461234291612cce565b826001018190555061235d33826001015483600001546131f2565b6004810154156124555760038101546004820154604080516000808252602082019283905263549230c960e01b83523360248301818152604484018690526060606485019081528451608486018190526001600160a01b039098169763549230c99793969395949293919260a486019291908190849084905b838110156123ee5781810151838201526020016123d6565b50505050905090810190601f16801561241b5780820380516001836020036101000a031916815260200191505b50945050505050600060405180830381600087803b15801561243c57600080fd5b505af1158015612450573d6000803e3d6000fd5b505050505b6118e285612d2b565b6001600160a01b031660009081526013602052604090205490565b6012602052600090815260409020805460019091015482565b600260015414156124d8576040805162461bcd60e51b815260206004820152601f6024820152600080516020613a47833981519152604482015290519081900360640190fd5b60026001556001600160a01b0382166125225760405162461bcd60e51b8152600401808060200182810382526029815260200180613b8c6029913960400191505060405180910390fd5b336000818152600a602090815260408083206001600160a01b03871680855290835292819020859055805185815290519293927fe75ec259c38e4601f24580968665ec00b21cca4f996689b260ec598aec5c08db929181900390910190a3505060018055565b600f5481565b6001600160a01b03821660009081526013602052604081205481908190819081908790879081106125f05760405162461bcd60e51b815260040180806020018281038252602b815260200180613ca9602b913960400191505060405180910390fd5b6001600160a01b038916600090815260136020526040812080548a90811061261457fe5b600091825260209091206005909102018054600182015460028301546003840154600490940154929e919d509b506001600160a01b039092169950975095505050505050565b6001600160a01b03918216600090815260036020908152604080832093909416825291909152205490565b600e5481565b60105481565b6126996127a8565b6001600160a01b03166126aa612075565b6001600160a01b0316146126f3576040805162461bcd60e51b81526020600482018190526024820152600080516020613c1f833981519152604482015290519081900360640190fd5b6001600160a01b0381166127385760405162461bcd60e51b8152600401808060200182810382526026815260200180613a896026913960400191505060405180910390fd5b600080546040516001600160a01b03808516939216917f8be0079c531659141344cd1fd0a4f28419497f9722a3daafe3b4186f6b6457e091a3600080546001600160a01b0319166001600160a01b0392909216919091179055565b600061113d836001600160a01b03841661331a565b3390565b6001600160a01b0383166127f15760405162461bcd60e51b8152600401808060200182810382526024815260200180613c856024913960400191505060405180910390fd5b6001600160a01b0382166128365760405162461bcd60e51b8152600401808060200182810382526022815260200180613aaf6022913960400191505060405180910390fd5b6001600160a01b03808416600081815260036020908152604080832094871680845294825291829020859055815185815291517f8c5be1e5ebec7d5bd14f71427d1e84f3dd0314c0f7b2291e5b200ac8c7c3b9259281900390910190a3505050565b6000610e5982613364565b600081116128f8576040805162461bcd60e51b815260206004820152601f60248201527f616c6c6f636174653a20616d6f756e742063616e6e6f74206265206e756c6c00604482015290519081900360640190fd5b6001600160a01b038084166000908152601260209081526040808320600a83528184209487168452939091529020548281101561297c576040805162461bcd60e51b815260206004820152601f60248201527f616c6c6f636174653a206e6f6e20617574686f72697a656420616d6f756e7400604482015290519081900360640190fd5b6129868184612cce565b6001600160a01b038087166000818152600a60209081526040808320948a1680845294825280832095909555918152600b825283812092815291905220546129ce9084612c68565b6001600160a01b038087166000908152600b60209081526040808320938916835292905220558154612a009084612c68565b8255612a0d853085612a74565b836001600160a01b0316856001600160a01b03167f5168bfb88d6125d4580e2b91ecb103a730312c3e8b0be9c4031a0fc794e2cd5f856040518082815260200191505060405180910390a35050505050565b600061113d836001600160a01b038416613368565b6001600160a01b038316612ab95760405162461bcd60e51b8152600401808060200182810382526025815260200180613c606025913960400191505060405180910390fd5b6001600160a01b038216612afe5760405162461bcd60e51b8152600401808060200182810382526023815260200180613a246023913960400191505060405180910390fd5b612b09838383613380565b612b4681604051806060016040528060268152602001613b24602691396001600160a01b0386166000908152600260205260409020549190612bd1565b6001600160a01b038085166000908152600260205260408082209390935590841681522054612b759082612c68565b6001600160a01b0380841660008181526002602090815260409182902094909455805185815290519193928716927fddf252ad1be2c89b69c2b068fc378daa952ba7f163c4a11628f55a4df523b3ef92918290030190a3505050565b60008184841115612c605760405162461bcd60e51b81526004018080602001828103825283818151815260200191508051906020019080838360005b83811015612c25578181015183820152602001612c0d565b50505050905090810190601f168015612c525780820380516001836020036101000a031916815260200191505b509250505060405180910390fd5b505050900390565b60008282018381101561113d576040805162461bcd60e51b815260206004820152601b60248201527f536166654d6174683a206164646974696f6e206f766572666c6f770000000000604482015290519081900360640190fd5b600061113d83836133fb565b600082821115612d25576040805162461bcd60e51b815260206004820152601e60248201527f536166654d6174683a207375627472616374696f6e206f766572666c6f770000604482015290519081900360640190fd5b50900390565b33600090815260136020526040902080546000198101908110612d4a57fe5b906000526020600020906005020160136000336001600160a01b03166001600160a01b031681526020019081526020016000208281548110612d8857fe5b600091825260208083208454600590930201918255600180850154908301556002808501549083015560038085015490830180546001600160a01b0319166001600160a01b039092169190911790556004938401549390910192909255338152601390915260409020805480612dfa57fe5b60008281526020812060056000199093019283020181815560018101829055600281018290556003810180546001600160a01b031916905560040155905550565b60008111612e7a5760405162461bcd60e51b8152600401808060200182810382526021815260200180613bb56021913960400191505060405180910390fd5b6001600160a01b038084166000908152600b602090815260408083209386168352929052205481811015612edf5760405162461bcd60e51b8152600401808060200182810382526021815260200180613b6b6021913960400191505060405180910390fd5b612ee98183612cce565b6001600160a01b038086166000908152600b60209081526040808320938816835292815282822093909355600c909252812054612f2f9061271090611ab390869061312e565b6001600160a01b0386166000908152601260205260409020805491925090612f579085612cce565b8155612f6d3087612f688786612cce565b612a74565b7f00000000000000000000000000000000000000000000000000000000000000006001600160a01b03166342966c68836040518263ffffffff1660e01b815260040180828152602001915050600060405180830381600087803b158015612fd357600080fd5b505af1158015612fe7573d6000803e3d6000fd5b50505050612ff5308361345f565b846001600160a01b0316866001600160a01b03167f7d613f7bd1a777aeeefdd38ae61201003086575188df50618d02482220f5c1478685604051808381526020018281526020019250505060405180910390a3505050505050565b3b151590565b816130a8576040805162461bcd60e51b815260206004820152601e60248201527f636f6e766572743a20616d6f756e742063616e6e6f74206265206e756c6c0000604482015290519081900360640190fd5b6130b2818361355b565b604080516001600160a01b038316815260208101849052815133927fccfaeb3043a96a967dc036ab72e078a9632af809671bc2a1ac30a8043645f89e928290030190a261312a6001600160a01b037f00000000000000000000000000000000000000000000000000000000000000001633308561364d565b5050565b60008261313d57506000610e59565b8282028284828161314a57fe5b041461113d5760405162461bcd60e51b8152600401808060200182810382526021815260200180613bd66021913960400191505060405180910390fd5b60008082116131dd576040805162461bcd60e51b815260206004820152601a60248201527f536166654d6174683a206469766973696f6e206279207a65726f000000000000604482015290519081900360640190fd5b8183816131e657fe5b049392505050565b4290565b60006131fe8383612cce565b90506132346001600160a01b037f00000000000000000000000000000000000000000000000000000000000000001685846136ad565b7f00000000000000000000000000000000000000000000000000000000000000006001600160a01b03166342966c68826040518263ffffffff1660e01b815260040180828152602001915050600060405180830381600087803b15801561329a57600080fd5b505af11580156132ae573d6000803e3d6000fd5b505050506132bc308461345f565b604080518481526020810184905281516001600160a01b038716927f0da072ebd7a5649099f43a3776eb0cda17aca79426ee9f28aae203f5dfa04eda928290030190a250505050565b600061113d836001600160a01b0384166136ff565b60006133268383613368565b61335c57508154600181810184556000848152602080822090930184905584548482528286019093526040902091909155610e59565b506000610e59565b5490565b60009081526001919091016020526040902054151590565b6001600160a01b038316158061339c575061339c600884612a5f565b806133ad57506133ad600883612a5f565b6133f6576040805162461bcd60e51b81526020600482015260156024820152741d1c985b9cd9995c8e881b9bdd08185b1b1bddd959605a1b604482015290519081900360640190fd5b505050565b8154600090821061343d5760405162461bcd60e51b8152600401808060200182810382526022815260200180613a026022913960400191505060405180910390fd5b82600001828154811061344c57fe5b9060005260206000200154905092915050565b6001600160a01b0382166134a45760405162461bcd60e51b8152600401808060200182810382526021815260200180613c3f6021913960400191505060405180910390fd5b6134b082600083613380565b6134ed81604051806060016040528060228152602001613a67602291396001600160a01b0385166000908152600260205260409020549190612bd1565b6001600160a01b0383166000908152600260205260409020556004546135139082612cce565b6004556040805182815290516000916001600160a01b038516917fddf252ad1be2c89b69c2b068fc378daa952ba7f163c4a11628f55a4df523b3ef9181900360200190a35050565b6001600160a01b0382166135b6576040805162461bcd60e51b815260206004820152601f60248201527f45524332303a206d696e7420746f20746865207a65726f206164647265737300604482015290519081900360640190fd5b6135c260008383613380565b6004546135cf9082612c68565b6004556001600160a01b0382166000908152600260205260409020546135f59082612c68565b6001600160a01b03831660008181526002602090815260408083209490945583518581529351929391927fddf252ad1be2c89b69c2b068fc378daa952ba7f163c4a11628f55a4df523b3ef9281900390910190a35050565b604080516001600160a01b0380861660248301528416604482015260648082018490528251808303909101815260849091019091526020810180516001600160e01b03166323b872dd60e01b1790526136a79085906137c5565b50505050565b604080516001600160a01b038416602482015260448082018490528251808303909101815260649091019091526020810180516001600160e01b031663a9059cbb60e01b1790526133f69084906137c5565b600081815260018301602052604081205480156137bb578354600019808301919081019060009087908390811061373257fe5b906000526020600020015490508087600001848154811061374f57fe5b60009182526020808320909101929092558281526001898101909252604090209084019055865487908061377f57fe5b60019003818190600052602060002001600090559055866001016000878152602001908152602001600020600090556001945050505050610e59565b6000915050610e59565b600061381a826040518060400160405280602081526020017f5361666545524332303a206c6f772d6c6576656c2063616c6c206661696c6564815250856001600160a01b03166138769092919063ffffffff16565b8051909150156133f65780806020019051602081101561383957600080fd5b50516133f65760405162461bcd60e51b815260040180806020018281038252602a815260200180613d06602a913960400191505060405180910390fd5b6060611b2784846000858561388a85613050565b6138db576040805162461bcd60e51b815260206004820152601d60248201527f416464726573733a2063616c6c20746f206e6f6e2d636f6e7472616374000000604482015290519081900360640190fd5b600080866001600160a01b031685876040518082805190602001908083835b602083106139195780518252601f1990920191602091820191016138fa565b6001836020036101000a03801982511681845116808217855250505050505090500191505060006040518083038185875af1925050503d806000811461397b576040519150601f19603f3d011682016040523d82523d6000602084013e613980565b606091505b509150915061399082828661399b565b979650505050505050565b606083156139aa57508161113d565b8251156139ba5782518084602001fd5b60405162461bcd60e51b8152602060048201818152845160248401528451859391928392604401919085019080838360008315612c25578181015183820152602001612c0d56fe456e756d657261626c655365743a20696e646578206f7574206f6620626f756e647345524332303a207472616e7366657220746f20746865207a65726f20616464726573735265656e7472616e637947756172643a207265656e7472616e742063616c6c0045524332303a206275726e20616d6f756e7420657863656564732062616c616e63654f776e61626c653a206e6577206f776e657220697320746865207a65726f206164647265737345524332303a20617070726f766520746f20746865207a65726f206164647265737375706461746552656465656d53657474696e67733a2077726f6e6720726174696f2076616c75657375706461746552656465656d53657474696e67733a2077726f6e67206475726174696f6e2076616c75657345524332303a207472616e7366657220616d6f756e7420657863656564732062616c616e636572656465656d3a2078417278416d6f756e742063616e6e6f74206265206e756c6c6465616c6c6f636174653a206e6f6e20617574686f72697a656420616d6f756e74617070726f766555736167653a20617070726f766520746f20746865207a65726f20616464726573736465616c6c6f636174653a20616d6f756e742063616e6e6f74206265206e756c6c536166654d6174683a206d756c7469706c69636174696f6e206f766572666c6f7745524332303a207472616e7366657220616d6f756e74206578636565647320616c6c6f77616e63654f776e61626c653a2063616c6c6572206973206e6f7420746865206f776e657245524332303a206275726e2066726f6d20746865207a65726f206164647265737345524332303a207472616e736665722066726f6d20746865207a65726f206164647265737345524332303a20617070726f76652066726f6d20746865207a65726f206164647265737376616c696461746552656465656d3a2072656465656d20656e74727920646f6573206e6f7420657869737466696e616c697a6552656465656d3a2076657374696e67206475726174696f6e20686173206e6f7420656e646564207965745361666545524332303a204552433230206f7065726174696f6e20646964206e6f7420737563636565647570646174655472616e7366657257686974656c6973743a2043616e6e6f742072656d6f766520784172782066726f6d2077686974656c69737445524332303a2064656372656173656420616c6c6f77616e63652062656c6f77207a65726fa26469706673582212204c640c8386b089b17973b7153f4e10d7bb211e1f520796a1aaba2f46196fe74f64736f6c63430007060033",
    "linkReferences": {}
  },
  "methodIdentifiers": {
    "MAX_DEALLOCATION_FEE()": "02f91e55",
    "MAX_FIXED_RATIO()": "619ac95b",
    "allocate(address,uint256,bytes)": "1c75e369",
    "allocateFromUsage(address,uint256)": "3b90f9a0",
    "allowance(address,address)": "dd62ed3e",
    "approve(address,uint256)": "095ea7b3",
    "approveUsage(address,uint256)": "c360ed1c",
    "arxToken()": "23300787",
    "balanceOf(address)": "70a08231",
    "cancelRedeem(uint256)": "539ffb77",
    "convert(uint256)": "a3908e1b",
    "convertTo(uint256,address)": "5a1d34dc",
    "deallocate(address,uint256,bytes)": "549230c9",
    "deallocateFromUsage(address,uint256)": "a0bdc7cb",
    "decimals()": "313ce567",
    "decreaseAllowance(address,uint256)": "a457c2d7",
    "dividendsAddress()": "497965ee",
    "finalizeRedeem(uint256)": "aff6cbf1",
    "getArxByVestingDuration(uint256,uint256)": "640eb7ad",
    "getUsageAllocation(address,address)": "2e9a76e4",
    "getUsageApproval(address,address)": "2b489679",
    "getUserRedeem(address,uint256)": "cc6c5423",
    "getUserRedeemsLength(address)": "b90c2b52",
    "getxArxBalance(address)": "53507405",
    "increaseAllowance(address,uint256)": "39509351",
    "isTransferWhitelisted(address)": "1eee7e60",
    "maxRedeemDuration()": "e9ed87f8",
    "maxRedeemRatio()": "e3a2950b",
    "minRedeemDuration()": "c4b10766",
    "minRedeemRatio()": "1c352679",
    "name()": "06fdde03",
    "owner()": "8da5cb5b",
    "redeem(uint256,uint256)": "7cbc2373",
    "redeemDividendsAdjustment()": "4a5b406e",
    "renounceOwnership()": "715018a6",
    "symbol()": "95d89b41",
    "totalSupply()": "18160ddd",
    "transfer(address,uint256)": "a9059cbb",
    "transferFrom(address,address,uint256)": "23b872dd",
    "transferOwnership(address)": "f2fde38b",
    "transferWhitelist(uint256)": "4b359d38",
    "transferWhitelistLength()": "161aab43",
    "updateDeallocationFee(address,uint256)": "0f7d3a69",
    "updateDividendsAddress(address)": "06045a21",
    "updateRedeemDividendsAddress(uint256)": "31124ce3",
    "updateRedeemSettings(uint256,uint256,uint256,uint256,uint256)": "093220b7",
    "updateTransferWhitelist(address,bool)": "89083654",
    "usageAllocations(address,address)": "2cc2f5ce",
    "usageApprovals(address,address)": "488c8303",
    "usagesDeallocationFee(address)": "8975f918",
    "userRedeems(address,uint256)": "4f62b7ec",
    "xArxBalances(address)": "bbbecfd1"
  },
  "id": 0
}