{
  "abi": [
    {
      "inputs": [
        {
          "internalType": "uint256",
          "name": "maxSupply",
          "type": "uint256"
        },
        {
          "internalType": "uint256",
          "name": "initialSupply",
          "type": "uint256"
        },
        {
          "internalType": "uint256",
          "name": "initialEmissionRate",
          "type": "uint256"
        },
        {
          "internalType": "address",
          "name": "treasury",
          "type": "address"
        }
      ],
      "stateMutability": "nonpayable",
      "type": "constructor"
    },
    {
      "anonymous": false,
      "inputs": [
        {
          "indexed": false,
          "internalType": "uint256",
          "name": "masterShare",
          "type": "uint256"
        },
        {
          "indexed": false,
          "internalType": "uint256",
          "name": "treasuryShare",
          "type": "uint256"
        }
      ],
      "name": "AllocationsDistributed",
      "type": "event"
    },
    {
      "anonymous": false,
      "inputs": [
        {
          "indexed": true,
          "internalType": "address",
          "name": "owner",
          "type": "address"
        },
        {
          "indexed": true,
          "internalType": "address",
          "name": "spender",
          "type": "address"
        },
        {
          "indexed": false,
          "internalType": "uint256",
          "name": "value",
          "type": "uint256"
        }
      ],
      "name": "Approval",
      "type": "event"
    },
    {
      "anonymous": false,
      "inputs": [
        {
          "indexed": false,
          "internalType": "uint256",
          "name": "amount",
          "type": "uint256"
        }
      ],
      "name": "ClaimMasterRewards",
      "type": "event"
    },
    {
      "anonymous": false,
      "inputs": [
        {
          "indexed": false,
          "internalType": "uint256",
          "name": "startTime",
          "type": "uint256"
        }
      ],
      "name": "InitializeEmissionStart",
      "type": "event"
    },
    {
      "anonymous": false,
      "inputs": [
        {
          "indexed": false,
          "internalType": "address",
          "name": "masterAddress",
          "type": "address"
        }
      ],
      "name": "InitializeMasterAddress",
      "type": "event"
    },
    {
      "anonymous": false,
      "inputs": [
        {
          "indexed": true,
          "internalType": "address",
          "name": "previousOwner",
          "type": "address"
        },
        {
          "indexed": true,
          "internalType": "address",
          "name": "newOwner",
          "type": "address"
        }
      ],
      "name": "OwnershipTransferred",
      "type": "event"
    },
    {
      "anonymous": false,
      "inputs": [
        {
          "indexed": true,
          "internalType": "address",
          "name": "from",
          "type": "address"
        },
        {
          "indexed": true,
          "internalType": "address",
          "name": "to",
          "type": "address"
        },
        {
          "indexed": false,
          "internalType": "uint256",
          "name": "value",
          "type": "uint256"
        }
      ],
      "name": "Transfer",
      "type": "event"
    },
    {
      "anonymous": false,
      "inputs": [
        {
          "indexed": false,
          "internalType": "uint256",
          "name": "farmingAllocation",
          "type": "uint256"
        },
        {
          "indexed": false,
          "internalType": "uint256",
          "name": "treasuryAllocation",
          "type": "uint256"
        }
      ],
      "name": "UpdateAllocations",
      "type": "event"
    },
    {
      "anonymous": false,
      "inputs": [
        {
          "indexed": false,
          "internalType": "uint256",
          "name": "previousEmissionRate",
          "type": "uint256"
        },
        {
          "indexed": false,
          "internalType": "uint256",
          "name": "newEmissionRate",
          "type": "uint256"
        }
      ],
      "name": "UpdateEmissionRate",
      "type": "event"
    },
    {
      "anonymous": false,
      "inputs": [
        {
          "indexed": false,
          "internalType": "uint256",
          "name": "previousMaxSupply",
          "type": "uint256"
        },
        {
          "indexed": false,
          "internalType": "uint256",
          "name": "newMaxSupply",
          "type": "uint256"
        }
      ],
      "name": "UpdateMaxSupply",
      "type": "event"
    },
    {
      "anonymous": false,
      "inputs": [
        {
          "indexed": false,
          "internalType": "address",
          "name": "previousTreasuryAddress",
          "type": "address"
        },
        {
          "indexed": false,
          "internalType": "address",
          "name": "newTreasuryAddress",
          "type": "address"
        }
      ],
      "name": "UpdateTreasuryAddress",
      "type": "event"
    },
    {
      "inputs": [],
      "name": "ALLOCATION_PRECISION",
      "outputs": [
        {
          "internalType": "uint256",
          "name": "",
          "type": "uint256"
        }
      ],
      "stateMutability": "view",
      "type": "function"
    },
    {
      "inputs": [],
      "name": "BURN_ADDRESS",
      "outputs": [
        {
          "internalType": "address",
          "name": "",
          "type": "address"
        }
      ],
      "stateMutability": "view",
      "type": "function"
    },
    {
      "inputs": [],
      "name": "MAX_SUPPLY_LIMIT",
      "outputs": [
        {
          "internalType": "uint256",
          "name": "",
          "type": "uint256"
        }
      ],
      "stateMutability": "view",
      "type": "function"
    },
    {
      "inputs": [
        {
          "internalType": "address",
          "name": "owner",
          "type": "address"
        },
        {
          "internalType": "address",
          "name": "spender",
          "type": "address"
        }
      ],
      "name": "allowance",
      "outputs": [
        {
          "internalType": "uint256",
          "name": "",
          "type": "uint256"
        }
      ],
      "stateMutability": "view",
      "type": "function"
    },
    {
      "inputs": [
        {
          "internalType": "address",
          "name": "spender",
          "type": "address"
        },
        {
          "internalType": "uint256",
          "name": "amount",
          "type": "uint256"
        }
      ],
      "name": "approve",
      "outputs": [
        {
          "internalType": "bool",
          "name": "",
          "type": "bool"
        }
      ],
      "stateMutability": "nonpayable",
      "type": "function"
    },
    {
      "inputs": [
        {
          "internalType": "address",
          "name": "account",
          "type": "address"
        }
      ],
      "name": "balanceOf",
      "outputs": [
        {
          "internalType": "uint256",
          "name": "",
          "type": "uint256"
        }
      ],
      "stateMutability": "view",
      "type": "function"
    },
    {
      "inputs": [
        {
          "internalType": "uint256",
          "name": "amount",
          "type": "uint256"
        }
      ],
      "name": "burn",
      "outputs": [],
      "stateMutability": "nonpayable",
      "type": "function"
    },
    {
      "inputs": [
        {
          "internalType": "uint256",
          "name": "amount",
          "type": "uint256"
        }
      ],
      "name": "claimMasterRewards",
      "outputs": [
        {
          "internalType": "uint256",
          "name": "effectiveAmount",
          "type": "uint256"
        }
      ],
      "stateMutability": "nonpayable",
      "type": "function"
    },
    {
      "inputs": [],
      "name": "decimals",
      "outputs": [
        {
          "internalType": "uint8",
          "name": "",
          "type": "uint8"
        }
      ],
      "stateMutability": "view",
      "type": "function"
    },
    {
      "inputs": [
        {
          "internalType": "address",
          "name": "spender",
          "type": "address"
        },
        {
          "internalType": "uint256",
          "name": "subtractedValue",
          "type": "uint256"
        }
      ],
      "name": "decreaseAllowance",
      "outputs": [
        {
          "internalType": "bool",
          "name": "",
          "type": "bool"
        }
      ],
      "stateMutability": "nonpayable",
      "type": "function"
    },
    {
      "inputs": [],
      "name": "elasticMaxSupply",
      "outputs": [
        {
          "internalType": "uint256",
          "name": "",
          "type": "uint256"
        }
      ],
      "stateMutability": "view",
      "type": "function"
    },
    {
      "inputs": [],
      "name": "emissionRate",
      "outputs": [
        {
          "internalType": "uint256",
          "name": "",
          "type": "uint256"
        }
      ],
      "stateMutability": "view",
      "type": "function"
    },
    {
      "inputs": [],
      "name": "emitAllocations",
      "outputs": [],
      "stateMutability": "nonpayable",
      "type": "function"
    },
    {
      "inputs": [],
      "name": "farmingAllocation",
      "outputs": [
        {
          "internalType": "uint256",
          "name": "",
          "type": "uint256"
        }
      ],
      "stateMutability": "view",
      "type": "function"
    },
    {
      "inputs": [
        {
          "internalType": "address",
          "name": "spender",
          "type": "address"
        },
        {
          "internalType": "uint256",
          "name": "addedValue",
          "type": "uint256"
        }
      ],
      "name": "increaseAllowance",
      "outputs": [
        {
          "internalType": "bool",
          "name": "",
          "type": "bool"
        }
      ],
      "stateMutability": "nonpayable",
      "type": "function"
    },
    {
      "inputs": [
        {
          "internalType": "uint256",
          "name": "startTime",
          "type": "uint256"
        }
      ],
      "name": "initializeEmissionStart",
      "outputs": [],
      "stateMutability": "nonpayable",
      "type": "function"
    },
    {
      "inputs": [
        {
          "internalType": "address",
          "name": "masterAddress_",
          "type": "address"
        }
      ],
      "name": "initializeMasterAddress",
      "outputs": [],
      "stateMutability": "nonpayable",
      "type": "function"
    },
    {
      "inputs": [],
      "name": "lastEmissionTime",
      "outputs": [
        {
          "internalType": "uint256",
          "name": "",
          "type": "uint256"
        }
      ],
      "stateMutability": "view",
      "type": "function"
    },
    {
      "inputs": [],
      "name": "masterAddress",
      "outputs": [
        {
          "internalType": "address",
          "name": "",
          "type": "address"
        }
      ],
      "stateMutability": "view",
      "type": "function"
    },
    {
      "inputs": [],
      "name": "masterAllocation",
      "outputs": [
        {
          "internalType": "uint256",
          "name": "",
          "type": "uint256"
        }
      ],
      "stateMutability": "view",
      "type": "function"
    },
    {
      "inputs": [],
      "name": "masterEmissionRate",
      "outputs": [
        {
          "internalType": "uint256",
          "name": "",
          "type": "uint256"
        }
      ],
      "stateMutability": "view",
      "type": "function"
    },
    {
      "inputs": [],
      "name": "masterReserve",
      "outputs": [
        {
          "internalType": "uint256",
          "name": "",
          "type": "uint256"
        }
      ],
      "stateMutability": "view",
      "type": "function"
    },
    {
      "inputs": [],
      "name": "name",
      "outputs": [
        {
          "internalType": "string",
          "name": "",
          "type": "string"
        }
      ],
      "stateMutability": "view",
      "type": "function"
    },
    {
      "inputs": [],
      "name": "owner",
      "outputs": [
        {
          "internalType": "address",
          "name": "",
          "type": "address"
        }
      ],
      "stateMutability": "view",
      "type": "function"
    },
    {
      "inputs": [],
      "name": "renounceOwnership",
      "outputs": [],
      "stateMutability": "nonpayable",
      "type": "function"
    },
    {
      "inputs": [],
      "name": "symbol",
      "outputs": [
        {
          "internalType": "string",
          "name": "",
          "type": "string"
        }
      ],
      "stateMutability": "view",
      "type": "function"
    },
    {
      "inputs": [],
      "name": "totalSupply",
      "outputs": [
        {
          "internalType": "uint256",
          "name": "",
          "type": "uint256"
        }
      ],
      "stateMutability": "view",
      "type": "function"
    },
    {
      "inputs": [
        {
          "internalType": "address",
          "name": "recipient",
          "type": "address"
        },
        {
          "internalType": "uint256",
          "name": "amount",
          "type": "uint256"
        }
      ],
      "name": "transfer",
      "outputs": [
        {
          "internalType": "bool",
          "name": "",
          "type": "bool"
        }
      ],
      "stateMutability": "nonpayable",
      "type": "function"
    },
    {
      "inputs": [
        {
          "internalType": "address",
          "name": "sender",
          "type": "address"
        },
        {
          "internalType": "address",
          "name": "recipient",
          "type": "address"
        },
        {
          "internalType": "uint256",
          "name": "amount",
          "type": "uint256"
        }
      ],
      "name": "transferFrom",
      "outputs": [
        {
          "internalType": "bool",
          "name": "",
          "type": "bool"
        }
      ],
      "stateMutability": "nonpayable",
      "type": "function"
    },
    {
      "inputs": [
        {
          "internalType": "address",
          "name": "newOwner",
          "type": "address"
        }
      ],
      "name": "transferOwnership",
      "outputs": [],
      "stateMutability": "nonpayable",
      "type": "function"
    },
    {
      "inputs": [],
      "name": "treasuryAddress",
      "outputs": [
        {
          "internalType": "address",
          "name": "",
          "type": "address"
        }
      ],
      "stateMutability": "view",
      "type": "function"
    },
    {
      "inputs": [],
      "name": "treasuryAllocation",
      "outputs": [
        {
          "internalType": "uint256",
          "name": "",
          "type": "uint256"
        }
      ],
      "stateMutability": "view",
      "type": "function"
    },
    {
      "inputs": [
        {
          "internalType": "uint256",
          "name": "farmingAllocation_",
          "type": "uint256"
        }
      ],
      "name": "updateAllocations",
      "outputs": [],
      "stateMutability": "nonpayable",
      "type": "function"
    },
    {
      "inputs": [
        {
          "internalType": "uint256",
          "name": "emissionRate_",
          "type": "uint256"
        }
      ],
      "name": "updateEmissionRate",
      "outputs": [],
      "stateMutability": "nonpayable",
      "type": "function"
    },
    {
      "inputs": [
        {
          "internalType": "uint256",
          "name": "maxSupply",
          "type": "uint256"
        }
      ],
      "name": "updateMaxSupply",
      "outputs": [],
      "stateMutability": "nonpayable",
      "type": "function"
    },
    {
      "inputs": [
        {
          "internalType": "address",
          "name": "treasury",
          "type": "address"
        }
      ],
      "name": "updateTreasuryAddress",
      "outputs": [],
      "stateMutability": "nonpayable",
      "type": "function"
    }
  ],
  "bytecode": {
    "object": "0x60806040526032600b553480156200001657600080fd5b50604051620020ad380380620020ad833981810160405260808110156200003c57600080fd5b508051602080830151604080850151606090950151815180830183526005815264084c2e6cab60db1b8186015282518084019093526003835262084a6b60eb1b948301949094529394919391929060006200009662000268565b600080546001600160a01b0319166001600160a01b0383169081178255604051929350917f8be0079c531659141344cd1fd0a4f28419497f9722a3daafe3b4186f6b6457e0908290a3508151620000f5906004906020850190620003e6565b5080516200010b906005906020840190620003e6565b50506006805460ff19166012179055506a084595161401484a0000008411156200017c576040805162461bcd60e51b815260206004820152601960248201527f696e76616c696420696e697469616c206d6178537570706c7900000000000000604482015290519081900360640190fd5b838310620001d1576040805162461bcd60e51b815260206004820152601660248201527f696e76616c696420696e697469616c20737570706c7900000000000000000000604482015290519081900360640190fd5b6001600160a01b0381166200022d576040805162461bcd60e51b815260206004820152601860248201527f696e76616c696420747265617375727920616464726573730000000000000000604482015290519081900360640190fd5b60078490556008829055600d80546001600160a01b0319166001600160a01b0383161790556200025e81846200026c565b5050505062000492565b3390565b6001600160a01b038216620002c8576040805162461bcd60e51b815260206004820152601f60248201527f45524332303a206d696e7420746f20746865207a65726f206164647265737300604482015290519081900360640190fd5b620002d6600083836200037f565b620002f2816003546200038460201b620013741790919060201c565b6003556001600160a01b038216600090815260016020908152604090912054620003279183906200137462000384821b17901c565b6001600160a01b03831660008181526001602090815260408083209490945583518581529351929391927fddf252ad1be2c89b69c2b068fc378daa952ba7f163c4a11628f55a4df523b3ef9281900390910190a35050565b505050565b600082820183811015620003df576040805162461bcd60e51b815260206004820152601b60248201527f536166654d6174683a206164646974696f6e206f766572666c6f770000000000604482015290519081900360640190fd5b9392505050565b828054600181600116156101000203166002900490600052602060002090601f0160209004810192826200041e576000855562000469565b82601f106200043957805160ff191683800117855562000469565b8280016001018555821562000469579182015b82811115620004695782518255916020019190600101906200044c565b50620004779291506200047b565b5090565b5b808211156200047757600081556001016200047c565b611c0b80620004a26000396000f3fe608060405234801561001057600080fd5b506004361061021b5760003560e01c8063841e456111610125578063c68bb4c5116100ad578063ed424fd01161007c578063ed424fd014610579578063f103b43314610581578063f2fde38b1461059e578063fc1852fb146105c4578063fccc2813146105e15761021b565b8063c68bb4c514610533578063d365a08e1461053b578063dd62ed3e14610543578063e4ef9dce146105715761021b565b806395d89b41116100f457806395d89b41146104c357806396afc450146104cb578063a457c2d7146104d3578063a9059cbb146104ff578063c5f956af1461052b5761021b565b8063841e4561146104545780638c5624571461047a5780638da5cb5b146104975780638f88bba3146104bb5761021b565b806339eb4189116101a8578063617d112611610177578063617d1126146103db57806367c0f278146103e357806370a0823114610409578063715018a61461042f57806378135705146104375761021b565b806339eb4189146103a657806342966c68146103ae578063439af45e146103cb5780634f3147ba146103d35761021b565b806318160ddd116101ef57806318160ddd1461031657806323b872dd1461031e57806327dede2d14610354578063313ce5671461035c578063395093511461037a5761021b565b80624fbf6b1461022057806306fdde031461023a578063095ea7b3146102b75780630ba84cd2146102f7575b600080fd5b6102286105e9565b60408051918252519081900360200190f35b6102426105ee565b6040805160208082528351818301528351919283929083019185019080838360005b8381101561027c578181015183820152602001610264565b50505050905090810190601f1680156102a95780820380516001836020036101000a031916815260200191505b509250505060405180910390f35b6102e3600480360360408110156102cd57600080fd5b506001600160a01b038135169060200135610684565b604080519115158252519081900360200190f35b6103146004803603602081101561030d57600080fd5b50356106a2565b005b61022861074e565b6102e36004803603606081101561033457600080fd5b506001600160a01b03813581169160208101359091169060400135610754565b6102286107db565b6103646107e1565b6040805160ff9092168252519081900360200190f35b6102e36004803603604081101561039057600080fd5b506001600160a01b0381351690602001356107ea565b610228610838565b610314600480360360208110156103c457600080fd5b5035610861565b610228610871565b610228610877565b61022861088c565b610314600480360360208110156103f957600080fd5b50356001600160a01b031661089b565b6102286004803603602081101561041f57600080fd5b50356001600160a01b03166109de565b6103146109fd565b6102286004803603602081101561044d57600080fd5b5035610aa9565b6103146004803603602081101561046a57600080fd5b50356001600160a01b0316610b75565b6103146004803603602081101561049057600080fd5b5035610c86565b61049f610d7c565b604080516001600160a01b039092168252519081900360200190f35b610228610d8b565b610242610d91565b610228610df2565b6102e3600480360360408110156104e957600080fd5b506001600160a01b038135169060200135610df8565b6102e36004803603604081101561051557600080fd5b506001600160a01b038135169060200135610e60565b61049f610e74565b610228610e83565b61049f610e89565b6102286004803603604081101561055957600080fd5b506001600160a01b0381358116916020013516610e98565b610314610ec3565b610228610ffb565b6103146004803603602081101561059757600080fd5b5035611001565b610314600480360360208110156105b457600080fd5b50356001600160a01b0316611135565b610314600480360360208110156105da57600080fd5b5035611237565b61049f61136e565b606481565b60048054604080516020601f600260001961010060018816150201909516949094049384018190048102820181019092528281526060939092909183018282801561067a5780601f1061064f5761010080835404028352916020019161067a565b820191906000526020600020905b81548152906001019060200180831161065d57829003601f168201915b5050505050905090565b60006106986106916113d5565b84846113d9565b5060015b92915050565b6106aa6113d5565b6001600160a01b03166106bb610d7c565b6001600160a01b031614610704576040805162461bcd60e51b81526020600482018190526024820152600080516020611a84833981519152604482015290519081900360640190fd5b61070c610ec3565b600854604080519182526020820183905280517f16b9091836a63537907593ebc3a80f3528891f3575b10f58ad7dd9c29fd0d44f9281900390910190a1600855565b60035490565b60006107618484846114c5565b6107d18461076d6113d5565b6107cc85604051806060016040528060288152602001611a5c602891396001600160a01b038a166000908152600260205260408120906107ab6113d5565b6001600160a01b031681526020810191909152604001600020549190611622565b6113d9565b5060019392505050565b600a5481565b60065460ff1690565b60006106986107f76113d5565b846107cc85600260006108086113d5565b6001600160a01b03908116825260208083019390935260409182016000908120918c168152925290205490611374565b600061085c6064610856600b546008546116b990919063ffffffff16565b90611712565b905090565b61086e3361dead836114c5565b50565b60095481565b600061085c610884610e83565b606490611779565b6a084595161401484a00000081565b6108a36113d5565b6001600160a01b03166108b4610d7c565b6001600160a01b0316146108fd576040805162461bcd60e51b81526020600482018190526024820152600080516020611a84833981519152604482015290519081900360640190fd5b600c546001600160a01b0316156109455760405162461bcd60e51b8152600401808060200182810382526033815260200180611b1c6033913960400191505060405180910390fd5b6001600160a01b03811661098a5760405162461bcd60e51b815260040180806020018281038252603b815260200180611a00603b913960400191505060405180910390fd5b600c80546001600160a01b0383166001600160a01b0319909116811790915560408051918252517fcba13eb1e65d2c1588ce6d10f862f4535cc67855c3f31e3d2732f8fb6b5317b29181900360200190a150565b6001600160a01b0381166000908152600160205260409020545b919050565b610a056113d5565b6001600160a01b0316610a16610d7c565b6001600160a01b031614610a5f576040805162461bcd60e51b81526020600482018190526024820152600080516020611a84833981519152604482015290519081900360640190fd5b600080546040516001600160a01b03909116907f8be0079c531659141344cd1fd0a4f28419497f9722a3daafe3b4186f6b6457e0908390a3600080546001600160a01b0319169055565b600c546000906001600160a01b03163314610af55760405162461bcd60e51b8152600401808060200182810382526027815260200180611baf6027913960400191505060405180910390fd5b610afd610ec3565b610b09600a54836117d6565b905080610b15576109f8565b600a54610b229082611779565b600a55600c54610b3d9030906001600160a01b0316836114c5565b6040805182815290517f45102e9ef2c4f14fd9f3e8510c4bb2ad67fe498584602f26647da23039f125319181900360200190a1919050565b610b7d6113d5565b6001600160a01b0316610b8e610d7c565b6001600160a01b031614610bd7576040805162461bcd60e51b81526020600482018190526024820152600080516020611a84833981519152604482015290519081900360640190fd5b6001600160a01b038116610c1c5760405162461bcd60e51b815260040180806020018281038252602681526020018061199b6026913960400191505060405180910390fd5b600d54604080516001600160a01b039283168152918316602083015280517f5634a90413b79beba6c5f37aa8f19d1aee84a5320ff20ac7bd1ac63280867d5c9281900390910190a1600d80546001600160a01b0319166001600160a01b0392909216919091179055565b610c8e6113d5565b6001600160a01b0316610c9f610d7c565b6001600160a01b031614610ce8576040805162461bcd60e51b81526020600482018190526024820152600080516020611a84833981519152604482015290519081900360640190fd5b610cf0610ec3565b806064811115610d315760405162461bcd60e51b815260040180806020018281038252602f815260200180611ac9602f913960400191505060405180910390fd5b600b8290557fb1bc322c959dd23e6f87515e39a687bed073fbe1e93bd977fe8ecae3852c14ba82610d60610877565b6040805192835260208301919091528051918290030190a15050565b6000546001600160a01b031690565b600b5481565b60058054604080516020601f600260001961010060018816150201909516949094049384018190048102820181019092528281526060939092909183018282801561067a5780601f1061064f5761010080835404028352916020019161067a565b60085481565b6000610698610e056113d5565b846107cc85604051806060016040528060258152602001611b8a6025913960026000610e2f6113d5565b6001600160a01b03908116825260208083019390935260409182016000908120918d16815292529020549190611622565b6000610698610e6d6113d5565b84846114c5565b600d546001600160a01b031681565b600b5490565b600c546001600160a01b031681565b6001600160a01b03918216600090815260026020908152604080832093909416825291909152205490565b6000610ecd61074e565b90506000610ed96117ec565b600954600754919250908183111580610ef0575081155b15610efe5750505050610ff9565b8381111580610f0d5750600854155b15610f1d57505060095550610ff9565b600854600090610f3790610f318686611779565b906116b9565b9050610f438582611374565b821015610f5757610f548286611779565b90505b6000610f706064610856610f69610e83565b85906116b9565b90506000610f7e8383611779565b6009879055600a54909150610f939083611374565b600a55610fa030836117f0565b600d54610fb6906001600160a01b0316826117f0565b604080518381526020810183905281517f26c155e7637ca49a34c19c7f8cb8533322897de0808134df1a98f71557111684929181900390910190a1505050505050505b565b60075481565b6110096113d5565b6001600160a01b031661101a610d7c565b6001600160a01b031614611063576040805162461bcd60e51b81526020600482018190526024820152600080516020611a84833981519152604482015290519081900360640190fd5b61106b61074e565b8110156110a95760405162461bcd60e51b815260040180806020018281038252603f8152602001806119c1603f913960400191505060405180910390fd5b6a084595161401484a0000008111156110f35760405162461bcd60e51b81526004018080602001828103825260228152602001806119536022913960400191505060405180910390fd5b600754604080519182526020820183905280517f6a84334bf6663b783f2bbfcaf459b2cbc73570cf346a46d9e6a0f290fcf3ebfc9281900390910190a1600755565b61113d6113d5565b6001600160a01b031661114e610d7c565b6001600160a01b031614611197576040805162461bcd60e51b81526020600482018190526024820152600080516020611a84833981519152604482015290519081900360640190fd5b6001600160a01b0381166111dc5760405162461bcd60e51b815260040180806020018281038252602681526020018061190b6026913960400191505060405180910390fd5b600080546040516001600160a01b03808516939216917f8be0079c531659141344cd1fd0a4f28419497f9722a3daafe3b4186f6b6457e091a3600080546001600160a01b0319166001600160a01b0392909216919091179055565b61123f6113d5565b6001600160a01b0316611250610d7c565b6001600160a01b031614611299576040805162461bcd60e51b81526020600482018190526024820152600080516020611a84833981519152604482015290519081900360640190fd5b600954156112d85760405162461bcd60e51b815260040180806020018281038252603b815260200180611b4f603b913960400191505060405180910390fd5b806112e16117ec565b10611333576040805162461bcd60e51b815260206004820181905260248201527f696e697469616c697a65456d697373696f6e53746172743a20696e76616c6964604482015290519081900360640190fd5b60098190556040805182815290517f10e116be9bb4f621259f592ccd7e00d783e796535f2a5f3bc91a79da0fc3456d9181900360200190a150565b61dead81565b6000828201838110156113ce576040805162461bcd60e51b815260206004820152601b60248201527f536166654d6174683a206164646974696f6e206f766572666c6f770000000000604482015290519081900360640190fd5b9392505050565b3390565b6001600160a01b03831661141e5760405162461bcd60e51b8152600401808060200182810382526024815260200180611af86024913960400191505060405180910390fd5b6001600160a01b0382166114635760405162461bcd60e51b81526004018080602001828103825260228152602001806119316022913960400191505060405180910390fd5b6001600160a01b03808416600081815260026020908152604080832094871680845294825291829020859055815185815291517f8c5be1e5ebec7d5bd14f71427d1e84f3dd0314c0f7b2291e5b200ac8c7c3b9259281900390910190a3505050565b6001600160a01b03831661150a5760405162461bcd60e51b8152600401808060200182810382526025815260200180611aa46025913960400191505060405180910390fd5b6001600160a01b03821661154f5760405162461bcd60e51b81526004018080602001828103825260238152602001806118e86023913960400191505060405180910390fd5b61155a8383836118e2565b61159781604051806060016040528060268152602001611975602691396001600160a01b0386166000908152600160205260409020549190611622565b6001600160a01b0380851660009081526001602052604080822093909355908416815220546115c69082611374565b6001600160a01b0380841660008181526001602090815260409182902094909455805185815290519193928716927fddf252ad1be2c89b69c2b068fc378daa952ba7f163c4a11628f55a4df523b3ef92918290030190a3505050565b600081848411156116b15760405162461bcd60e51b81526004018080602001828103825283818151815260200191508051906020019080838360005b8381101561167657818101518382015260200161165e565b50505050905090810190601f1680156116a35780820380516001836020036101000a031916815260200191505b509250505060405180910390fd5b505050900390565b6000826116c85750600061069c565b828202828482816116d557fe5b04146113ce5760405162461bcd60e51b8152600401808060200182810382526021815260200180611a3b6021913960400191505060405180910390fd5b6000808211611768576040805162461bcd60e51b815260206004820152601a60248201527f536166654d6174683a206469766973696f6e206279207a65726f000000000000604482015290519081900360640190fd5b81838161177157fe5b049392505050565b6000828211156117d0576040805162461bcd60e51b815260206004820152601e60248201527f536166654d6174683a207375627472616374696f6e206f766572666c6f770000604482015290519081900360640190fd5b50900390565b60008183106117e557816113ce565b5090919050565b4290565b6001600160a01b03821661184b576040805162461bcd60e51b815260206004820152601f60248201527f45524332303a206d696e7420746f20746865207a65726f206164647265737300604482015290519081900360640190fd5b611857600083836118e2565b6003546118649082611374565b6003556001600160a01b03821660009081526001602052604090205461188a9082611374565b6001600160a01b03831660008181526001602090815260408083209490945583518581529351929391927fddf252ad1be2c89b69c2b068fc378daa952ba7f163c4a11628f55a4df523b3ef9281900390910190a35050565b50505056fe45524332303a207472616e7366657220746f20746865207a65726f20616464726573734f776e61626c653a206e6577206f776e657220697320746865207a65726f206164647265737345524332303a20617070726f766520746f20746865207a65726f20616464726573737570646174654d6178537570706c793a20696e76616c6964206d6178537570706c7945524332303a207472616e7366657220616d6f756e7420657863656564732062616c616e63657570646174655472656173757279416464726573733a20696e76616c696420616464726573737570646174654d6178537570706c793a2063616e2774206265206c6f776572207468616e2063757272656e742063697263756c6174696e6720737570706c79696e697469616c697a654d6173746572416464726573733a206d617374657220696e697469616c697a656420746f207a65726f2061646472657373536166654d6174683a206d756c7469706c69636174696f6e206f766572666c6f7745524332303a207472616e7366657220616d6f756e74206578636565647320616c6c6f77616e63654f776e61626c653a2063616c6c6572206973206e6f7420746865206f776e657245524332303a207472616e736665722066726f6d20746865207a65726f2061646472657373757064617465416c6c6f636174696f6e733a20746f74616c20616c6c6f636174696f6e20697320746f6f206869676845524332303a20617070726f76652066726f6d20746865207a65726f2061646472657373696e697469616c697a654d6173746572416464726573733a206d617374657220616c726561647920696e697469616c697a6564696e697469616c697a65456d697373696f6e53746172743a20656d697373696f6e20737461727420616c726561647920696e697469616c697a656445524332303a2064656372656173656420616c6c6f77616e63652062656c6f77207a65726f50726f746f636f6c546f6b656e3a2063616c6c6572206973206e6f7420746865206d6173746572a264697066735822122016a0460579bfd611c498025cce35be3ffa5381eecc9e7ea81b0dddd595132d6864736f6c63430007060033",
    "linkReferences": {}
  },
  "methodIdentifiers": {
    "ALLOCATION_PRECISION()": "004fbf6b",
    "BURN_ADDRESS()": "fccc2813",
    "MAX_SUPPLY_LIMIT()": "617d1126",
    "allowance(address,address)": "dd62ed3e",
    "approve(address,uint256)": "095ea7b3",
    "balanceOf(address)": "70a08231",
    "burn(uint256)": "42966c68",
    "claimMasterRewards(uint256)": "78135705",
    "decimals()": "313ce567",
    "decreaseAllowance(address,uint256)": "a457c2d7",
    "elasticMaxSupply()": "ed424fd0",
    "emissionRate()": "96afc450",
    "emitAllocations()": "e4ef9dce",
    "farmingAllocation()": "8f88bba3",
    "increaseAllowance(address,uint256)": "39509351",
    "initializeEmissionStart(uint256)": "fc1852fb",
    "initializeMasterAddress(address)": "67c0f278",
    "lastEmissionTime()": "439af45e",
    "masterAddress()": "d365a08e",
    "masterAllocation()": "c68bb4c5",
    "masterEmissionRate()": "39eb4189",
    "masterReserve()": "27dede2d",
    "name()": "06fdde03",
    "owner()": "8da5cb5b",
    "renounceOwnership()": "715018a6",
    "symbol()": "95d89b41",
    "totalSupply()": "18160ddd",
    "transfer(address,uint256)": "a9059cbb",
    "transferFrom(address,address,uint256)": "23b872dd",
    "transferOwnership(address)": "f2fde38b",
    "treasuryAddress()": "c5f956af",
    "treasuryAllocation()": "4f3147ba",
    "updateAllocations(uint256)": "8c562457",
    "updateEmissionRate(uint256)": "0ba84cd2",
    "updateMaxSupply(uint256)": "f103b433",
    "updateTreasuryAddress(address)": "841e4561"
  },
  "id": 0
}