{
  "abi": [
    {
      "inputs": [],
      "stateMutability": "nonpayable",
      "type": "constructor"
    },
    {
      "anonymous": false,
      "inputs": [
        {
          "indexed": false,
          "internalType": "uint8",
          "name": "version",
          "type": "uint8"
        }
      ],
      "name": "Initialized",
      "type": "event"
    },
    {
      "anonymous": false,
      "inputs": [
        {
          "indexed": false,
          "internalType": "address",
          "name": "token",
          "type": "address"
        },
        {
          "indexed": false,
          "internalType": "uint256",
          "name": "sharesPerSecond",
          "type": "uint256"
        }
      ],
      "name": "RewardTokenAdded",
      "type": "event"
    },
    {
      "anonymous": false,
      "inputs": [
        {
          "indexed": false,
          "internalType": "address",
          "name": "token",
          "type": "address"
        },
        {
          "indexed": false,
          "internalType": "uint256",
          "name": "amount",
          "type": "uint256"
        },
        {
          "indexed": false,
          "internalType": "uint256",
          "name": "tokenId",
          "type": "uint256"
        }
      ],
      "name": "RewardTokenHarvested",
      "type": "event"
    },
    {
      "anonymous": false,
      "inputs": [
        {
          "indexed": false,
          "internalType": "address",
          "name": "token",
          "type": "address"
        }
      ],
      "name": "RewardTokenRemoved",
      "type": "event"
    },
    {
      "anonymous": false,
      "inputs": [
        {
          "indexed": false,
          "internalType": "address",
          "name": "token",
          "type": "address"
        },
        {
          "indexed": false,
          "internalType": "uint256",
          "name": "sharesPerSecond",
          "type": "uint256"
        }
      ],
      "name": "RewardTokenUpdated",
      "type": "event"
    },
    {
      "anonymous": false,
      "inputs": [
        {
          "indexed": true,
          "internalType": "bytes32",
          "name": "role",
          "type": "bytes32"
        },
        {
          "indexed": true,
          "internalType": "bytes32",
          "name": "previousAdminRole",
          "type": "bytes32"
        },
        {
          "indexed": true,
          "internalType": "bytes32",
          "name": "newAdminRole",
          "type": "bytes32"
        }
      ],
      "name": "RoleAdminChanged",
      "type": "event"
    },
    {
      "anonymous": false,
      "inputs": [
        {
          "indexed": true,
          "internalType": "bytes32",
          "name": "role",
          "type": "bytes32"
        },
        {
          "indexed": true,
          "internalType": "address",
          "name": "account",
          "type": "address"
        },
        {
          "indexed": true,
          "internalType": "address",
          "name": "sender",
          "type": "address"
        }
      ],
      "name": "RoleGranted",
      "type": "event"
    },
    {
      "anonymous": false,
      "inputs": [
        {
          "indexed": true,
          "internalType": "bytes32",
          "name": "role",
          "type": "bytes32"
        },
        {
          "indexed": true,
          "internalType": "address",
          "name": "account",
          "type": "address"
        },
        {
          "indexed": true,
          "internalType": "address",
          "name": "sender",
          "type": "address"
        }
      ],
      "name": "RoleRevoked",
      "type": "event"
    },
    {
      "inputs": [],
      "name": "ADMIN_ROLE",
      "outputs": [
        {
          "internalType": "bytes32",
          "name": "",
          "type": "bytes32"
        }
      ],
      "stateMutability": "view",
      "type": "function"
    },
    {
      "inputs": [],
      "name": "DEFAULT_ADMIN_ROLE",
      "outputs": [
        {
          "internalType": "bytes32",
          "name": "",
          "type": "bytes32"
        }
      ],
      "stateMutability": "view",
      "type": "function"
    },
    {
      "inputs": [
        {
          "internalType": "address",
          "name": "tokenAddress",
          "type": "address"
        },
        {
          "internalType": "uint256",
          "name": "sharesPerSecond",
          "type": "uint256"
        }
      ],
      "name": "addRewardToken",
      "outputs": [],
      "stateMutability": "nonpayable",
      "type": "function"
    },
    {
      "inputs": [],
      "name": "getCurrentRewardCount",
      "outputs": [
        {
          "internalType": "uint256",
          "name": "",
          "type": "uint256"
        }
      ],
      "stateMutability": "view",
      "type": "function"
    },
    {
      "inputs": [],
      "name": "getRewardTokenAddresses",
      "outputs": [
        {
          "internalType": "address[]",
          "name": "",
          "type": "address[]"
        }
      ],
      "stateMutability": "view",
      "type": "function"
    },
    {
      "inputs": [],
      "name": "getRewardTokens",
      "outputs": [
        {
          "components": [
            {
              "internalType": "uint256",
              "name": "sharesPerSecond",
              "type": "uint256"
            },
            {
              "internalType": "uint256",
              "name": "accTokenPerShare",
              "type": "uint256"
            },
            {
              "internalType": "uint256",
              "name": "PRECISION_FACTOR",
              "type": "uint256"
            }
          ],
          "internalType": "struct PoolRewardManager.RewardToken[]",
          "name": "rewards",
          "type": "tuple[]"
        }
      ],
      "stateMutability": "view",
      "type": "function"
    },
    {
      "inputs": [
        {
          "internalType": "bytes32",
          "name": "role",
          "type": "bytes32"
        }
      ],
      "name": "getRoleAdmin",
      "outputs": [
        {
          "internalType": "bytes32",
          "name": "",
          "type": "bytes32"
        }
      ],
      "stateMutability": "view",
      "type": "function"
    },
    {
      "inputs": [
        {
          "internalType": "bytes32",
          "name": "role",
          "type": "bytes32"
        },
        {
          "internalType": "address",
          "name": "account",
          "type": "address"
        }
      ],
      "name": "grantRole",
      "outputs": [],
      "stateMutability": "nonpayable",
      "type": "function"
    },
    {
      "inputs": [
        {
          "internalType": "uint256",
          "name": "positionAmountMultiplied",
          "type": "uint256"
        },
        {
          "internalType": "address",
          "name": "recipient",
          "type": "address"
        },
        {
          "internalType": "uint256",
          "name": "tokenId",
          "type": "uint256"
        }
      ],
      "name": "harvestAdditionalRewards",
      "outputs": [],
      "stateMutability": "nonpayable",
      "type": "function"
    },
    {
      "inputs": [
        {
          "internalType": "bytes32",
          "name": "role",
          "type": "bytes32"
        },
        {
          "internalType": "address",
          "name": "account",
          "type": "address"
        }
      ],
      "name": "hasRole",
      "outputs": [
        {
          "internalType": "bool",
          "name": "",
          "type": "bool"
        }
      ],
      "stateMutability": "view",
      "type": "function"
    },
    {
      "inputs": [
        {
          "internalType": "address",
          "name": "_treasury",
          "type": "address"
        }
      ],
      "name": "initialize",
      "outputs": [],
      "stateMutability": "nonpayable",
      "type": "function"
    },
    {
      "inputs": [
        {
          "internalType": "address",
          "name": "_incomingPoolAddress",
          "type": "address"
        }
      ],
      "name": "initializePool",
      "outputs": [],
      "stateMutability": "nonpayable",
      "type": "function"
    },
    {
      "inputs": [
        {
          "internalType": "uint256",
          "name": "tokenId",
          "type": "uint256"
        },
        {
          "internalType": "uint256",
          "name": "positionAmountMultiplied",
          "type": "uint256"
        },
        {
          "internalType": "uint256",
          "name": "lpSupplyWithMultiplier",
          "type": "uint256"
        },
        {
          "internalType": "uint256",
          "name": "lastRewardTime",
          "type": "uint256"
        }
      ],
      "name": "pendingAdditionalRewards",
      "outputs": [
        {
          "internalType": "address[]",
          "name": "tokens",
          "type": "address[]"
        },
        {
          "internalType": "uint256[]",
          "name": "rewardAmounts",
          "type": "uint256[]"
        }
      ],
      "stateMutability": "view",
      "type": "function"
    },
    {
      "inputs": [],
      "name": "poolAddress",
      "outputs": [
        {
          "internalType": "address",
          "name": "",
          "type": "address"
        }
      ],
      "stateMutability": "view",
      "type": "function"
    },
    {
      "inputs": [
        {
          "internalType": "uint256",
          "name": "",
          "type": "uint256"
        },
        {
          "internalType": "address",
          "name": "",
          "type": "address"
        }
      ],
      "name": "positionRewardDebts",
      "outputs": [
        {
          "internalType": "uint256",
          "name": "",
          "type": "uint256"
        }
      ],
      "stateMutability": "view",
      "type": "function"
    },
    {
      "inputs": [
        {
          "internalType": "address",
          "name": "tokenAddress",
          "type": "address"
        }
      ],
      "name": "removeRewardToken",
      "outputs": [],
      "stateMutability": "nonpayable",
      "type": "function"
    },
    {
      "inputs": [
        {
          "internalType": "bytes32",
          "name": "role",
          "type": "bytes32"
        },
        {
          "internalType": "address",
          "name": "account",
          "type": "address"
        }
      ],
      "name": "renounceRole",
      "outputs": [],
      "stateMutability": "nonpayable",
      "type": "function"
    },
    {
      "inputs": [
        {
          "internalType": "bytes32",
          "name": "role",
          "type": "bytes32"
        },
        {
          "internalType": "address",
          "name": "account",
          "type": "address"
        }
      ],
      "name": "revokeRole",
      "outputs": [],
      "stateMutability": "nonpayable",
      "type": "function"
    },
    {
      "inputs": [
        {
          "internalType": "bytes4",
          "name": "interfaceId",
          "type": "bytes4"
        }
      ],
      "name": "supportsInterface",
      "outputs": [
        {
          "internalType": "bool",
          "name": "",
          "type": "bool"
        }
      ],
      "stateMutability": "view",
      "type": "function"
    },
    {
      "inputs": [],
      "name": "treasury",
      "outputs": [
        {
          "internalType": "address",
          "name": "",
          "type": "address"
        }
      ],
      "stateMutability": "view",
      "type": "function"
    },
    {
      "inputs": [
        {
          "internalType": "uint256",
          "name": "positionAmountMultiplied",
          "type": "uint256"
        },
        {
          "internalType": "uint256",
          "name": "tokenId",
          "type": "uint256"
        }
      ],
      "name": "updatePositionRewardDebts",
      "outputs": [],
      "stateMutability": "nonpayable",
      "type": "function"
    },
    {
      "inputs": [
        {
          "internalType": "address",
          "name": "tokenAddress",
          "type": "address"
        },
        {
          "internalType": "uint256",
          "name": "sharesPerSecond",
          "type": "uint256"
        }
      ],
      "name": "updateRewardToken",
      "outputs": [],
      "stateMutability": "nonpayable",
      "type": "function"
    },
    {
      "inputs": [
        {
          "internalType": "uint256",
          "name": "lpSupplyMultiplied",
          "type": "uint256"
        },
        {
          "internalType": "uint256",
          "name": "lastRewardTime",
          "type": "uint256"
        }
      ],
      "name": "updateRewardsPerShare",
      "outputs": [],
      "stateMutability": "nonpayable",
      "type": "function"
    }
  ],
  "bytecode": {
    "object": "0x608060405234801561001057600080fd5b5061001961001e565b6100dd565b600054610100900460ff161561008a5760405162461bcd60e51b815260206004820152602760248201527f496e697469616c697a61626c653a20636f6e747261637420697320696e697469604482015266616c697a696e6760c81b606482015260840160405180910390fd5b60005460ff908116146100db576000805460ff191660ff9081179091556040519081527f7f26b83ff96e1f2b6a682f133852f6798a09c465da95921460cefb38474024989060200160405180910390a15b565b61232980620000ed6000396000f3fe608060405234801561001057600080fd5b506004361061014d5760003560e01c806375b238fc116100c3578063c4f59f9b1161007c578063c4f59f9b146102e6578063c994e4d5146102fb578063cd5d7b141461030e578063d547741f1461032f578063f4d1df8714610342578063f6ca71b01461035557600080fd5b806375b238fc1461027d57806391d1485414610292578063a217fddf146102a5578063b0a3eb93146102ad578063ba82c897146102c0578063c4d66de8146102d357600080fd5b80633145169d116101155780633145169d146101fe57806334876c941461022957806336568abe146102315780633d509c9714610244578063407431f71461025757806361d027b31461026a57600080fd5b806301ffc9a7146101525780630e3802e91461017a5780631755ff211461018f578063248a9ca3146101ba5780632f2ff15d146101eb575b600080fd5b610165610160366004611cf0565b61036a565b60405190151581526020015b60405180910390f35b61018d610188366004611d36565b6103a1565b005b6097546101a2906001600160a01b031681565b6040516001600160a01b039091168152602001610171565b6101dd6101c8366004611d60565b60009081526065602052604090206001015490565b604051908152602001610171565b61018d6101f9366004611d79565b6105d9565b6101dd61020c366004611d79565b609c60209081526000928352604080842090915290825290205481565b6101dd610603565b61018d61023f366004611d79565b610614565b61018d610252366004611da5565b610692565b61018d610265366004611da5565b6107db565b6098546101a2906001600160a01b031681565b6101dd6000805160206122d483398151915281565b6101656102a0366004611d79565b6108cd565b6101dd600081565b61018d6102bb366004611dc0565b6108f8565b61018d6102ce366004611d36565b610a01565b61018d6102e1366004611da5565b610a97565b6102ee610c45565b6040516101719190611de2565b61018d610309366004611dc0565b610d56565b61032161031c366004611e3b565b610e76565b604051610171929190611eb1565b61018d61033d366004611d79565b611103565b61018d610350366004611f08565b611128565b61035d611356565b6040516101719190611f3d565b60006001600160e01b03198216637965db0b60e01b148061039b57506301ffc9a760e01b6001600160e01b03198316145b92915050565b6103b96000805160206122d4833981519152336108cd565b6103de5760405162461bcd60e51b81526004016103d590611f50565b60405180910390fd5b6001600160a01b0382166104295760405162461bcd60e51b8152602060048201526012602482015271151bdad95b881b9bdd081c1c9bdd9a59195960721b60448201526064016103d5565b610434609983611362565b156104775760405162461bcd60e51b8152602060048201526013602482015272151bdad95b88185b1c9958591e481859191959606a1b60448201526064016103d5565b60008290506000816001600160a01b031663313ce5676040518163ffffffff1660e01b8152600401602060405180830381865afa1580156104bc573d6000803e3d6000fd5b505050506040513d601f19601f820116820180604052508101906104e09190611f76565b60ff169050601e811061052c5760405162461bcd60e51b815260206004820152601460248201527304d757374206265206c657373207468616e2033360641b60448201526064016103d5565b610537609985611387565b50604080516060810182528481526000602082015290810161055a83601e611faf565b61056590600a6120aa565b90526001600160a01b0385166000818152609b6020908152604091829020845181558482015160018201559382015160029094019390935580519182529181018590527f68e3e9397770d9dfa88c0953a34e1a70a05416b3895957f5b689787a920791c4910160405180910390a150505050565b6000828152606560205260409020600101546105f48161139c565b6105fe83836113a9565b505050565b600061060f609961142f565b905090565b6001600160a01b03811633146106845760405162461bcd60e51b815260206004820152602f60248201527f416363657373436f6e74726f6c3a2063616e206f6e6c792072656e6f756e636560448201526e103937b632b9903337b91039b2b63360891b60648201526084016103d5565b61068e8282611439565b5050565b6098546001600160a01b031633146106dc5760405162461bcd60e51b815260206004820152600d60248201526c4f6e6c7920747265617375727960981b60448201526064016103d5565b6106e5816114a0565b6106f0609982611534565b506001600160a01b0381166000818152609b602052604080822082815560018101839055600201829055516370a0823160e01b81523060048201528392906370a0823190602401602060405180830381865afa158015610754573d6000803e3d6000fd5b505050506040513d601f19601f8201168201806040525081019061077891906120b6565b9050801561079a5760985461079a906001600160a01b03848116911683611549565b6040516001600160a01b03841681527f66257bcef574219c04f7c05f7a1c78d599da10491294c92a5805c48b4cdf50099060200160405180910390a1505050565b6107f36000805160206122d4833981519152336108cd565b61080f5760405162461bcd60e51b81526004016103d590611f50565b6097546001600160a01b03161561085e5760405162461bcd60e51b8152602060048201526013602482015272105b1c9958591e481a5b9a5d1a585b1a5e9959606a1b60448201526064016103d5565b6001600160a01b0381166108ab5760405162461bcd60e51b81526020600482015260146024820152731059191c995cdcc81b9bdd081c1c9bdd9a59195960621b60448201526064016103d5565b609780546001600160a01b0319166001600160a01b0392909216919091179055565b60009182526065602090815260408084206001600160a01b0393909316845291905290205460ff1690565b6097546001600160a01b03161580159061091c57506097546001600160a01b031633145b6109385760405162461bcd60e51b81526004016103d5906120cf565b6000610942610603565b905080158061094f575082155b1561095957505050565b6000806109668442611faf565b905060008080805b868110156109f65761098160998261159b565b6001600160a01b0381166000908152609b6020526040902080549097509092506109ab90866120f2565b9350888660020154856109be91906120f2565b6109c89190612111565b9250828660010160008282546109de9190612133565b909155508190506109ee8161214b565b91505061096e565b505050505050505050565b610a196000805160206122d4833981519152336108cd565b610a355760405162461bcd60e51b81526004016103d590611f50565b610a3e826114a0565b6001600160a01b0382166000818152609b6020908152604091829020849055815192835282018390527f05e752e2fde934c3c347e8807e842fa33d41fc37deea712cb803c384fb97487e91015b60405180910390a15050565b600054610100900460ff1615808015610ab75750600054600160ff909116105b80610ad15750303b158015610ad1575060005460ff166001145b610b345760405162461bcd60e51b815260206004820152602e60248201527f496e697469616c697a61626c653a20636f6e747261637420697320616c72656160448201526d191e481a5b9a5d1a585b1a5e995960921b60648201526084016103d5565b6000805460ff191660011790558015610b57576000805461ff0019166101001790555b6001600160a01b038216610ba55760405162461bcd60e51b8152602060048201526015602482015274151c99585cdd5c9e481b9bdd081c1c9bdd9a591959605a1b60448201526064016103d5565b610bad6115a7565b609880546001600160a01b0319166001600160a01b038416179055610bd36000836113a9565b610beb6000805160206122d4833981519152336113a9565b610c036000805160206122d4833981519152836113a9565b801561068e576000805461ff0019169055604051600181527f7f26b83ff96e1f2b6a682f133852f6798a09c465da95921460cefb384740249890602001610a8b565b60606000610c51610603565b90508067ffffffffffffffff811115610c6c57610c6c612164565b604051908082528060200260200182016040528015610cc157816020015b610cae60405180606001604052806000815260200160008152602001600081525090565b815260200190600190039081610c8a5790505b5091506000805b82811015610d5057610cdb60998261159b565b9150609b6000836001600160a01b03166001600160a01b031681526020019081526020016000206040518060600160405290816000820154815260200160018201548152602001600282015481525050848281518110610d3d57610d3d61217a565b6020908102919091010152600101610cc8565b50505090565b6097546001600160a01b031615801590610d7a57506097546001600160a01b031633145b610d965760405162461bcd60e51b81526004016103d5906120cf565b6000610da0610603565b905080600003610daf57505050565b610dd360405180606001604052806000815260200160008152602001600081525090565b6000805b83811015610e6e57610dea60998261159b565b6001600160a01b0381166000908152609b60209081526040918290208251606081018452815481526001820154928101839052600290910154928101839052955091935090610e3990886120f2565b610e439190612111565b6000868152609c602090815260408083206001600160a01b0387168452909152902055600101610dd7565b505050505050565b60975460609081906001600160a01b031615801590610e9f57506097546001600160a01b031633145b610ebb5760405162461bcd60e51b81526004016103d5906120cf565b6000610ec5610603565b90508067ffffffffffffffff811115610ee057610ee0612164565b604051908082528060200260200182016040528015610f09578160200160208202803683370190505b5092508067ffffffffffffffff811115610f2557610f25612164565b604051908082528060200260200182016040528015610f4e578160200160208202803683370190505b50915080600003610f5f57506110fa565b610f8360405180606001604052806000815260200160008152602001600081525090565b6000610f8f8642611faf565b90508789600080805b878110156110f157610fab60998261159b565b9250828a8281518110610fc057610fc061217a565b6001600160a01b039283166020918202929092018101919091529084166000908152609b825260409081902081516060810183528154815260018201549381018490526002909101549181019190915297509150428b108015611023575060008c115b156110c857604087015187518d919061103c90896120f2565b61104691906120f2565b6110509190612111565b61105a9083612133565b6000858152609c602090815260408083206001600160a01b03881684529091529081902054908901519193509061109184886120f2565b61109b9190612111565b6110a59190611faf565b8982815181106110b7576110b761217a565b6020026020010181815250506110e9565b60008982815181106110dc576110dc61217a565b6020026020010181815250505b600101610f98565b50505050505050505b94509492505050565b60008281526065602052604090206001015461111e8161139c565b6105fe8383611439565b6097546001600160a01b03161580159061114c57506097546001600160a01b031633145b6111685760405162461bcd60e51b81526004016103d5906120cf565b6000611172610603565b9050806000036111825750505050565b6001600160a01b0383166111ea5760405162461bcd60e51b815260206004820152602960248201527f506f6f6c5265776172644d616e616765723a205a65726f2061646472657373206044820152681c9958da5c1a595b9d60ba1b60648201526084016103d5565b61120e60405180606001604052806000815260200160008152602001600081525090565b60008060005b8481101561134c5761122760998261159b565b6001600160a01b0381166000818152609b6020908152604080832081516060810183528154815260018201548185019081526002909201548184019081528d8652609c85528386209686529590935292205492519151909750929450909161128f908b6120f2565b6112999190612111565b6112a39190611faf565b925083604001518460200151896112ba91906120f2565b6112c49190612111565b6000878152609c602090815260408083206001600160a01b0387168452909152902055821561134457604080516001600160a01b0384168152602081018590529081018790527f0fa102304f98164dc898498c9b3caeea68c70cea163ca610d9e1e538e1c5c49b9060600160405180910390a1611342828885611614565b505b600101611214565b5050505050505050565b606061060f60996116af565b6001600160a01b038116600090815260018301602052604081205415155b9392505050565b6000611380836001600160a01b0384166116bc565b6113a6813361170b565b50565b6113b382826108cd565b61068e5760008281526065602090815260408083206001600160a01b03851684529091529020805460ff191660011790556113eb3390565b6001600160a01b0316816001600160a01b0316837f2f8788117e7eff1d82e926ec794901d17c78024a50270940304540a733656f0d60405160405180910390a45050565b600061039b825490565b61144382826108cd565b1561068e5760008281526065602090815260408083206001600160a01b0385168085529252808320805460ff1916905551339285917ff6391f5c32d9c69d2a47ea670b442974b53935d1edc7fd64eb21e047a839171b9190a45050565b6001600160a01b0381166114eb5760405162461bcd60e51b8152602060048201526012602482015271151bdad95b881b9bdd081c1c9bdd9a59195960721b60448201526064016103d5565b6114f6609982611362565b6113a65760405162461bcd60e51b815260206004820152600f60248201526e151bdad95b881b9bdd081859191959608a1b60448201526064016103d5565b6000611380836001600160a01b038416611764565b604080516001600160a01b038416602482015260448082018490528251808303909101815260649091019091526020810180516001600160e01b031663a9059cbb60e01b1790526105fe908490611857565b6000611380838361192c565b600054610100900460ff166116125760405162461bcd60e51b815260206004820152602b60248201527f496e697469616c697a61626c653a20636f6e7472616374206973206e6f74206960448201526a6e697469616c697a696e6760a81b60648201526084016103d5565b565b6040516370a0823160e01b8152306004820152600090849082906001600160a01b038316906370a0823190602401602060405180830381865afa15801561165f573d6000803e3d6000fd5b505050506040513d601f19601f8201168201806040525081019061168391906120b6565b905080841115611691578093505b6116a56001600160a01b0383168686611549565b5091949350505050565b6060600061138083611956565b60008181526001830160205260408120546117035750815460018181018455600084815260208082209093018490558454848252828601909352604090209190915561039b565b50600061039b565b61171582826108cd565b61068e57611722816119b2565b61172d8360206119c4565b60405160200161173e9291906121c0565b60408051601f198184030181529082905262461bcd60e51b82526103d591600401612235565b6000818152600183016020526040812054801561184d576000611788600183611faf565b855490915060009061179c90600190611faf565b90508181146118015760008660000182815481106117bc576117bc61217a565b90600052602060002001549050808760000184815481106117df576117df61217a565b6000918252602080832090910192909255918252600188019052604090208390555b855486908061181257611812612268565b60019003818190600052602060002001600090559055856001016000868152602001908152602001600020600090556001935050505061039b565b600091505061039b565b60006118ac826040518060400160405280602081526020017f5361666545524332303a206c6f772d6c6576656c2063616c6c206661696c6564815250856001600160a01b0316611b609092919063ffffffff16565b90508051600014806118cd5750808060200190518101906118cd919061227e565b6105fe5760405162461bcd60e51b815260206004820152602a60248201527f5361666545524332303a204552433230206f7065726174696f6e20646964206e6044820152691bdd081cdd58d8d9595960b21b60648201526084016103d5565b60008260000182815481106119435761194361217a565b9060005260206000200154905092915050565b6060816000018054806020026020016040519081016040528092919081815260200182805480156119a657602002820191906000526020600020905b815481526020019060010190808311611992575b50505050509050919050565b606061039b6001600160a01b03831660145b606060006119d38360026120f2565b6119de906002612133565b67ffffffffffffffff8111156119f6576119f6612164565b6040519080825280601f01601f191660200182016040528015611a20576020820181803683370190505b509050600360fc1b81600081518110611a3b57611a3b61217a565b60200101906001600160f81b031916908160001a905350600f60fb1b81600181518110611a6a57611a6a61217a565b60200101906001600160f81b031916908160001a9053506000611a8e8460026120f2565b611a99906001612133565b90505b6001811115611b11576f181899199a1a9b1b9c1cb0b131b232b360811b85600f1660108110611acd57611acd61217a565b1a60f81b828281518110611ae357611ae361217a565b60200101906001600160f81b031916908160001a90535060049490941c93611b0a816122a0565b9050611a9c565b5083156113805760405162461bcd60e51b815260206004820181905260248201527f537472696e67733a20686578206c656e67746820696e73756666696369656e7460448201526064016103d5565b6060611b6f8484600085611b77565b949350505050565b606082471015611bd85760405162461bcd60e51b815260206004820152602660248201527f416464726573733a20696e73756666696369656e742062616c616e636520666f6044820152651c8818d85b1b60d21b60648201526084016103d5565b600080866001600160a01b03168587604051611bf491906122b7565b60006040518083038185875af1925050503d8060008114611c31576040519150601f19603f3d011682016040523d82523d6000602084013e611c36565b606091505b5091509150611c4787838387611c52565b979650505050505050565b60608315611cc1578251600003611cba576001600160a01b0385163b611cba5760405162461bcd60e51b815260206004820152601d60248201527f416464726573733a2063616c6c20746f206e6f6e2d636f6e747261637400000060448201526064016103d5565b5081611b6f565b611b6f8383815115611cd65781518083602001fd5b8060405162461bcd60e51b81526004016103d59190612235565b600060208284031215611d0257600080fd5b81356001600160e01b03198116811461138057600080fd5b80356001600160a01b0381168114611d3157600080fd5b919050565b60008060408385031215611d4957600080fd5b611d5283611d1a565b946020939093013593505050565b600060208284031215611d7257600080fd5b5035919050565b60008060408385031215611d8c57600080fd5b82359150611d9c60208401611d1a565b90509250929050565b600060208284031215611db757600080fd5b61138082611d1a565b60008060408385031215611dd357600080fd5b50508035926020909101359150565b602080825282518282018190526000919060409081850190868401855b82811015611e2e5781518051855286810151878601528501518585015260609093019290850190600101611dff565b5091979650505050505050565b60008060008060808587031215611e5157600080fd5b5050823594602084013594506040840135936060013592509050565b600081518084526020808501945080840160005b83811015611ea65781516001600160a01b031687529582019590820190600101611e81565b509495945050505050565b604081526000611ec46040830185611e6d565b82810360208481019190915284518083528582019282019060005b81811015611efb57845183529383019391830191600101611edf565b5090979650505050505050565b600080600060608486031215611f1d57600080fd5b83359250611f2d60208501611d1a565b9150604084013590509250925092565b6020815260006113806020830184611e6d565b6020808252600c908201526b2737ba1030b71030b236b4b760a11b604082015260600190565b600060208284031215611f8857600080fd5b815160ff8116811461138057600080fd5b634e487b7160e01b600052601160045260246000fd5b600082821015611fc157611fc1611f99565b500390565b600181815b80851115612001578160001904821115611fe757611fe7611f99565b80851615611ff457918102915b93841c9390800290611fcb565b509250929050565b6000826120185750600161039b565b816120255750600061039b565b816001811461203b576002811461204557612061565b600191505061039b565b60ff84111561205657612056611f99565b50506001821b61039b565b5060208310610133831016604e8410600b8410161715612084575081810a61039b565b61208e8383611fc6565b80600019048211156120a2576120a2611f99565b029392505050565b60006113808383612009565b6000602082840312156120c857600080fd5b5051919050565b60208082526009908201526813db9b1e481c1bdbdb60ba1b604082015260600190565b600081600019048311821515161561210c5761210c611f99565b500290565b60008261212e57634e487b7160e01b600052601260045260246000fd5b500490565b6000821982111561214657612146611f99565b500190565b60006001820161215d5761215d611f99565b5060010190565b634e487b7160e01b600052604160045260246000fd5b634e487b7160e01b600052603260045260246000fd5b60005b838110156121ab578181015183820152602001612193565b838111156121ba576000848401525b50505050565b7f416363657373436f6e74726f6c3a206163636f756e74200000000000000000008152600083516121f8816017850160208801612190565b7001034b99036b4b9b9b4b733903937b6329607d1b6017918401918201528351612229816028840160208801612190565b01602801949350505050565b6020815260008251806020840152612254816040850160208701612190565b601f01601f19169190910160400192915050565b634e487b7160e01b600052603160045260246000fd5b60006020828403121561229057600080fd5b8151801515811461138057600080fd5b6000816122af576122af611f99565b506000190190565b600082516122c9818460208701612190565b919091019291505056fea49807205ce4d355092ef5a8a18f56e8913cf4a201fbe287825b095693c21775a264697066735822122078c17d76027685c21e6b705f75f200ecfb4c906dcd1f4c0ab2e1bfbacaa4e1cf64736f6c634300080f0033",
    "linkReferences": {}
  },
  "methodIdentifiers": {
    "ADMIN_ROLE()": "75b238fc",
    "DEFAULT_ADMIN_ROLE()": "a217fddf",
    "addRewardToken(address,uint256)": "0e3802e9",
    "getCurrentRewardCount()": "34876c94",
    "getRewardTokenAddresses()": "f6ca71b0",
    "getRewardTokens()": "c4f59f9b",
    "getRoleAdmin(bytes32)": "248a9ca3",
    "grantRole(bytes32,address)": "2f2ff15d",
    "harvestAdditionalRewards(uint256,address,uint256)": "f4d1df87",
    "hasRole(bytes32,address)": "91d14854",
    "initialize(address)": "c4d66de8",
    "initializePool(address)": "407431f7",
    "pendingAdditionalRewards(uint256,uint256,uint256,uint256)": "cd5d7b14",
    "poolAddress()": "1755ff21",
    "positionRewardDebts(uint256,address)": "3145169d",
    "removeRewardToken(address)": "3d509c97",
    "renounceRole(bytes32,address)": "36568abe",
    "revokeRole(bytes32,address)": "d547741f",
    "supportsInterface(bytes4)": "01ffc9a7",
    "treasury()": "61d027b3",
    "updatePositionRewardDebts(uint256,uint256)": "c994e4d5",
    "updateRewardToken(address,uint256)": "ba82c897",
    "updateRewardsPerShare(uint256,uint256)": "b0a3eb93"
  },
  "id": 1
}