{
  "abi": [
    {
      "inputs": [],
      "stateMutability": "nonpayable",
      "type": "constructor"
    },
    {
      "anonymous": false,
      "inputs": [
        {
          "indexed": true,
          "internalType": "uint256",
          "name": "tokenId",
          "type": "uint256"
        },
        {
          "indexed": false,
          "internalType": "address",
          "name": "user",
          "type": "address"
        },
        {
          "indexed": false,
          "internalType": "uint256",
          "name": "amount",
          "type": "uint256"
        }
      ],
      "name": "AddToPosition",
      "type": "event"
    },
    {
      "anonymous": false,
      "inputs": [
        {
          "indexed": true,
          "internalType": "address",
          "name": "owner",
          "type": "address"
        },
        {
          "indexed": true,
          "internalType": "address",
          "name": "approved",
          "type": "address"
        },
        {
          "indexed": true,
          "internalType": "uint256",
          "name": "tokenId",
          "type": "uint256"
        }
      ],
      "name": "Approval",
      "type": "event"
    },
    {
      "anonymous": false,
      "inputs": [
        {
          "indexed": true,
          "internalType": "address",
          "name": "owner",
          "type": "address"
        },
        {
          "indexed": true,
          "internalType": "address",
          "name": "operator",
          "type": "address"
        },
        {
          "indexed": false,
          "internalType": "bool",
          "name": "approved",
          "type": "bool"
        }
      ],
      "name": "ApprovalForAll",
      "type": "event"
    },
    {
      "anonymous": false,
      "inputs": [
        {
          "indexed": true,
          "internalType": "uint256",
          "name": "tokenId",
          "type": "uint256"
        },
        {
          "indexed": false,
          "internalType": "uint256",
          "name": "amount",
          "type": "uint256"
        },
        {
          "indexed": false,
          "internalType": "uint256",
          "name": "lockDuration",
          "type": "uint256"
        }
      ],
      "name": "CreatePosition",
      "type": "event"
    },
    {
      "anonymous": false,
      "inputs": [
        {
          "indexed": true,
          "internalType": "uint256",
          "name": "tokenId",
          "type": "uint256"
        },
        {
          "indexed": false,
          "internalType": "uint256",
          "name": "amount",
          "type": "uint256"
        }
      ],
      "name": "EmergencyWithdraw",
      "type": "event"
    },
    {
      "anonymous": false,
      "inputs": [
        {
          "indexed": true,
          "internalType": "uint256",
          "name": "tokenId",
          "type": "uint256"
        },
        {
          "indexed": false,
          "internalType": "address",
          "name": "to",
          "type": "address"
        },
        {
          "indexed": false,
          "internalType": "uint256",
          "name": "pending",
          "type": "uint256"
        },
        {
          "indexed": false,
          "internalType": "uint256",
          "name": "pendingWETH",
          "type": "uint256"
        }
      ],
      "name": "HarvestPosition",
      "type": "event"
    },
    {
      "anonymous": false,
      "inputs": [
        {
          "indexed": true,
          "internalType": "uint256",
          "name": "tokenId",
          "type": "uint256"
        },
        {
          "indexed": false,
          "internalType": "uint256",
          "name": "lockDuration",
          "type": "uint256"
        }
      ],
      "name": "LockPosition",
      "type": "event"
    },
    {
      "anonymous": false,
      "inputs": [
        {
          "indexed": false,
          "internalType": "uint256",
          "name": "lastRewardTime",
          "type": "uint256"
        },
        {
          "indexed": false,
          "internalType": "uint256",
          "name": "accRewardsPerShare",
          "type": "uint256"
        },
        {
          "indexed": false,
          "internalType": "uint256",
          "name": "accRewardsPerShareWETH",
          "type": "uint256"
        }
      ],
      "name": "PoolUpdated",
      "type": "event"
    },
    {
      "anonymous": false,
      "inputs": [
        {
          "indexed": true,
          "internalType": "uint256",
          "name": "tokenId",
          "type": "uint256"
        },
        {
          "indexed": false,
          "internalType": "uint256",
          "name": "boostPoints",
          "type": "uint256"
        }
      ],
      "name": "SetBoost",
      "type": "event"
    },
    {
      "anonymous": false,
      "inputs": [
        {
          "indexed": false,
          "internalType": "uint256",
          "name": "maxGlobalMultiplier",
          "type": "uint256"
        },
        {
          "indexed": false,
          "internalType": "uint256",
          "name": "maxBoostMultiplier",
          "type": "uint256"
        }
      ],
      "name": "SetBoostMultiplierSettings",
      "type": "event"
    },
    {
      "anonymous": false,
      "inputs": [
        {
          "indexed": false,
          "internalType": "bool",
          "name": "emergencyUnlock",
          "type": "bool"
        }
      ],
      "name": "SetEmergencyUnlock",
      "type": "event"
    },
    {
      "anonymous": false,
      "inputs": [
        {
          "indexed": false,
          "internalType": "uint256",
          "name": "maxLockDuration",
          "type": "uint256"
        },
        {
          "indexed": false,
          "internalType": "uint256",
          "name": "maxLockMultiplier",
          "type": "uint256"
        }
      ],
      "name": "SetLockMultiplierSettings",
      "type": "event"
    },
    {
      "anonymous": false,
      "inputs": [
        {
          "indexed": false,
          "internalType": "address",
          "name": "operator",
          "type": "address"
        }
      ],
      "name": "SetOperator",
      "type": "event"
    },
    {
      "anonymous": false,
      "inputs": [
        {
          "indexed": false,
          "internalType": "address",
          "name": "operator",
          "type": "address"
        },
        {
          "indexed": false,
          "internalType": "bool",
          "name": "isAdded",
          "type": "bool"
        }
      ],
      "name": "SetUnlockOperator",
      "type": "event"
    },
    {
      "anonymous": false,
      "inputs": [
        {
          "indexed": false,
          "internalType": "uint256",
          "name": "xTokenRewardsShare",
          "type": "uint256"
        }
      ],
      "name": "SetXTokenRewardsShare",
      "type": "event"
    },
    {
      "anonymous": false,
      "inputs": [
        {
          "indexed": true,
          "internalType": "address",
          "name": "from",
          "type": "address"
        },
        {
          "indexed": true,
          "internalType": "address",
          "name": "to",
          "type": "address"
        },
        {
          "indexed": true,
          "internalType": "uint256",
          "name": "tokenId",
          "type": "uint256"
        }
      ],
      "name": "Transfer",
      "type": "event"
    },
    {
      "anonymous": false,
      "inputs": [
        {
          "indexed": true,
          "internalType": "uint256",
          "name": "tokenId",
          "type": "uint256"
        },
        {
          "indexed": false,
          "internalType": "uint256",
          "name": "amount",
          "type": "uint256"
        }
      ],
      "name": "WithdrawFromPosition",
      "type": "event"
    },
    {
      "inputs": [],
      "name": "MAX_BOOST_MULTIPLIER_LIMIT",
      "outputs": [
        {
          "internalType": "uint256",
          "name": "",
          "type": "uint256"
        }
      ],
      "stateMutability": "view",
      "type": "function"
    },
    {
      "inputs": [],
      "name": "MAX_GLOBAL_MULTIPLIER_LIMIT",
      "outputs": [
        {
          "internalType": "uint256",
          "name": "",
          "type": "uint256"
        }
      ],
      "stateMutability": "view",
      "type": "function"
    },
    {
      "inputs": [],
      "name": "MAX_LOCK_MULTIPLIER_LIMIT",
      "outputs": [
        {
          "internalType": "uint256",
          "name": "",
          "type": "uint256"
        }
      ],
      "stateMutability": "view",
      "type": "function"
    },
    {
      "inputs": [
        {
          "internalType": "uint256",
          "name": "tokenId",
          "type": "uint256"
        },
        {
          "internalType": "uint256",
          "name": "amountToAdd",
          "type": "uint256"
        }
      ],
      "name": "addToPosition",
      "outputs": [],
      "stateMutability": "nonpayable",
      "type": "function"
    },
    {
      "inputs": [
        {
          "internalType": "address",
          "name": "to",
          "type": "address"
        },
        {
          "internalType": "uint256",
          "name": "tokenId",
          "type": "uint256"
        }
      ],
      "name": "approve",
      "outputs": [],
      "stateMutability": "nonpayable",
      "type": "function"
    },
    {
      "inputs": [
        {
          "internalType": "address",
          "name": "owner",
          "type": "address"
        }
      ],
      "name": "balanceOf",
      "outputs": [
        {
          "internalType": "uint256",
          "name": "",
          "type": "uint256"
        }
      ],
      "stateMutability": "view",
      "type": "function"
    },
    {
      "inputs": [],
      "name": "baseURI",
      "outputs": [
        {
          "internalType": "string",
          "name": "",
          "type": "string"
        }
      ],
      "stateMutability": "view",
      "type": "function"
    },
    {
      "inputs": [
        {
          "internalType": "uint256",
          "name": "tokenId",
          "type": "uint256"
        },
        {
          "internalType": "uint256",
          "name": "amount",
          "type": "uint256"
        }
      ],
      "name": "boost",
      "outputs": [],
      "stateMutability": "nonpayable",
      "type": "function"
    },
    {
      "inputs": [
        {
          "internalType": "uint256",
          "name": "amount",
          "type": "uint256"
        },
        {
          "internalType": "uint256",
          "name": "lockDuration",
          "type": "uint256"
        }
      ],
      "name": "createPosition",
      "outputs": [],
      "stateMutability": "nonpayable",
      "type": "function"
    },
    {
      "inputs": [],
      "name": "emergencyUnlock",
      "outputs": [
        {
          "internalType": "bool",
          "name": "",
          "type": "bool"
        }
      ],
      "stateMutability": "view",
      "type": "function"
    },
    {
      "inputs": [
        {
          "internalType": "uint256",
          "name": "tokenId",
          "type": "uint256"
        }
      ],
      "name": "emergencyWithdraw",
      "outputs": [],
      "stateMutability": "nonpayable",
      "type": "function"
    },
    {
      "inputs": [
        {
          "internalType": "uint256",
          "name": "tokenId",
          "type": "uint256"
        }
      ],
      "name": "exists",
      "outputs": [
        {
          "internalType": "bool",
          "name": "",
          "type": "bool"
        }
      ],
      "stateMutability": "view",
      "type": "function"
    },
    {
      "inputs": [],
      "name": "factory",
      "outputs": [
        {
          "internalType": "address",
          "name": "",
          "type": "address"
        }
      ],
      "stateMutability": "view",
      "type": "function"
    },
    {
      "inputs": [
        {
          "internalType": "uint256",
          "name": "tokenId",
          "type": "uint256"
        }
      ],
      "name": "getApproved",
      "outputs": [
        {
          "internalType": "address",
          "name": "",
          "type": "address"
        }
      ],
      "stateMutability": "view",
      "type": "function"
    },
    {
      "inputs": [
        {
          "internalType": "uint256",
          "name": "amount",
          "type": "uint256"
        },
        {
          "internalType": "uint256",
          "name": "boostPoints",
          "type": "uint256"
        }
      ],
      "name": "getMultiplierByBoostPoints",
      "outputs": [
        {
          "internalType": "uint256",
          "name": "",
          "type": "uint256"
        }
      ],
      "stateMutability": "view",
      "type": "function"
    },
    {
      "inputs": [
        {
          "internalType": "uint256",
          "name": "lockDuration",
          "type": "uint256"
        }
      ],
      "name": "getMultiplierByLockDuration",
      "outputs": [
        {
          "internalType": "uint256",
          "name": "",
          "type": "uint256"
        }
      ],
      "stateMutability": "view",
      "type": "function"
    },
    {
      "inputs": [],
      "name": "getMultiplierSettings",
      "outputs": [
        {
          "internalType": "uint256",
          "name": "maxGlobalMultiplier",
          "type": "uint256"
        },
        {
          "internalType": "uint256",
          "name": "maxLockDuration",
          "type": "uint256"
        },
        {
          "internalType": "uint256",
          "name": "maxLockMultiplier",
          "type": "uint256"
        },
        {
          "internalType": "uint256",
          "name": "maxBoostMultiplier",
          "type": "uint256"
        }
      ],
      "stateMutability": "view",
      "type": "function"
    },
    {
      "inputs": [],
      "name": "getPoolInfo",
      "outputs": [
        {
          "internalType": "address",
          "name": "lpToken",
          "type": "address"
        },
        {
          "internalType": "address",
          "name": "arxToken",
          "type": "address"
        },
        {
          "internalType": "address",
          "name": "xToken",
          "type": "address"
        },
        {
          "internalType": "uint256",
          "name": "lastRewardTime",
          "type": "uint256"
        },
        {
          "internalType": "uint256",
          "name": "accRewardsPerShare",
          "type": "uint256"
        },
        {
          "internalType": "uint256",
          "name": "accRewardsPerShareWETH",
          "type": "uint256"
        },
        {
          "internalType": "uint256",
          "name": "lpSupply",
          "type": "uint256"
        },
        {
          "internalType": "uint256",
          "name": "lpSupplyWithMultiplier",
          "type": "uint256"
        },
        {
          "internalType": "uint256",
          "name": "allocPointsARX",
          "type": "uint256"
        },
        {
          "internalType": "uint256",
          "name": "allocPointsWETH",
          "type": "uint256"
        }
      ],
      "stateMutability": "view",
      "type": "function"
    },
    {
      "inputs": [
        {
          "internalType": "uint256",
          "name": "tokenId",
          "type": "uint256"
        }
      ],
      "name": "getStakingPosition",
      "outputs": [
        {
          "internalType": "uint256",
          "name": "amount",
          "type": "uint256"
        },
        {
          "internalType": "uint256",
          "name": "amountWithMultiplier",
          "type": "uint256"
        },
        {
          "internalType": "uint256",
          "name": "startLockTime",
          "type": "uint256"
        },
        {
          "internalType": "uint256",
          "name": "lockDuration",
          "type": "uint256"
        },
        {
          "internalType": "uint256",
          "name": "lockMultiplier",
          "type": "uint256"
        },
        {
          "internalType": "uint256",
          "name": "rewardDebt",
          "type": "uint256"
        },
        {
          "internalType": "uint256",
          "name": "rewardDebtWETH",
          "type": "uint256"
        },
        {
          "internalType": "uint256",
          "name": "boostPoints",
          "type": "uint256"
        },
        {
          "internalType": "uint256",
          "name": "totalMultiplier",
          "type": "uint256"
        }
      ],
      "stateMutability": "view",
      "type": "function"
    },
    {
      "inputs": [
        {
          "internalType": "uint256",
          "name": "tokenId",
          "type": "uint256"
        }
      ],
      "name": "harvestPosition",
      "outputs": [],
      "stateMutability": "nonpayable",
      "type": "function"
    },
    {
      "inputs": [
        {
          "internalType": "uint256",
          "name": "tokenId",
          "type": "uint256"
        },
        {
          "internalType": "address",
          "name": "to",
          "type": "address"
        }
      ],
      "name": "harvestPositionTo",
      "outputs": [],
      "stateMutability": "nonpayable",
      "type": "function"
    },
    {
      "inputs": [
        {
          "internalType": "uint256[]",
          "name": "tokenIds",
          "type": "uint256[]"
        },
        {
          "internalType": "address",
          "name": "to",
          "type": "address"
        }
      ],
      "name": "harvestPositionsTo",
      "outputs": [],
      "stateMutability": "nonpayable",
      "type": "function"
    },
    {
      "inputs": [],
      "name": "hasDeposits",
      "outputs": [
        {
          "internalType": "bool",
          "name": "",
          "type": "bool"
        }
      ],
      "stateMutability": "view",
      "type": "function"
    },
    {
      "inputs": [
        {
          "internalType": "contract IMasterChef",
          "name": "master_",
          "type": "address"
        },
        {
          "internalType": "contract IERC20Metadata",
          "name": "arxToken",
          "type": "address"
        },
        {
          "internalType": "contract IxARXToken",
          "name": "xToken",
          "type": "address"
        },
        {
          "internalType": "contract IERC20Metadata",
          "name": "lpToken",
          "type": "address"
        }
      ],
      "name": "initialize",
      "outputs": [],
      "stateMutability": "nonpayable",
      "type": "function"
    },
    {
      "inputs": [],
      "name": "initialized",
      "outputs": [
        {
          "internalType": "bool",
          "name": "",
          "type": "bool"
        }
      ],
      "stateMutability": "view",
      "type": "function"
    },
    {
      "inputs": [
        {
          "internalType": "address",
          "name": "owner",
          "type": "address"
        },
        {
          "internalType": "address",
          "name": "operator",
          "type": "address"
        }
      ],
      "name": "isApprovedForAll",
      "outputs": [
        {
          "internalType": "bool",
          "name": "",
          "type": "bool"
        }
      ],
      "stateMutability": "view",
      "type": "function"
    },
    {
      "inputs": [],
      "name": "isUnlocked",
      "outputs": [
        {
          "internalType": "bool",
          "name": "",
          "type": "bool"
        }
      ],
      "stateMutability": "view",
      "type": "function"
    },
    {
      "inputs": [],
      "name": "lastTokenId",
      "outputs": [
        {
          "internalType": "uint256",
          "name": "",
          "type": "uint256"
        }
      ],
      "stateMutability": "view",
      "type": "function"
    },
    {
      "inputs": [
        {
          "internalType": "uint256",
          "name": "tokenId",
          "type": "uint256"
        },
        {
          "internalType": "uint256",
          "name": "lockDuration",
          "type": "uint256"
        }
      ],
      "name": "lockPosition",
      "outputs": [],
      "stateMutability": "nonpayable",
      "type": "function"
    },
    {
      "inputs": [],
      "name": "master",
      "outputs": [
        {
          "internalType": "contract IMasterChef",
          "name": "",
          "type": "address"
        }
      ],
      "stateMutability": "view",
      "type": "function"
    },
    {
      "inputs": [],
      "name": "name",
      "outputs": [
        {
          "internalType": "string",
          "name": "",
          "type": "string"
        }
      ],
      "stateMutability": "view",
      "type": "function"
    },
    {
      "inputs": [],
      "name": "operator",
      "outputs": [
        {
          "internalType": "address",
          "name": "",
          "type": "address"
        }
      ],
      "stateMutability": "view",
      "type": "function"
    },
    {
      "inputs": [],
      "name": "owner",
      "outputs": [
        {
          "internalType": "address",
          "name": "",
          "type": "address"
        }
      ],
      "stateMutability": "view",
      "type": "function"
    },
    {
      "inputs": [
        {
          "internalType": "uint256",
          "name": "tokenId",
          "type": "uint256"
        }
      ],
      "name": "ownerOf",
      "outputs": [
        {
          "internalType": "address",
          "name": "",
          "type": "address"
        }
      ],
      "stateMutability": "view",
      "type": "function"
    },
    {
      "inputs": [
        {
          "internalType": "uint256",
          "name": "tokenId",
          "type": "uint256"
        }
      ],
      "name": "pendingRewards",
      "outputs": [
        {
          "internalType": "uint256",
          "name": "mainAmount",
          "type": "uint256"
        },
        {
          "internalType": "uint256",
          "name": "wethAmount",
          "type": "uint256"
        }
      ],
      "stateMutability": "view",
      "type": "function"
    },
    {
      "inputs": [
        {
          "internalType": "uint256",
          "name": "tokenId",
          "type": "uint256"
        }
      ],
      "name": "renewLockPosition",
      "outputs": [],
      "stateMutability": "nonpayable",
      "type": "function"
    },
    {
      "inputs": [
        {
          "internalType": "address",
          "name": "from",
          "type": "address"
        },
        {
          "internalType": "address",
          "name": "to",
          "type": "address"
        },
        {
          "internalType": "uint256",
          "name": "tokenId",
          "type": "uint256"
        }
      ],
      "name": "safeTransferFrom",
      "outputs": [],
      "stateMutability": "nonpayable",
      "type": "function"
    },
    {
      "inputs": [
        {
          "internalType": "address",
          "name": "from",
          "type": "address"
        },
        {
          "internalType": "address",
          "name": "to",
          "type": "address"
        },
        {
          "internalType": "uint256",
          "name": "tokenId",
          "type": "uint256"
        },
        {
          "internalType": "bytes",
          "name": "_data",
          "type": "bytes"
        }
      ],
      "name": "safeTransferFrom",
      "outputs": [],
      "stateMutability": "nonpayable",
      "type": "function"
    },
    {
      "inputs": [
        {
          "internalType": "address",
          "name": "operator",
          "type": "address"
        },
        {
          "internalType": "bool",
          "name": "approved",
          "type": "bool"
        }
      ],
      "name": "setApprovalForAll",
      "outputs": [],
      "stateMutability": "nonpayable",
      "type": "function"
    },
    {
      "inputs": [
        {
          "internalType": "uint256",
          "name": "maxGlobalMultiplier",
          "type": "uint256"
        },
        {
          "internalType": "uint256",
          "name": "maxBoostMultiplier",
          "type": "uint256"
        }
      ],
      "name": "setBoostMultiplierSettings",
      "outputs": [],
      "stateMutability": "nonpayable",
      "type": "function"
    },
    {
      "inputs": [
        {
          "internalType": "bool",
          "name": "emergencyUnlock_",
          "type": "bool"
        }
      ],
      "name": "setEmergencyUnlock",
      "outputs": [],
      "stateMutability": "nonpayable",
      "type": "function"
    },
    {
      "inputs": [
        {
          "internalType": "uint256",
          "name": "maxLockDuration",
          "type": "uint256"
        },
        {
          "internalType": "uint256",
          "name": "maxLockMultiplier",
          "type": "uint256"
        }
      ],
      "name": "setLockMultiplierSettings",
      "outputs": [],
      "stateMutability": "nonpayable",
      "type": "function"
    },
    {
      "inputs": [
        {
          "internalType": "address",
          "name": "operator_",
          "type": "address"
        }
      ],
      "name": "setOperator",
      "outputs": [],
      "stateMutability": "nonpayable",
      "type": "function"
    },
    {
      "inputs": [
        {
          "internalType": "uint256",
          "name": "xTokenRewardsShare_",
          "type": "uint256"
        }
      ],
      "name": "setXTokenRewardsShare",
      "outputs": [],
      "stateMutability": "nonpayable",
      "type": "function"
    },
    {
      "inputs": [
        {
          "internalType": "bytes4",
          "name": "interfaceId",
          "type": "bytes4"
        }
      ],
      "name": "supportsInterface",
      "outputs": [
        {
          "internalType": "bool",
          "name": "",
          "type": "bool"
        }
      ],
      "stateMutability": "view",
      "type": "function"
    },
    {
      "inputs": [],
      "name": "symbol",
      "outputs": [
        {
          "internalType": "string",
          "name": "",
          "type": "string"
        }
      ],
      "stateMutability": "view",
      "type": "function"
    },
    {
      "inputs": [
        {
          "internalType": "uint256",
          "name": "index",
          "type": "uint256"
        }
      ],
      "name": "tokenByIndex",
      "outputs": [
        {
          "internalType": "uint256",
          "name": "",
          "type": "uint256"
        }
      ],
      "stateMutability": "view",
      "type": "function"
    },
    {
      "inputs": [
        {
          "internalType": "address",
          "name": "owner",
          "type": "address"
        },
        {
          "internalType": "uint256",
          "name": "index",
          "type": "uint256"
        }
      ],
      "name": "tokenOfOwnerByIndex",
      "outputs": [
        {
          "internalType": "uint256",
          "name": "",
          "type": "uint256"
        }
      ],
      "stateMutability": "view",
      "type": "function"
    },
    {
      "inputs": [
        {
          "internalType": "uint256",
          "name": "tokenId",
          "type": "uint256"
        }
      ],
      "name": "tokenURI",
      "outputs": [
        {
          "internalType": "string",
          "name": "",
          "type": "string"
        }
      ],
      "stateMutability": "view",
      "type": "function"
    },
    {
      "inputs": [],
      "name": "totalSupply",
      "outputs": [
        {
          "internalType": "uint256",
          "name": "",
          "type": "uint256"
        }
      ],
      "stateMutability": "view",
      "type": "function"
    },
    {
      "inputs": [
        {
          "internalType": "address",
          "name": "from",
          "type": "address"
        },
        {
          "internalType": "address",
          "name": "to",
          "type": "address"
        },
        {
          "internalType": "uint256",
          "name": "tokenId",
          "type": "uint256"
        }
      ],
      "name": "transferFrom",
      "outputs": [],
      "stateMutability": "nonpayable",
      "type": "function"
    },
    {
      "inputs": [
        {
          "internalType": "uint256",
          "name": "tokenId",
          "type": "uint256"
        },
        {
          "internalType": "uint256",
          "name": "amount",
          "type": "uint256"
        }
      ],
      "name": "unboost",
      "outputs": [],
      "stateMutability": "nonpayable",
      "type": "function"
    },
    {
      "inputs": [],
      "name": "updatePool",
      "outputs": [],
      "stateMutability": "nonpayable",
      "type": "function"
    },
    {
      "inputs": [
        {
          "internalType": "uint256",
          "name": "tokenId",
          "type": "uint256"
        },
        {
          "internalType": "uint256",
          "name": "amountToWithdraw",
          "type": "uint256"
        }
      ],
      "name": "withdrawFromPosition",
      "outputs": [],
      "stateMutability": "nonpayable",
      "type": "function"
    },
    {
      "inputs": [],
      "name": "xTokenRewardsShare",
      "outputs": [
        {
          "internalType": "uint256",
          "name": "",
          "type": "uint256"
        }
      ],
      "stateMutability": "view",
      "type": "function"
    },
    {
      "inputs": [],
      "name": "yieldBooster",
      "outputs": [
        {
          "internalType": "address",
          "name": "",
          "type": "address"
        }
      ],
      "stateMutability": "view",
      "type": "function"
    }
  ],
  "bytecode": {
    "object": "0x60a0604052614e2060155562f14280601655612710601755612710601855611f406019553480156200003057600080fd5b50604080518082018252601c81527f41726269646578207374616b696e6720706f736974696f6e204e465400000000602080830191909152825180840190935260058352641cdc13919560da1b90830152600160005590620000996301ffc9a760e01b6200010a565b8151620000ae90600790602085019062000192565b508051620000c490600890602084019062000192565b50620000d76380ac58cd60e01b6200010a565b620000e9635b5e139f60e01b6200010a565b620000fb63780e9d6360e01b6200010a565b50503360601b6080526200023e565b6001600160e01b031980821614156200016a576040805162461bcd60e51b815260206004820152601c60248201527f4552433136353a20696e76616c696420696e7465726661636520696400000000604482015290519081900360640190fd5b6001600160e01b0319166000908152600160208190526040909120805460ff19169091179055565b828054600181600116156101000203166002900490600052602060002090601f016020900481019282620001ca576000855562000215565b82601f10620001e557805160ff191683800117855562000215565b8280016001018555821562000215579182015b8281111562000215578251825591602001919060010190620001f8565b506200022392915062000227565b5090565b5b8082111562000223576000815560010162000228565b60805160601c6150a4620002616000398061226c528061296f52506150a46000f3fe608060405234801561001057600080fd5b50600436106103785760003560e01c80636c0360eb116101d3578063c45a015511610104578063e985e9c5116100a2578063f2e16b3c1161007c578063f2e16b3c14610b27578063f84ddf0b14610b4a578063f8c8765e14610b52578063fdc5f93014610b9057610378565b8063e985e9c514610ae9578063ee97f7f314610b17578063f2c3999214610b1f57610378565b8063d4e32de6116100de578063d4e32de6146103b8578063d5232dee14610ab6578063e3161ddd14610ad9578063e61f927d14610ae157610378565b8063c45a015514610a6e578063c87b56dd14610a76578063d1aaef0514610a9357610378565b80638da5cb5b11610171578063a22cb4651161014b578063a22cb46514610931578063a6b0b2a81461095f578063b3ab15fb14610982578063b88d4fde146109a857610378565b80638da5cb5b146108fe5780639016f8221461090657806395d89b411461092957610378565b80637dcb2abf116101ad5780637dcb2abf14610875578063832c51f6146108ab5780638380edb7146108d9578063842072af146108e157610378565b80636c0360eb146108245780636e00e2da1461082c57806370a082311461084f57610378565b80633e9b453e116102ad5780634f6ccce71161024b57806360246c881161022557806360246c881461077b5780636352211e146107e257806365dfee33146107ff57806368e5dab51461081c57610378565b80634f6ccce7146107395780635312ea8e14610756578063570ca7351461077357610378565b80634a256786116102875780634a256786146106785780634b1fff101461069b5780634cd5520b146106a35780634f558e791461071c57610378565b80633e9b453e146105f357806340be7bec1461061f57806342842e0e1461064257610378565b8063158ef93e1161031a57806323b872dd116102f457806323b872dd1461054f5780632c542ede146105855780632f38e042146105a85780632f745c59146105c757610378565b8063158ef93e1461052257806318160ddd1461052a57806320f8e94e1461053257610378565b8063081812fc11610356578063081812fc1461044f57806308521f7914610488578063095ea7b3146104ec57806313e46e841461051a57610378565b806301ffc9a71461037d5780630332f114146103b857806306fdde03146103d2575b600080fd5b6103a46004803603602081101561039357600080fd5b50356001600160e01b031916610bad565b604080519115158252519081900360200190f35b6103c0610bd0565b60408051918252519081900360200190f35b6103da610bd6565b6040805160208082528351818301528351919283929083019185019080838360005b838110156104145781810151838201526020016103fc565b50505050905090810190601f1680156104415780820380516001836020036101000a031916815260200191505b509250505060405180910390f35b61046c6004803603602081101561046557600080fd5b5035610c6c565b604080516001600160a01b039092168252519081900360200190f35b6104a56004803603602081101561049e57600080fd5b5035610cce565b60408051998a5260208a0198909852888801969096526060880194909452608087019290925260a086015260c085015260e084015261010083015251908190036101200190f35b6105186004803603604081101561050257600080fd5b506001600160a01b038135169060200135610d17565b005b6103c0610df2565b6103a4610df8565b6103c0610e08565b6105186004803603602081101561054857600080fd5b5035610e19565b6105186004803603606081101561056557600080fd5b506001600160a01b03813581169160208101359091169060400135610ea6565b6105186004803603604081101561059b57600080fd5b5080359060200135610f06565b610518600480360360208110156105be57600080fd5b50351515611083565b6103c0600480360360408110156105dd57600080fd5b506001600160a01b0381351690602001356110d7565b6105186004803603604081101561060957600080fd5b50803590602001356001600160a01b0316611102565b6105186004803603604081101561063557600080fd5b50803590602001356111df565b6105186004803603606081101561065857600080fd5b506001600160a01b03813581169160208101359091169060400135611304565b6105186004803603604081101561068e57600080fd5b508035906020013561131f565b6103c0611414565b610518600480360360408110156106b957600080fd5b8101906020810181356401000000008111156106d457600080fd5b8201836020820111156106e657600080fd5b8035906020019184602083028401116401000000008311171561070857600080fd5b9193509150356001600160a01b031661141a565b6103a46004803603602081101561073257600080fd5b5035611552565b6103c06004803603602081101561074f57600080fd5b503561155d565b6105186004803603602081101561076c57600080fd5b5035611573565b61046c611734565b610783611743565b604080516001600160a01b039b8c168152998b1660208b015297909916888801526060880195909552608087019390935260a086019190915260c085015260e08401526101008301526101208201929092529051908190036101400190f35b61046c600480360360208110156107f857600080fd5b50356118c0565b6105186004803603602081101561081557600080fd5b50356118e8565b61046c61196d565b6103da6119e3565b6103c06004803603604081101561084257600080fd5b5080359060200135611a44565b6103c06004803603602081101561086557600080fd5b50356001600160a01b0316611b1d565b6108926004803603602081101561088b57600080fd5b5035611b85565b6040805192835260208301919091528051918290030190f35b6108b3611d9a565b604080519485526020850193909352838301919091526060830152519081900360800190f35b6103a4611dac565b6103c0600480360360208110156108f757600080fd5b5035611e09565b61046c611e67565b6105186004803603604081101561091c57600080fd5b5080359060200135611eac565b6103da611f32565b6105186004803603604081101561094757600080fd5b506001600160a01b0381351690602001351515611f93565b6105186004803603604081101561097557600080fd5b5080359060200135612098565b6105186004803603602081101561099857600080fd5b50356001600160a01b03166121ac565b610518600480360360808110156109be57600080fd5b6001600160a01b038235811692602081013590911691604082013591908101906080810160608201356401000000008111156109f957600080fd5b820183602082011115610a0b57600080fd5b80359060200191846001830284011164010000000083111715610a2d57600080fd5b91908080601f016020809104026020016040519081016040528093929190818152602001838380828437600092019190915250929550612208945050505050565b61046c61226a565b6103da60048036036020811015610a8c57600080fd5b503561228e565b61051860048036036040811015610aa957600080fd5b508035906020013561250f565b61051860048036036040811015610acc57600080fd5b50803590602001356127cb565b610518612831565b6103a461288b565b6103a460048036036040811015610aff57600080fd5b506001600160a01b0381358116916020013516612893565b61046c6128c1565b6103a46128d0565b61051860048036036040811015610b3d57600080fd5b50803590602001356128d9565b6103c0612958565b61051860048036036080811015610b6857600080fd5b506001600160a01b038135811691602081013582169160408201358116916060013516612964565b61051860048036036020811015610ba657600080fd5b5035612abc565b6001600160e01b0319811660009081526001602052604090205460ff165b919050565b613a9881565b60078054604080516020601f6002600019610100600188161502019095169490940493840181900481028201810190925282815260609390929091830182828015610c625780601f10610c3757610100808354040283529160200191610c62565b820191906000526020600020905b815481529060010190602001808311610c4557829003601f168201915b5050505050905090565b6000610c7782612b35565b610cb25760405162461bcd60e51b815260040180806020018281038252602c815260200180614f6f602c913960400191505060405180910390fd5b506000908152600560205260409020546001600160a01b031690565b6000908152601b60205260409020805460018201546002830154600384015460048501546005860154600687015460078801546008909801549698959794969395929491939092565b6000610d22826118c0565b9050806001600160a01b0316836001600160a01b03161415610d755760405162461bcd60e51b8152600401808060200182810382526021815260200180614ff36021913960400191505060405180910390fd5b806001600160a01b0316610d87612b42565b6001600160a01b03161480610da85750610da881610da3612b42565b612893565b610de35760405162461bcd60e51b8152600401808060200182810382526038815260200180614ea16038913960400191505060405180910390fd5b610ded8383612b46565b505050565b6161a881565b600d54600160a01b900460ff1681565b6000610e146003612bb4565b905090565b60026000541415610e5f576040805162461bcd60e51b815260206004820152601f6024820152600080516020614dd9833981519152604482015290519081900360640190fd5b6002600055610e6d81612bbf565b610e75612c68565b610e8781610e82836118c0565b612d92565b6000818152601b60205260409020610e9e90613029565b506001600055565b60026000541415610eec576040805162461bcd60e51b815260206004820152601f6024820152600080516020614dd9833981519152604482015290519081900360640190fd5b6002600055610efc8383836130f3565b5050600160005550565b60026000541415610f4c576040805162461bcd60e51b815260206004820152601f6024820152600080516020614dd9833981519152604482015290519081900360640190fd5b6002600055610f5a8261314a565b60008111610f9a576040805162461bcd60e51b81526020600482015260086024820152670c08185b5bdd5b9d60c21b604482015290519081900360640190fd5b610fa2612c68565b6000610fad836118c0565b9050610fb98382612d92565b6000838152601b60205260409020600381015415610ff257610fd9613154565b60028201556003810154610fec90611e09565b60048201555b600e54611009906001600160a01b03163385613158565b81549093506110189084613279565b81556011546110279084613279565b60115561103381613029565b61103e8285856132d3565b6040805133815260208101859052815186927f2bc3f231118d71058e11ae6ae9f199b789d86a7012a9d45f4c2ed7d7016478c2928290030190a2505060016000555050565b61108b6133c5565b601a805460ff191682151517908190556040805160ff90921615158252517f1545be19b3ba6f2e76454d1b8b59529cbbbdf7af9046fd49bd86c17314a5509d916020908290030190a150565b6001600160a01b03821660009081526002602052604081206110f99083613420565b90505b92915050565b60026000541415611148576040805162461bcd60e51b815260206004820152601f6024820152600080516020614dd9833981519152604482015290519081900360640190fd5b600260005561115682612bbf565b611170611162836118c0565b6001600160a01b031661342c565b6111ad576040805162461bcd60e51b81526020600482015260096024820152682327a92124a22222a760b91b604482015290519081900360640190fd5b6111b5612c68565b6111bf8282612d92565b6000828152601b602052604090206111d690613029565b50506001600055565b60026000541415611225576040805162461bcd60e51b815260206004820152601f6024820152600080516020614dd9833981519152604482015290519081900360640190fd5b6002600055611232613432565b61123b82612b35565b61127e576040805162461bcd60e51b815260206004820152600f60248201526e1a5b9d985b1a59081d1bdad95b9259608a1b604482015290519081900360640190fd5b611286612c68565b611291826000612d92565b6000828152601b6020526040812060078101549091906112b19084613279565b6007830181905590506112c382613029565b60408051828152905185917fe96d35ce795c2d6a754b1bf60d2ea30785c5a460b6d4bf0e5b48190e5084860d919081900360200190a2505060016000555050565b610ded83838360405180602001604052806000815250612208565b6113276133c5565b6161a8821115611369576040805162461bcd60e51b81526020600482015260086024820152670e8dede40d0d2ced60c31b604482015290519081900360640190fd5b613a98811115801561138f57508161138c6017548361327990919063ffffffff16565b11155b6113cb576040805162461bcd60e51b81526020600482015260086024820152670e8dede40d0d2ced60c31b604482015290519081900360640190fd5b60158290556018819055604080518381526020810183905281517fde0bddf440a694ffa55b73c57fcb0c32fc9794b258c4e71ca2c867f6d7137f05929181900390910190a15050565b60195481565b60026000541415611460576040805162461bcd60e51b815260206004820152601f6024820152600080516020614dd9833981519152604482015290519081900360640190fd5b600260005561146d612c68565b8160005b8181101561154657600085858381811061148757fe5b90506020020135905061149981612bbf565b60006114a4826118c0565b9050336001600160a01b0382161480156114c65750336001600160a01b038616145b806114de57506114de816001600160a01b031661342c565b61151b576040805162461bcd60e51b81526020600482015260096024820152682327a92124a22222a760b91b604482015290519081900360640190fd5b6115258286612d92565b6000828152601b6020526040902061153c90613029565b5050600101611471565b50506001600055505050565b60006110fc82612b35565b60008061156b60038461343a565b509392505050565b600260005414156115b9576040805162461bcd60e51b815260206004820152601f6024820152600080516020614dd9833981519152604482015290519081900360640190fd5b60026000556115c781613456565b6000818152601b6020908152604091829020600d548351636f8297af60e01b8152336004820152935191936001600160a01b0390911692636f8297af92602480840193829003018186803b15801561161e57600080fd5b505afa158015611632573d6000803e3d6000fd5b505050506040513d602081101561164857600080fd5b50518061166e5750611658613154565b6003820154600283015461166b91613279565b11155b8061167c575061167c611dac565b6116b6576040805162461bcd60e51b81526020600482015260066024820152651b1bd8dad95960d21b604482015290519081900360640190fd5b80546011546116c590826134e1565b60115560018201546012546116d9916134e1565b6012556116e783600061353e565b60408051828152905184917fb073e6fbd06d7557d2c82f414fee57de28e7fb517ecc0afdd6b1fc57034a9cb8919081900360200190a2600e54610efc906001600160a01b03163383613623565b600c546001600160a01b031681565b600080600080600080600080600080600d60009054906101000a90046001600160a01b03166001600160a01b03166306bfa938306040518263ffffffff1660e01b815260040180826001600160a01b031681526020019150506101006040518083038186803b1580156117b557600080fd5b505afa1580156117c9573d6000803e3d6000fd5b505050506040513d6101008110156117e057600080fd5b810190808051906020019092919080519060200190929190805190602001909291908051906020019092919080519060200190929190805190602001909291908051906020019092919080519060200190929190505050909192939495965090919250909150905050809950819350829450505050600e60009054906101000a90046001600160a01b0316600f60009054906101000a90046001600160a01b0316601060009054906101000a90046001600160a01b0316896013546014546011546012549950995099509950995099509950995090919293949596979899565b60006110fc82604051806060016040528060298152602001614f036029913960039190613675565b6118f06133c5565b612710811115611932576040805162461bcd60e51b81526020600482015260086024820152670e8dede40d0d2ced60c31b604482015290519081900360640190fd5b60198190556040805182815290517ff31b3ecd846e2f87c144a144c5d3b86e605c7d26e102dbe4d5dbf2b220475bbb9181900360200190a150565b600d54604080516368e5dab560e01b815290516000926001600160a01b0316916368e5dab5916004808301926020929190829003018186803b1580156119b257600080fd5b505afa1580156119c6573d6000803e3d6000fd5b505050506040513d60208110156119dc57600080fd5b5051905090565b600a8054604080516020601f6002600019610100600188161502019095169490940493840181900481028201810190925282815260609390929091830182828015610c625780601f10610c3757610100808354040283529160200191610c62565b6000811580611a51575082155b15611a5e575060006110fc565b6000611a6861196d565b90506001600160a01b038116611a7f576000611b15565b6018546011546040805163d2eec6ff60e01b8152306004820152602481019390935260448301879052606483019190915260848201859052516001600160a01b0383169163d2eec6ff9160a4808301926020929190829003018186803b158015611ae857600080fd5b505afa158015611afc573d6000803e3d6000fd5b505050506040513d6020811015611b1257600080fd5b50515b949350505050565b60006001600160a01b038216611b645760405162461bcd60e51b815260040180806020018281038252602a815260200180614ed9602a913960400191505060405180910390fd5b6001600160a01b03821660009081526002602052604090206110fc90612bb4565b600d546040805162d7f52760e31b815230600482015290516000928392839283928392839283926001600160a01b0316916306bfa93891602480830192610100929190829003018186803b158015611bdc57600080fd5b505afa158015611bf0573d6000803e3d6000fd5b505050506040513d610100811015611c0757600080fd5b506060810151608082015160a083015160c084015160e09094015160008d8152601b602052604081206001810154601354601454979d50959b5093995095975090955090929089611c56613154565b60125491109150151589151580611c6d5750600089115b80611c755750815b8015611c7e5750805b15611d20576000611c978c611c91613154565b906134e1565b90506000611caf8c611ca9848d613682565b90613279565b9050611ce2611cdb601254611cd5670de0b6b3a76400008561368290919063ffffffff16565b906136db565b8790613279565b95506000611cf48c611ca9858d613682565b9050611d1a611cdb601254611cd5670de0b6b3a76400008561368290919063ffffffff16565b95505050505b611d5786600a0154611ca98860090154611ca98a60050154611c91670de0b6b3a7640000611cd58c8e61368290919063ffffffff16565b9c50611d8886600b0154611ca98860060154611c91670de0b6b3a7640000611cd5898c61368290919063ffffffff16565b9b505050505050505050505050915091565b60155460165460175460185490919293565b601a5460009060ff1680610e145750600d60009054906101000a90046001600160a01b03166001600160a01b031663f2c399926040518163ffffffff1660e01b815260040160206040518083038186803b1580156119b257600080fd5b6000611e13611dac565b15611e2057506000610bcb565b6016541580611e2d575081155b15611e3a57506000610bcb565b6016548210611e4c5750601754610bcb565b6110fc601654611cd58460175461368290919063ffffffff16565b600d5460408051638da5cb5b60e01b815290516000926001600160a01b031691638da5cb5b916004808301926020929190829003018186803b1580156119b257600080fd5b60026000541415611ef2576040805162461bcd60e51b815260206004820152601f6024820152600080516020614dd9833981519152604482015290519081900360640190fd5b6002600055611eff613432565b611f07612c68565b611f12826000612d92565b6000828152601b6020526040812060078101549091906112b190846134e1565b60088054604080516020601f6002600019610100600188161502019095169490940493840181900481028201810190925282815260609390929091830182828015610c625780601f10610c3757610100808354040283529160200191610c62565b611f9b612b42565b6001600160a01b0316826001600160a01b03161415612001576040805162461bcd60e51b815260206004820152601960248201527f4552433732313a20617070726f766520746f2063616c6c657200000000000000604482015290519081900360640190fd5b806006600061200e612b42565b6001600160a01b03908116825260208083019390935260409182016000908120918716808252919093529120805460ff191692151592909217909155612052612b42565b6001600160a01b03167f17307eab39ab6107e8899845ad3d59bd9653f200f220920489ca2b5937696c318360405180821515815260200191505060405180910390a35050565b6120a0611e67565b6001600160a01b0316336001600160a01b031614806120c95750600c546001600160a01b031633145b612106576040805162461bcd60e51b81526020600482015260096024820152682327a92124a22222a760b91b604482015290519081900360640190fd5b613a9881111580156121275750601554601854612124908390613279565b11155b612163576040805162461bcd60e51b81526020600482015260086024820152670e8dede40d0d2ced60c31b604482015290519081900360640190fd5b60168290556017819055604080518381526020810183905281517f46cf6b9b4ec75e8786b2e93d4beb426d70d56d9b0eb9bfd40e975f9dc59d7703929181900390910190a15050565b6121b46133c5565b600c80546001600160a01b0383166001600160a01b0319909116811790915560408051918252517fdbebfba65bd6398fb722063efc10c99f624f9cd8ba657201056af918a676d5ee9181900360200190a150565b6002600054141561224e576040805162461bcd60e51b815260206004820152601f6024820152600080516020614dd9833981519152604482015290519081900360640190fd5b600260005561225f84848484613742565b505060016000555050565b7f000000000000000000000000000000000000000000000000000000000000000081565b606061229982612b35565b6122d45760405162461bcd60e51b815260040180806020018281038252602f815260200180614fc4602f913960400191505060405180910390fd5b60008281526009602090815260408083208054825160026001831615610100026000190190921691909104601f8101859004850282018501909352828152929091908301828280156123675780601f1061233c57610100808354040283529160200191612367565b820191906000526020600020905b81548152906001019060200180831161234a57829003601f168201915b5050505050905060006123786119e3565b905080516000141561238c57509050610bcb565b81511561244d5780826040516020018083805190602001908083835b602083106123c75780518252601f1990920191602091820191016123a8565b51815160209384036101000a600019018019909216911617905285519190930192850191508083835b6020831061240f5780518252601f1990920191602091820191016123f0565b6001836020036101000a0380198251168184511680821785525050505050509050019250505060405160208183030381529060405292505050610bcb565b806124578561379a565b6040516020018083805190602001908083835b602083106124895780518252601f19909201916020918201910161246a565b51815160209384036101000a600019018019909216911617905285519190930192850191508083835b602083106124d15780518252601f1990920191602091820191016124b2565b6001836020036101000a0380198251168184511680821785525050505050509050019250505060405160208183030381529060405292505050919050565b60026000541415612555576040805162461bcd60e51b815260206004820152601f6024820152600080516020614dd9833981519152604482015290519081900360640190fd5b6002600055612562611dac565b156125ab5780156125ab576040805162461bcd60e51b815260206004820152600e60248201526d1b1bd8dadcc8191a5cd8589b195960921b604482015290519081900360640190fd5b6125b3612c68565b600e546125ca906001600160a01b03163384613158565b91508161260c576040805162461bcd60e51b815260206004820152600b60248201526a1e995c9bc8185b5bdd5b9d60aa1b604482015290519081900360640190fd5b600061261733613875565b9050600061262483611e09565b90506000612642612710611cd561263b8583613279565b8890613682565b9050604051806101800160405280868152602001828152602001612664613154565b8152602001858152602001838152602001612696670de0b6b3a7640000611cd56013548661368290919063ffffffff16565b81526020016126bc670de0b6b3a7640000611cd56014548661368290919063ffffffff16565b81526000602080830182905260408084018790526060808501849052608080860185905260a0958601859052898552601b84529382902086518155928601516001840155908501516002830155840151600382015590830151600482015590820151600582015560c0820151600682015560e0820151600782015561010082015160088201556101208201516009820155610140820151600a82015561016090910151600b909101556011546127729086613279565b6011556012546127829082613279565b6012556040805186815260208101869052815185927fc75220a9dbab7c65d9cc87d8534accb348d3f151ee2afccfb42e6ccf75556f23928290030190a250506001600055505050565b60026000541415612811576040805162461bcd60e51b815260206004820152601f6024820152600080516020614dd9833981519152604482015290519081900360640190fd5b600260005561281f82612bbf565b612827612c68565b6111d68282613897565b60026000541415612877576040805162461bcd60e51b815260206004820152601f6024820152600080516020614dd9833981519152604482015290519081900360640190fd5b6002600055612884612c68565b6001600055565b601254151590565b6001600160a01b03918216600090815260066020908152604080832093909416825291909152205460ff1690565b600d546001600160a01b031681565b601a5460ff1681565b6002600054141561291f576040805162461bcd60e51b815260206004820152601f6024820152600080516020614dd9833981519152604482015290519081900360640190fd5b600260005561292d82612bbf565b612935612c68565b6000612940836118c0565b905061294d8184846139dc565b610efc818484613bf8565b6000610e14600b613c8e565b336001600160a01b037f0000000000000000000000000000000000000000000000000000000000000000161480156129a65750600d54600160a01b900460ff16155b6129e3576040805162461bcd60e51b81526020600482015260096024820152682327a92124a22222a760b91b604482015290519081900360640190fd5b600e80546001600160a01b03199081166001600160a01b0384811691909117909255600d8054600f8054841688861617908190556010805485168887161790819055600160a01b929094168986161760ff60a01b1916919091179091556040805163095ea7b360e01b8152928416600484015260001960248401525192169163095ea7b3916044808201926020929091908290030181600087803b158015612a8a57600080fd5b505af1158015612a9e573d6000803e3d6000fd5b505050506040513d6020811015612ab457600080fd5b505050505050565b60026000541415612b02576040805162461bcd60e51b815260206004820152601f6024820152600080516020614dd9833981519152604482015290519081900360640190fd5b6002600055612b1081612bbf565b612b18612c68565b6000818152601b6020526040902060030154610e9e908290613897565b60006110fc600383613c92565b3390565b600081815260056020526040902080546001600160a01b0319166001600160a01b0384169081179091558190612b7b826118c0565b6001600160a01b03167f8c5be1e5ebec7d5bd14f71427d1e84f3dd0314c0f7b2291e5b200ac8c7c3b92560405160405180910390a45050565b60006110fc82613c8e565b612bc881612b35565b612c035760405162461bcd60e51b815260040180806020018281038252602c815260200180614e75602c913960400191505060405180910390fd5b612c0d3382613c9e565b80612c28575033612c1d82610c6c565b6001600160a01b0316145b612c65576040805162461bcd60e51b81526020600482015260096024820152682327a92124a22222a760b91b604482015290519081900360640190fd5b50565b601254600d546040805163372500ab60e01b8152815160009384936001600160a01b039091169263372500ab926004808301939282900301818787803b158015612cb157600080fd5b505af1158015612cc5573d6000803e3d6000fd5b505050506040513d6040811015612cdb57600080fd5b50805160209091015190925090508115612d1557612d11612d0884611cd585670de0b6b3a7640000613682565b60135490613279565b6013555b8015612d4157612d3d612d3484611cd584670de0b6b3a7640000613682565b60145490613279565b6014555b7f17b8644f386d1c7c7138ef98b3c8035622bbe94d7be9b26f71d2654a547c2943612d6a613154565b60135460145460408051938452602084019290925282820152519081900360600190a1505050565b6000828152601b602052604081206001810154600582015460135492939192612dcf9190611c9190670de0b6b3a764000090611cd5908790613682565b90506000612dfc8460060154611c91670de0b6b3a7640000611cd56014548861368290919063ffffffff16565b9050612e06611dac565b80612e2a5750612e14613154565b60038501546002860154612e2791613279565b11155b15612e3e5760006003850181905560048501555b6000821180612e4d5750600081115b80612e5c575060008460090154115b80612e6b5750600084600a0154115b80612e7a5750600084600b0154115b15612fd5576000612e9c612710611cd56019548661368290919063ffffffff16565b90506000612ebb82611c9188600a01548761327990919063ffffffff16565b9050612ed486600901548361327990919063ffffffff16565b91506001600160a01b038716612efe5760098601829055600a8601819055600b8601839055612fd2565b600060098701819055600a8701819055600b8701558115612f2657612f238783613cc5565b91505b600f54612f3d906001600160a01b03168883613dcb565b9050612fc3600d60009054906101000a90046001600160a01b03166001600160a01b0316634b57b0be6040518163ffffffff1660e01b815260040160206040518083038186803b158015612f9057600080fd5b505afa158015612fa4573d6000803e3d6000fd5b505050506040513d6020811015612fba57600080fd5b50518885613dcb565b9250612fd28789838587613e7e565b50505b604080516001600160a01b038716815260208101849052808201839052905187917f346d3f6bb678628c35d9b7cda69efe48648b87c82045a3a95c23dc19a902ad9b919081900360600190a2505050505050565b60006130458260040154611ca984600001548560070154611a44565b905060155481111561305657506015545b60088201819055600061307a612710611cd56130728583613279565b865490613682565b90506000601254905061309e82611ca98660010154846134e190919063ffffffff16565b601255600184018290556013546130c490670de0b6b3a764000090611cd5908590613682565b60058501556014546130e590670de0b6b3a764000090611cd5908590613682565b846006018190555050505050565b6131046130fe612b42565b82613f98565b61313f5760405162461bcd60e51b81526004018080602001828103825260318152602001806150146031913960400191505060405180910390fd5b610ded838383614034565b612c283382613f98565b4290565b600080846001600160a01b03166370a08231306040518263ffffffff1660e01b815260040180826001600160a01b0316815260200191505060206040518083038186803b1580156131a857600080fd5b505afa1580156131bc573d6000803e3d6000fd5b505050506040513d60208110156131d257600080fd5b505190506131eb6001600160a01b038616853086614180565b61326e81866001600160a01b03166370a08231306040518263ffffffff1660e01b815260040180826001600160a01b0316815260200191505060206040518083038186803b15801561323c57600080fd5b505afa158015613250573d6000803e3d6000fd5b505050506040513d602081101561326657600080fd5b5051906134e1565b9150505b9392505050565b6000828201838110156110f9576040805162461bcd60e51b815260206004820152601b60248201527f536166654d6174683a206164646974696f6e206f766572666c6f770000000000604482015290519081900360640190fd5b6132e5836001600160a01b031661342c565b15610ded57604080513360248201526044810184905260648082018490528251808303909101815260849091018252602081810180516001600160e01b031663e2b36dc360e01b1790528251808401909352600f83526e1b9bdb881a5b5c1b195b595b9d1959608a1b90830152600091613369916001600160a01b038716916141da565b905080806020019051602081101561338057600080fd5b50516133bf576040805162461bcd60e51b81526020600482015260096024820152682327a92124a22222a760b91b604482015290519081900360640190fd5b50505050565b6133cd611e67565b6001600160a01b0316336001600160a01b03161461341e576040805162461bcd60e51b81526020600482015260096024820152682327a92124a22222a760b91b604482015290519081900360640190fd5b565b60006110f983836141e9565b3b151590565b6133cd61196d565b6000808080613449868661424d565b9097909650945050505050565b61345f81612b35565b61349a5760405162461bcd60e51b815260040180806020018281038252602c815260200180614e75602c913960400191505060405180910390fd5b6134a43382613c9e565b612c65576040805162461bcd60e51b81526020600482015260096024820152683737ba1037bbb732b960b91b604482015290519081900360640190fd5b600082821115613538576040805162461bcd60e51b815260206004820152601e60248201527f536166654d6174683a207375627472616374696f6e206f766572666c6f770000604482015290519081900360640190fd5b50900390565b80156135bb5761354c61196d565b6001600160a01b0316635485435433846040518363ffffffff1660e01b815260040180836001600160a01b0316815260200182815260200192505050600060405180830381600087803b1580156135a257600080fd5b505af11580156135b6573d6000803e3d6000fd5b505050505b6000828152601b60205260408120818155600181018290556002810182905560038101829055600481018290556005810182905560068101829055600781018290556008810182905560098101829055600a8101829055600b015561361f826142c8565b5050565b604080516001600160a01b038416602482015260448082018490528251808303909101815260649091019091526020810180516001600160e01b031663a9059cbb60e01b179052610ded908490614395565b6000611b15848484614446565b600082613691575060006110fc565b8282028284828161369e57fe5b04146110f95760405162461bcd60e51b8152600401808060200182810382526021815260200180614f4e6021913960400191505060405180910390fd5b6000808211613731576040805162461bcd60e51b815260206004820152601a60248201527f536166654d6174683a206469766973696f6e206279207a65726f000000000000604482015290519081900360640190fd5b81838161373a57fe5b049392505050565b61375361374d612b42565b83613f98565b61378e5760405162461bcd60e51b81526004018080602001828103825260318152602001806150146031913960400191505060405180910390fd5b6133bf84848484614510565b6060816137bf57506040805180820190915260018152600360fc1b6020820152610bcb565b8160005b81156137d757600101600a820491506137c3565b60008167ffffffffffffffff811180156137f057600080fd5b506040519080825280601f01601f19166020018201604052801561381b576020820181803683370190505b50859350905060001982015b831561386c57600a840660300160f81b8282806001900393508151811061384a57fe5b60200101906001600160f81b031916908160001a905350600a84049350613827565b50949350505050565b6000613881600b614562565b61388b600b613c8e565b9050610bcb828261456b565b61389f611dac565b156138e2576040805162461bcd60e51b815260206004820152600e60248201526d1b1bd8dadcc8191a5cd8589b195960921b604482015290519081900360640190fd5b6000828152601b602052604081206003810154600282015491929161390691613279565b90506000613912613154565b9050808211156139705761392682826134e1565b84101580156139355750600084115b613970576040805162461bcd60e51b81526020600482015260076024820152661a5b9d985b1a5960ca1b604482015290519081900360640190fd5b61397a8533612d92565b6003830184905561398a84611e09565b60048401556002830181905561399f83613029565b60408051858152905186917f817ea9dab606b88f1d3b71d35f23e301a95c27058f35c39acf502f471feb03b8919081900360200190a25050505050565b60008111613a1a576040805162461bcd60e51b815260206004808301919091526024820152631b9d5b1b60e21b604482015290519081900360640190fd5b6000828152601b6020908152604091829020600d548351636f8297af60e01b81526001600160a01b0388811660048301529451929490911692636f8297af92602480840193829003018186803b158015613a7357600080fd5b505afa158015613a87573d6000803e3d6000fd5b505050506040513d6020811015613a9d57600080fd5b505180613ac35750613aad613154565b60038201546002830154613ac091613279565b11155b80613ad15750613ad1611dac565b613b0b576040805162461bcd60e51b81526020600482015260066024820152651b1bd8dad95960d21b604482015290519081900360640190fd5b8054821115613b4b576040805162461bcd60e51b81526020600482015260076024820152661a5b9d985b1a5960ca1b604482015290519081900360640190fd5b613b558385612d92565b8054613b6190836134e1565b8155601154613b7090836134e1565b6011558054613ba2576001810154601254613b8a916134e1565b6012556007810154613b9d90849061353e565b613bab565b613bab81613029565b60408051838152905184917f10b3873e32aa5edce774b02db517f3bde3429d0e97b57b74cb569ba85ce69a58919081900360200190a2600e546133bf906001600160a01b03168584613623565b613c0a836001600160a01b031661342c565b15610ded57604080513360248201526044810184905260648082018490528251808303909101815260849091018252602081810180516001600160e01b0316631a33be3d60e11b1790528251808401909352600f83526e1b9bdb881a5b5c1b195b595b9d1959608a1b90830152600091613369916001600160a01b038716916141da565b5490565b60006110f98383614585565b6000613ca9826118c0565b6001600160a01b0316836001600160a01b031614905092915050565b600f54604080516370a0823160e01b8152306004820152905160009283926001600160a01b03909116916370a0823191602480820192602092909190829003018186803b158015613d1557600080fd5b505afa158015613d29573d6000803e3d6000fd5b505050506040513d6020811015613d3f57600080fd5b5051905080831115613d4f578092505b8215613dc357601054604080516316874d3760e21b8152600481018690526001600160a01b03878116602483015291519190921691635a1d34dc91604480830192600092919082900301818387803b158015613daa57600080fd5b505af1158015613dbe573d6000803e3d6000fd5b505050505b509092915050565b6000808490506000816001600160a01b03166370a08231306040518263ffffffff1660e01b815260040180826001600160a01b0316815260200191505060206040518083038186803b158015613e2057600080fd5b505afa158015613e34573d6000803e3d6000fd5b505050506040513d6020811015613e4a57600080fd5b5051905080841115613e5a578093505b8315613e7457613e746001600160a01b0383168686613623565b5091949350505050565b6000613e89856118c0565b9050613e9d816001600160a01b031661342c565b15612ab457604080513360248201526001600160a01b038089166044830152606482018890526084820187905260a4820186905260c48083018690528351808403909101815260e49092018352602082810180516001600160e01b0316633f40112360e01b1790528351808501909452600f84526e1b9bdb881a5b5c1b195b595b9d1959608a1b90840152600092613f399291851691906141da565b9050808060200190516020811015613f5057600080fd5b5051613f8f576040805162461bcd60e51b81526020600482015260096024820152682327a92124a22222a760b91b604482015290519081900360640190fd5b50505050505050565b6000613fa382612b35565b613fde5760405162461bcd60e51b815260040180806020018281038252602c815260200180614e75602c913960400191505060405180910390fd5b6000613fe9836118c0565b9050806001600160a01b0316846001600160a01b031614806140245750836001600160a01b031661401984610c6c565b6001600160a01b0316145b80611b155750611b158185612893565b826001600160a01b0316614047826118c0565b6001600160a01b03161461408c5760405162461bcd60e51b8152600401808060200182810382526029815260200180614f9b6029913960400191505060405180910390fd5b6001600160a01b0382166140d15760405162461bcd60e51b8152600401808060200182810382526024815260200180614e2b6024913960400191505060405180910390fd5b6140dc83838361459d565b6140e7600082612b46565b6001600160a01b03831660009081526002602052604090206141099082614600565b506001600160a01b038216600090815260026020526040902061412c908261460c565b5061413960038284614618565b5080826001600160a01b0316846001600160a01b03167fddf252ad1be2c89b69c2b068fc378daa952ba7f163c4a11628f55a4df523b3ef60405160405180910390a4505050565b604080516001600160a01b0380861660248301528416604482015260648082018490528251808303909101815260849091019091526020810180516001600160e01b03166323b872dd60e01b1790526133bf908590614395565b6060611b15848460008561462e565b8154600090821061422b5760405162461bcd60e51b8152600401808060200182810382526022815260200180614db76022913960400191505060405180910390fd5b82600001828154811061423a57fe5b9060005260206000200154905092915050565b8154600090819083106142915760405162461bcd60e51b8152600401808060200182810382526022815260200180614f2c6022913960400191505060405180910390fd5b60008460000184815481106142a257fe5b906000526020600020906002020190508060000154816001015492509250509250929050565b60006142d3826118c0565b90506142e18160008461459d565b6142ec600083612b46565b600082815260096020526040902054600260001961010060018416150201909116041561432a57600082815260096020526040812061432a91614d5e565b6001600160a01b038116600090815260026020526040902061434c9083614600565b50614358600383614789565b5060405182906000906001600160a01b038416907fddf252ad1be2c89b69c2b068fc378daa952ba7f163c4a11628f55a4df523b3ef908390a45050565b60006143ea826040518060400160405280602081526020017f5361666545524332303a206c6f772d6c6576656c2063616c6c206661696c6564815250856001600160a01b03166141da9092919063ffffffff16565b805190915015610ded5780806020019051602081101561440957600080fd5b5051610ded5760405162461bcd60e51b815260040180806020018281038252602a815260200180615045602a913960400191505060405180910390fd5b600082815260018401602052604081205482816144e15760405162461bcd60e51b81526004018080602001828103825283818151815260200191508051906020019080838360005b838110156144a657818101518382015260200161448e565b50505050905090810190601f1680156144d35780820380516001836020036101000a031916815260200191505b509250505060405180910390fd5b508460000160018203815481106144f457fe5b9060005260206000209060020201600101549150509392505050565b61451b848484614034565b61452784848484614795565b6133bf5760405162461bcd60e51b8152600401808060200182810382526032815260200180614df96032913960400191505060405180910390fd5b80546001019055565b61361f8282604051806020016040528060008152506148fd565b60009081526001919091016020526040902054151590565b6145af836001600160a01b031661342c565b15806145c35750336001600160a01b038416145b610ded576040805162461bcd60e51b81526020600482015260096024820152682327a92124a22222a760b91b604482015290519081900360640190fd5b60006110f9838361494f565b60006110f98383614a15565b6000611b1584846001600160a01b038516614a5f565b60608247101561466f5760405162461bcd60e51b8152600401808060200182810382526026815260200180614e4f6026913960400191505060405180910390fd5b6146788561342c565b6146c9576040805162461bcd60e51b815260206004820152601d60248201527f416464726573733a2063616c6c20746f206e6f6e2d636f6e7472616374000000604482015290519081900360640190fd5b600080866001600160a01b031685876040518082805190602001908083835b602083106147075780518252601f1990920191602091820191016146e8565b6001836020036101000a03801982511681845116808217855250505050505090500191505060006040518083038185875af1925050503d8060008114614769576040519150601f19603f3d011682016040523d82523d6000602084013e61476e565b606091505b509150915061477e828286614af6565b979650505050505050565b60006110f98383614b5c565b60006147a9846001600160a01b031661342c565b6147b557506001611b15565b60006148c3630a85bd0160e11b6147ca612b42565b88878760405160240180856001600160a01b03168152602001846001600160a01b0316815260200183815260200180602001828103825283818151815260200191508051906020019080838360005b83811015614831578181015183820152602001614819565b50505050905090810190601f16801561485e5780820380516001836020036101000a031916815260200191505b5095505050505050604051602081830303815290604052906001600160e01b0319166020820180516001600160e01b038381831617835250505050604051806060016040528060328152602001614df9603291396001600160a01b03881691906141da565b905060008180602001905160208110156148dc57600080fd5b50516001600160e01b031916630a85bd0160e11b1492505050949350505050565b6149078383614c30565b6149146000848484614795565b610ded5760405162461bcd60e51b8152600401808060200182810382526032815260200180614df96032913960400191505060405180910390fd5b60008181526001830160205260408120548015614a0b578354600019808301919081019060009087908390811061498257fe5b906000526020600020015490508087600001848154811061499f57fe5b6000918252602080832090910192909255828152600189810190925260409020908401905586548790806149cf57fe5b600190038181906000526020600020016000905590558660010160008781526020019081526020016000206000905560019450505050506110fc565b60009150506110fc565b6000614a218383614585565b614a57575081546001818101845560008481526020808220909301849055845484825282860190935260409020919091556110fc565b5060006110fc565b600082815260018401602052604081205480614ac4575050604080518082018252838152602080820184815286546001818101895560008981528481209551600290930290950191825591519082015586548684528188019092529290912055613272565b82856000016001830381548110614ad757fe5b9060005260206000209060020201600101819055506000915050613272565b60608315614b05575081613272565b825115614b155782518084602001fd5b60405162461bcd60e51b81526020600482018181528451602484015284518593919283926044019190850190808383600083156144a657818101518382015260200161448e565b60008181526001830160205260408120548015614a0b5783546000198083019190810190600090879083908110614b8f57fe5b9060005260206000209060020201905080876000018481548110614baf57fe5b600091825260208083208454600290930201918255600193840154918401919091558354825289830190526040902090840190558654879080614bee57fe5b60008281526020808220600260001990940193840201828155600190810183905592909355888152898201909252604082209190915594506110fc9350505050565b6001600160a01b038216614c8b576040805162461bcd60e51b815260206004820181905260248201527f4552433732313a206d696e7420746f20746865207a65726f2061646472657373604482015290519081900360640190fd5b614c9481612b35565b15614ce6576040805162461bcd60e51b815260206004820152601c60248201527f4552433732313a20746f6b656e20616c7265616479206d696e74656400000000604482015290519081900360640190fd5b614cf26000838361459d565b6001600160a01b0382166000908152600260205260409020614d14908261460c565b50614d2160038284614618565b5060405181906001600160a01b038416906000907fddf252ad1be2c89b69c2b068fc378daa952ba7f163c4a11628f55a4df523b3ef908290a45050565b50805460018160011615610100020316600290046000825580601f10614d845750612c65565b601f016020900490600052602060002090810190612c6591905b80821115614db25760008155600101614d9e565b509056fe456e756d657261626c655365743a20696e646578206f7574206f6620626f756e64735265656e7472616e637947756172643a207265656e7472616e742063616c6c004552433732313a207472616e7366657220746f206e6f6e20455243373231526563656976657220696d706c656d656e7465724552433732313a207472616e7366657220746f20746865207a65726f2061646472657373416464726573733a20696e73756666696369656e742062616c616e636520666f722063616c6c4552433732313a206f70657261746f7220717565727920666f72206e6f6e6578697374656e7420746f6b656e4552433732313a20617070726f76652063616c6c6572206973206e6f74206f776e6572206e6f7220617070726f76656420666f7220616c6c4552433732313a2062616c616e636520717565727920666f7220746865207a65726f20616464726573734552433732313a206f776e657220717565727920666f72206e6f6e6578697374656e7420746f6b656e456e756d657261626c654d61703a20696e646578206f7574206f6620626f756e6473536166654d6174683a206d756c7469706c69636174696f6e206f766572666c6f774552433732313a20617070726f76656420717565727920666f72206e6f6e6578697374656e7420746f6b656e4552433732313a207472616e73666572206f6620746f6b656e2074686174206973206e6f74206f776e4552433732314d657461646174613a2055524920717565727920666f72206e6f6e6578697374656e7420746f6b656e4552433732313a20617070726f76616c20746f2063757272656e74206f776e65724552433732313a207472616e736665722063616c6c6572206973206e6f74206f776e6572206e6f7220617070726f7665645361666545524332303a204552433230206f7065726174696f6e20646964206e6f742073756363656564a26469706673582212203cdad4157e4958ae936458398a074ad0e993b131406e3ec98fbdb0d76204632b64736f6c63430007060033",
    "linkReferences": {}
  },
  "methodIdentifiers": {
    "MAX_BOOST_MULTIPLIER_LIMIT()": "0332f114",
    "MAX_GLOBAL_MULTIPLIER_LIMIT()": "13e46e84",
    "MAX_LOCK_MULTIPLIER_LIMIT()": "d4e32de6",
    "addToPosition(uint256,uint256)": "2c542ede",
    "approve(address,uint256)": "095ea7b3",
    "balanceOf(address)": "70a08231",
    "baseURI()": "6c0360eb",
    "boost(uint256,uint256)": "40be7bec",
    "createPosition(uint256,uint256)": "d1aaef05",
    "emergencyUnlock()": "f2c39992",
    "emergencyWithdraw(uint256)": "5312ea8e",
    "exists(uint256)": "4f558e79",
    "factory()": "c45a0155",
    "getApproved(uint256)": "081812fc",
    "getMultiplierByBoostPoints(uint256,uint256)": "6e00e2da",
    "getMultiplierByLockDuration(uint256)": "842072af",
    "getMultiplierSettings()": "832c51f6",
    "getPoolInfo()": "60246c88",
    "getStakingPosition(uint256)": "08521f79",
    "harvestPosition(uint256)": "20f8e94e",
    "harvestPositionTo(uint256,address)": "3e9b453e",
    "harvestPositionsTo(uint256[],address)": "4cd5520b",
    "hasDeposits()": "e61f927d",
    "initialize(address,address,address,address)": "f8c8765e",
    "initialized()": "158ef93e",
    "isApprovedForAll(address,address)": "e985e9c5",
    "isUnlocked()": "8380edb7",
    "lastTokenId()": "f84ddf0b",
    "lockPosition(uint256,uint256)": "d5232dee",
    "master()": "ee97f7f3",
    "name()": "06fdde03",
    "operator()": "570ca735",
    "owner()": "8da5cb5b",
    "ownerOf(uint256)": "6352211e",
    "pendingRewards(uint256)": "7dcb2abf",
    "renewLockPosition(uint256)": "fdc5f930",
    "safeTransferFrom(address,address,uint256)": "42842e0e",
    "safeTransferFrom(address,address,uint256,bytes)": "b88d4fde",
    "setApprovalForAll(address,bool)": "a22cb465",
    "setBoostMultiplierSettings(uint256,uint256)": "4a256786",
    "setEmergencyUnlock(bool)": "2f38e042",
    "setLockMultiplierSettings(uint256,uint256)": "a6b0b2a8",
    "setOperator(address)": "b3ab15fb",
    "setXTokenRewardsShare(uint256)": "65dfee33",
    "supportsInterface(bytes4)": "01ffc9a7",
    "symbol()": "95d89b41",
    "tokenByIndex(uint256)": "4f6ccce7",
    "tokenOfOwnerByIndex(address,uint256)": "2f745c59",
    "tokenURI(uint256)": "c87b56dd",
    "totalSupply()": "18160ddd",
    "transferFrom(address,address,uint256)": "23b872dd",
    "unboost(uint256,uint256)": "9016f822",
    "updatePool()": "e3161ddd",
    "withdrawFromPosition(uint256,uint256)": "f2e16b3c",
    "xTokenRewardsShare()": "4b1fff10",
    "yieldBooster()": "68e5dab5"
  },
  "id": 0
}